:100000000C9419020C9438020C9438020C943802A7
:100010000C9438020C94630C0C9494110C94A81159
:100020000C949E110C9438020C9438020C9480119C
:100030000C9438020C9438020C9469110C94380218
:100040000C9438020C9438020C94F0020C94C50203
:100050000C941C030C94B2110C9438020C948A1169
:100060000C9438020C9438020C946D030C943802F2
:100070000C9438020C9438020C94730C0C943802D3
:100080000C94A30C0C94BF150C9438023A1348132B
:1000900050135813601368137413F113F413F71308
:1000A000FA13FD1300140314061414164C168216CA
:1000B000BE164917D4175F18D216DC16E316E316DE
:1000C000E316D216DC16E316F21693189518971855
:1000D0009918F2169D185D1767176E176E176E1731
:1000E0005D1767176E177D1793189518971899184D
:1000F0007D179D18E817F217F917F917F917E81780
:10010000F217F917081893189518971899180818DE
:100110009D1873187D1884188418841873187D1816
:1001200084189B1893189518971899189B189D1860
:1001300000C0C101C30302C2C60607C705C5C40487
:10014000CC0C0DCD0FCFCE0E0ACACB0BC90908C8F7
:10015000D81819D91BDBDA1A1EDEDF1FDD1D1CDCE7
:1001600014D4D515D71716D6D21213D311D1D01057
:10017000F03031F133F3F23236F6F737F53534F447
:100180003CFCFD3DFF3F3EFEFA3A3BFB39F9F838B7
:1001900028E8E929EB2B2AEAEE2E2FEF2DEDEC2CA7
:1001A000E42425E527E7E62622E2E323E12120E017
:1001B000A06061A163A3A26266A6A767A56564A407
:1001C0006CACAD6DAF6F6EAEAA6A6BAB69A9A86877
:1001D00078B8B979BB7B7ABABE7E7FBF7DBDBC7C67
:1001E000B47475B577B7B67672B2B373B17170B0D7
:1001F00050909151935352929656579755959454C7
:100200009C5C5D9D5F9F9E5E5A9A9B5B9959589836
:10021000884849894B8B8A4A4E8E8F4F8D4D4C8C26
:100220004484854587474686824243834181804096
:1002300000C1814001C0804101C0804100C18140B6
:1002400001C0804100C1814000C1814001C08041A6
:1002500001C0804100C1814000C1814001C0804196
:1002600000C1814001C0804101C0804100C1814086
:1002700001C0804100C1814000C1814001C0804176
:1002800000C1814001C0804101C0804100C1814066
:1002900000C1814001C0804101C0804100C1814056
:1002A00001C0804100C1814000C1814001C0804146
:1002B00001C0804100C1814000C1814001C0804136
:1002C00000C1814001C0804101C0804100C1814026
:1002D00000C1814001C0804101C0804100C1814016
:1002E00001C0804100C1814000C1814001C0804106
:1002F00000C1814001C0804101C0804100C18140F6
:1003000001C0804100C1814000C1814001C08041E5
:1003100001C0804100C1814000C1814001C08041D5
:1003200000C1814001C0804101C0804100C18140C5
:100330006E616E00696E660000407A10F35A00A08C
:10034000724E18090010A5D4E80000E8764817009E
:1003500000E40B54020000CA9A3B000000E1F505DE
:10036000000080969800000040420F000000A08628
:1003700001000000102700000000E803000000005A
:100380006400000000000A000000000001000000FE
:1003900000002C76D888DC674F0823DFC1DFAE5918
:1003A000E1B1B796E5E3E453C63AE651997696E8AB
:1003B000E6C28426EB898C9B62ED407C6FFCEFBC2F
:1003C0009C9F40F2BAA56FA5F490055A2AF75C935A
:1003D0006B6CF9676DC11BFCE0E40D47FEF520E690
:1003E000B500D0ED902E0300943577050080841E73
:1003F000080000204E0A000000C80C333333330FCE
:10040000986E12831141EF8D2114893BE65516CF6A
:10041000FEE6DB18D1844B381BF77C1D901DA4BB76
:10042000E424203284725E228100C9F124ECA1E52B
:100430003D2711241FBEC0E0D0E1DEBFCDBF11E0DB
:10044000A0E0B1E0E2E2F3E400E00BBF02C00790FD
:100450000D92A634B107D9F715E0A6E4B1E001C0CA
:100460001D92AD32B107E1F70E945C1A0C948F2106
:100470000C940000DC01680F791F8FEF4FEFA61777
:10048000B70769F02D91282730E0F901E05DFD4FB5
:1004900084918427F901E05DFE4F4491F0CF90E014
:1004A000942B08951092460181E0089591E0909375
:1004B00046018093470181E008952091460122235F
:1004C00041F020914701FC0120831092460181E018
:1004D000089580E008959AB198649AB9882319F034
:1004E0008AB1806902C08AB18F768AB9662329F001
:1004F0008AB188628AB9C09A089555980895CF92B2
:10050000DF92EF92FF920F93CF936A017B01C22F8C
:1005100084E0CC0CDD1CEE1CFF1C8A95D1F760E05A
:1005200070E489E191E0A70196010E94B01F21507B
:1005300029B9013021F0023021F080E003C080E3CE
:1005400001C080E2C73021F0C83019F4866001C0D4
:100550008460909195009860982B9093950060E04E
:1005600080E00E946B02B89AC09881E0CF910F9111
:10057000FF90EF90DF90CF9008958CB981E00895BF
:100580002CB1FC01208381E008951F920F920FB6D9
:100590000F9211240BB60F922F933F934F935F93BB
:1005A0006F937F938F939F93AF93BF93EF93FF933B
:1005B000E091B002F091B1020995FF91EF91BF91E6
:1005C000AF919F918F917F916F915F914F913F91EB
:1005D0002F910F900BBE0F900FBE0F901F9018958C
:1005E0001F920F920FB60F9211240BB60F922F93FA
:1005F0003F934F935F936F937F938F939F93AF93AB
:10060000BF93EF93FF93E091B402F091B502099587
:10061000C098FF91EF91BF91AF919F918F917F9182
:100620006F915F914F913F912F910F900BBE0F9063
:100630000FBE0F901F9018951F920F920FB60F923A
:100640001124C0980F900FBE0F901F901895109214
:100650008900109288008091480190914901892B6E
:1006600069F080917D00806180937D0080914801D8
:1006700090914901909387008093860080918A0031
:10068000856080938A000895EAE8F0E080818A7F9F
:100690008083EDE7F0E080818F7E8083ECE7F0E0FF
:1006A00080818061808308959C01A0E5B6E40E946A
:1006B000861F20E23EE440E050E00E94B01F3093ED
:1006C00049012093480110928B0010928A001092E9
:1006D0008C000E94440381E008951F920F920FB690
:1006E0000F9211240BB60F922F933F934F935F936A
:1006F0006F937F938F939F93AF93BF93EF93FF93EA
:10070000E091B202F091B3020995C098FF91EF9188
:10071000BF91AF919F918F917F916F915F914F9119
:100720003F912F910F900BBE0F900FBE0F901F9017
:1007300018950F93862FBA01A901F8949AE0909327
:100740004A0127E00E947F02813041F480E29EE46A
:100750000E945403813011F480E001C083E078945A
:100760000F910895F89460E081E00E946B0210926E
:100770005301789480E00C945602F89460E080E095
:100780000E946B020E94440378940895F89420918B
:100790005101309152012330310520F12091510156
:1007A00030915201E0EBF1E020553E4FA0E0E2171E
:1007B000F30719F0B191AB0FFACFA11113C020913B
:1007C000B001FC0120838091510190915201029768
:1007D000FA019183808381EB91E0FB019183808317
:1007E00080E001C085E078940895F89490915301D9
:1007F00091113BC0FB013197F0934F01E0934E0103
:1008000021E030E030934D0120934C0180838091B2
:100810004C0190914D01840F951F90934D01809351
:100820004C0180914C0190914D0120E0019718F00E
:100830003191230FFBCF422F419580914C01909134
:100840004D019C012F5F3F4F30934D0120934C0190
:10085000FC01E055FE4F408381E08093540161E04C
:1008600080E00E946B0280E001C085E078940895EA
:10087000CF93DF931F92CDB7DEB7CE0101960E94D2
:10088000C00280915301813031F008F474C082308D
:1008900009F453C07EC00E94270389818A3339F44A
:1008A00010925001109252011092510172C08D307D
:1008B00011F482E06CC020ED280F2A3040F09FEB4D
:1008C000980F963018F429EC280F01C02FEF809173
:1008D00050018823C1F0813009F05BC0E0915101E3
:1008E000F0915201E055FE4F8081822B80838091F0
:1008F00051019091520101969093520180935101C0
:100900001092500146C080915101909152018F3F49
:10091000910509F068F4E0915101F0915201E05520
:10092000FE4F2295207F208381E08093500131C0CB
:10093000109253010E9444032CC0898190914A0176
:10094000891308C00E9444031092530181E00E9461
:10095000560220C08A3361F4109250011092520165
:100960001092510181E0809353010E94270311C02E
:10097000109253010EC089818A3359F40E942703D3
:1009800010925201109251011092500181E0809317
:10099000530180E00F90DF91CF910895CF93809124
:1009A0005401823019F178F4882309F474C081303D
:1009B00009F075C08AE30E94BD0282E08093540171
:1009C000109250016CC0833009F45DC0843009F08E
:1009D00066C01092540183E00E945602C82F60E066
:1009E00081E00E946B02109254015AC080914C0128
:1009F00090914D01892B09F441C0809150018823C9
:100A000019F08130C9F04BC0E0914E01F0914F01D7
:100A1000808182958F708A3010F4805D07C096EFD8
:100A2000980F963010F4895C01C080E30E94BD02EB
:100A300081E08093500133C0E0914E01F0914F016D
:100A400080818F708A3010F4805D01C0895C0E94C3
:100A5000BD0280914E0190914F01019690934F01FC
:100A600080934E011092500180914C0190914D0164
:100A7000019790934D0180934C0111C08DE00E942D
:100A8000BD0283E005C080914A010E94BD0284E05E
:100A90008093540104C060E081E00E946B02C0E0DA
:100AA0008C2FCF910895809153018150823010F4A2
:100AB000109253010E94440380E008951F93CF9346
:100AC000DF93FC01EB0188819981059709F043C010
:100AD000A1816281438150E0542F44278481482BB7
:100AE000CA0101978F3C9740B0F51982188281E0C6
:100AF000808388819981019699838883CA0123E044
:100B0000969587952A95E1F79A0127703327232B2D
:100B100019F011E0180F01C0182F118388819981F5
:100B200001969983888370E07A2B6F5F7F4F20E076
:100B3000CF0102960E94F00D882329F0DF91CF911A
:100B40001F910C946B0888819981810F911D998365
:100B5000888380E001C083E0DF91CF911F910895E9
:100B6000CF93DF9300D0CDB7DEB7FC01DB018D91D1
:100B70009C91059709F591816281848181111CC046
:100B800083812FEF280F2E3FB8F01A828F3F19F480
:100B900081E0898301C0198270E0792B6F5F7F4FFC
:100BA00021E041E050E0CE0101960E94F00D882343
:100BB00029F00E946B0803C083E001C080E00F9021
:100BC0000F90DF91CF910895CF93DF93FC01EB015C
:100BD00088819981069790F1A1816281438150E0DB
:100BE000542F44278481482B75819A01277033271D
:100BF000CA01B3E096958795BA95E1F7232B09F0E2
:100C00008F5F9A0121503109203B3740B8F4871398
:100C100015C070E07A2B6F5F7F4F21E0CF01069601
:100C20000E94F00D882321F0DF91CF910C946B0886
:100C300085E090E09983888380E001C083E0DF91C4
:100C4000CF9108951F93CF93DF93FC01EB0188812F
:100C50009981059709F042C0A1816281438150E0EA
:100C6000542F44278481482BCA0101978F3C974019
:100C7000A8F51982188282E0808388819981019683
:100C800099838883CA0123E0969587952A95E1F791
:100C90009A0127703327232B19F011E0180F01C098
:100CA000182F11838881998101969983888370E038
:100CB0007A2B6F5F7F4FCF0102960E94430E8823ED
:100CC00029F0DF91CF911F910C946B088881998155
:100CD000810F911D9983888380E001C083E0DF91BB
:100CE000CF911F910895FB0120813181253031057D
:100CF00099F4FC01618170E0762F66272281622BD6
:100D00006F5F7F4F21E041E050E003960E94880D25
:100D1000882321F00C946B0883E0089580E0089507
:100D2000CF93DF93FC01EB0188819981069738F11D
:100D300021816281438150E0542F44278481482BD4
:100D40003581CA01019788379105C8F4842F880F2F
:100D5000381315C070E0722B6F5F7F4F21E0CF0119
:100D600006960E94880D882321F0DF91CF910C9484
:100D70006B0885E090E09983888380E001C083E080
:100D8000DF91CF9108950F931F93CF93DF93FC01D1
:100D9000EB01888199810597B1F5318162812481C8
:100DA000022F10E0C80101978D37910560F5198277
:100DB000188283E080838881998101969983888352
:100DC000220F21838881998101969983888370E01D
:100DD000732B6F5F7F4F20E0A801CF0102960E9426
:100DE000880D882331F0DF91CF911F910F910C94E2
:100DF0006B08000F111F88819981800F911F9983C3
:100E0000888380E001C083E0DF91CF911F910F9133
:100E10000895CF92DF92EF92FF920F931F93CF939B
:100E2000DF93EC018B01FB01808191810A9708F42B
:100E300056C0D980CA80EB80F12CFE2CEE248C8128
:100E4000E82AED816E819F8148858985970121502F
:100E500031092D37310508F044C050E0592B9A0173
:100E60002150310929373105E0F590E09A01220F30
:100E7000331F28173907A9F570E07E2B6F5F7F4F6E
:100E800021E0CE010A960E94880D81112CC0F80144
:100E90001182108287E188838081918101969183FC
:100EA00080838E2D880F8983808191810196918323
:100EB00080836C2D70E07D296F5F7F4F20E0A7015C
:100EC000CE0102960E94880D81110DC0EE0CFF1C10
:100ED000F801808191818E0D9F1D9183808380E038
:100EE0000CC083E00AC0DF91CF911F910F91FF905A
:100EF000EF90DF90CF900C946B08DF91CF911F9112
:100F00000F91FF90EF90DF90CF9008950F931F9374
:100F1000CF93DF93FC01EB01888199810597C9F597
:100F200021816281038110E0102F00278481082B2A
:100F3000C80101978C37910560F51982188284E009
:100F4000808388819981019699838883802F880F77
:100F500081838881998101969983888370E0722BBF
:100F60006F5F7F4FA801CF0102960E945F0D88231B
:100F700031F0DF91CF911F910F910C946B08000F0E
:100F8000111F88819981800F911F9983888380E048
:100F900001C083E0DF91CF911F910F910895CF930E
:100FA000DF93E62FBA01E9012296C032D105E0F4C1
:100FB0008093570182E090E0909356018093550111
:100FC00081E0E11101C080E08195809358012115F5
:100FD000310561F0A90189E591E00E94DA20D09302
:100FE0005601C093550102C084E001C080E0DF914A
:100FF000CF9108950F931F93CF93DF938B01C091EF
:101000005501D0915601AE0167E571E001960E944D
:10101000DA202196F801D183C08380E0DF91CF915F
:101020001F910F910895CF93DF9330E0DB0153E0E0
:10103000B695A7955A95E1F767707727E1E0F0E05C
:1010400002C0EE0FFF1F4A95E2F73197EC01CA0F7D
:10105000DB1F58811196A80FB91F4C91852F90E086
:10106000942B062E02C0EE0FFF1F0A94E2F7E095C4
:10107000F0958E239F2302C0220F331F6A95E2F75B
:10108000822B932B88839C93DF91CF9108959B01B2
:10109000E3E036952795EA95E1F7FC01E20FF31FAF
:1010A0008081518190E0952BF3E0220F331FFA9558
:1010B000E1F7621B730B02C0969587956A95E2F77C
:1010C00021E030E002C0220F331F4A95E2F72150A1
:1010D000310982230895883030F4E82FF0E0EC5C89
:1010E000FE4F8081089584E00895CF92DF92EF92C1
:1010F000FF920F93862F69017A01F89428E0B701D7
:10110000A6010E947F028130F9F481E0C8168BE4C9
:10111000D806E104F10468F4A7019601220F331FF9
:10112000441F551F60EA7FE787E190E00E94B01FEF
:1011300004C023E230E040E050E0C9010E945403C3
:10114000813011F480E001C083E078940F91FF902A
:10115000EF90DF90CF900895F89410927D0160E0B9
:1011600081E00E946B020E94270378940895F8940E
:1011700060E080E00E946B020E944403789408952E
:10118000EF92FF920F931F93CF93DF938C01EB01AC
:101190007A01F8948091770190917801049710F486
:1011A00085E01BC0609177017091780180EB91E040
:1011B0000E943A02892BA1F78091B001F801808347
:1011C00080917701909178010397F7019183808353
:1011D00081EB91E09983888380E07894DF91CF91CF
:1011E0001F910F91FF90EF900895CF93F894C091C5
:1011F0007D01C13009F045C0FB013197F0937C01BE
:10120000E0937B0121E030E030937A012093790173
:1012100080838091790190917A01840F951F90933A
:101220007A01809379016091790170917A01CF01FF
:101230000E943A02692F2091790130917A01A90127
:101240004F5F5F4F50937A0140937901F901E05568
:10125000FE4F80838091790190917A019C012F5FEC
:101260003F4F30937A0120937901FC01E055FE4F06
:101270006083C0937E0161E080E00E946B0280E0A9
:1012800001C085E07894CF910895CF93DF931F92AA
:10129000CDB7DEB7CE0101960E94C00280917D01DC
:1012A000813031F0B8F18230C9F0833099F134C027
:1012B00010927801109277018091770190917801D6
:1012C0009C012F5F3F4F3093780120937701298154
:1012D000FC01E055FE4F208382E01AC08091770127
:1012E000909178018F3F910509F088F48091770102
:1012F000909178019C012F5F3F4F309378012093AC
:1013000077012981FC01E055FE4F208303C083E073
:1013100080937D010E94270380E00F90DF91CF91A1
:101320000895CF9380917E01882319F0813031F0A8
:1013300030C060E081E00E946B022BC08091790197
:1013400090917A01892BD1F0E0917B01F0917C01A1
:1013500080810E94BD0280917B0190917C01019669
:1013600090937C0180937B018091790190917A0127
:10137000019790937A01809379010BC083E00E94DA
:101380005602C82F60E081E00E946B0210927E013D
:1013900001C0C0E08C2FCF910895CF93DF931F92AF
:1013A000CDB7DEB780917D01882321F0823031F402
:1013B00081E001C080E00E94560201C080E0898384
:1013C0000E94440391E090937D0189810F90DF9109
:1013D000CF910895EF920F931F93CF93C82F862F2D
:1013E000642FA90198010E2D9FEF980F973F08F0E9
:1013F00075C080939101CC23A1F1C13009F06EC07A
:10140000E2EBF3E0F0938D01E0938C01EDEBF3E080
:10141000F0938B01E0938A01E5EFF3E0F0938F0105
:10142000E0938E01E6ECF3E0F0938901E09388010C
:101430001092870110928601E8E3F4E0F093B50280
:10144000E093B402EEECF4E0F093B102E093B0026A
:10145000E3E5F5E0F093B302E093B2020E94990352
:1014600030C0ECEAF8E0F0938D01E0938C01E7EBFB
:10147000F8E0F0938B01E0938A01E5EFF8E0F09358
:101480008F01E0938E01E0ECF8E0F0938901E093A6
:1014900088011092870110928601E5E4F9E0F0934B
:1014A000B502E093B402E1E9F9E0F093B102E09310
:1014B000B002EDECF9E0F093B302E093B2020E94C7
:1014C0007508082F81110DC00E945202882341F037
:1014D000C093900181E08093310103C002E001C01C
:1014E00003E0802FCF911F910F91EF900895181670
:1014F0000CF042C0F8946115710511F1E2E0F1E0E1
:1015000020E030E0408151814115510571F4F9012D
:10151000EE0FFF1FE20FF31FEF5FFE4F808372831A
:10152000618320313105E9F409C04617570779F383
:101530002F5F3F4F33962031310521F784E01AC0E9
:10154000E1E0F1E020E030E0908198130CC0F90177
:10155000EE0FFF1FE20FF31FEF5FFE4F10821282AC
:10156000118280E007C02F5F3F4F33962031310555
:1015700059F7F7CF7894089582E00895809131016A
:10158000813041F4E0918601F0918701309721F09C
:10159000099502C086E0089580E0089580913101A8
:1015A000813049F4E0918C01F0918D010995109200
:1015B000310180E0089586E0089580913101811124
:1015C00009C0E0918A01F0918B01099581E0809337
:1015D000310102C0813011F480E0089586E0089561
:1015E000CF93DF931F92CDB7DEB780913101811188
:1015F00087C0CE0101960E945D02813009F082C051
:101600009981913089F0923009F07CC0A0918301DA
:10161000B09184019C919093800180937F01E1E0DF
:10162000F1E020E030E01FC0E0918801F0918901F5
:1016300041E851E063E871E085E891E009958111A6
:1016400061C08091850190919101891711F08111FC
:1016500059C082E00E94560255C02F5F3F4F33961B
:1016600020313105A9F08081882391F08913F5CFCD
:10167000F901EE0FFF1FE20FF31FEF5FFE4F018036
:10168000F281E02D61E871E0CD01099580937F0141
:10169000809185018823B1F140917F01442301F1BC
:1016A000E0918301F091840181E090E090938201C8
:1016B000809381018091800180688083E091830123
:1016C000F091840180918101909182019C012F5FB2
:1016D0003F4F3093820120938101E80FF91F40832F
:1016E0004091810150918201609183017091840148
:1016F000E0918E01F0918F0180919101099502C0D6
:1017000086E001C080E00F90DF91CF910895F894BA
:101710002091AC013091AD017894E62FF0E0EE0F0E
:10172000FF1FEE0FFF1FE454FD4F009761F0318360
:1017300020838D3B2FE7920714F08CEB9FE70197F6
:101740009383828310C082819381009771F04081DE
:101750005181241B350B821793072CF413821282BC
:1017600081E090E0089580E090E008954F925F92CC
:101770006F927F928F929F92AF92BF92CF92DF92A1
:10178000EF92FF920F931F93CF93DF9300D000D07F
:10179000CDB7DEB7E982FA820B831C830E94951ACB
:1017A0002B013C0120E030E0A9010E94731B1816B8
:1017B0006CF420E030E040E85FE3F4016081718187
:1017C000828193810E94FA1A87FD16C020E030E0E2
:1017D000A901C301B2010E94FA1A87FF21C020E0CB
:1017E00030E040E85FEBF401608171818281938198
:1017F0000E94731B1816A4F4A3019201C601B5013F
:101800000E94771B9B01AC01F40160817181828190
:1018100093810E94961AF40160837183828393837B
:10182000A301920169817A818B819C810E94771B3F
:10183000F40120813181428153810E94961A6B010B
:101840007C0120E030E040E85FE30E94731B181643
:101850008CF020E030E040E85FEBC701B6010E9469
:10186000FA1A87FF0DC0C12CD12C50E8E52E5FEB92
:10187000F52E06C0C12CD12C60E8E62E6FE3F62EC3
:10188000C701B6010F900F900F900F90DF91CF918D
:101890001F910F91FF90EF90DF90CF90BF90AF908E
:1018A0009F908F907F906F905F904F900895880FDA
:1018B000991F880F991F680F791FFB01659175911A
:1018C0008591949108951F920F920FB60F92112453
:1018D0008F93C09A82E080933D038F910F900FBE4B
:1018E0000F901F9018951F920F920FB60F92112410
:1018F0000BB60F928F939F93EF93FF9380919B0072
:1019000090919C008C71A1F480919401E82FF0E0FB
:10191000E350FD4F90838F5F803419F080939401E2
:1019200002C010929401809193018F5F8093930184
:10193000FF91EF919F918F910F900BBE0F900FBE73
:101940000F901F9018951F920F920FB60F921124AF
:101950000BB60F928F93EF93FF938091960188239C
:10196000B1F0815080939601E0919801F0E0E25C43
:10197000FC4F808180939C00809198018F5F803420
:1019800019F08093980108C01092980105C08091C9
:101990009A008F7B80939A00FF91EF918F910F9027
:1019A0000BBE0F900FBE0F901F9018958091930162
:1019B0008823C1F0F8948091930181508093930122
:1019C00090919501E92FF0E0E350FD4F80819F5FFA
:1019D000903419F09093950102C01092950178947B
:1019E00090E008958FEF9FEF0895909196019111E7
:1019F00004C090919B0095FD18C0F89490919701B8
:101A0000E92FF0E0E25CFC4F808381E0890F8034B5
:101A100019F08093970102C010929701809196016E
:101A20008F5F809396017894089580939C008091B5
:101A30009A00806480939A00089580913D038823E2
:101A400031F0815080933D03811101C0C098089509
:101A50001F93CF93DF93162FEC018991882321F0F8
:101A6000612F0E94F50CF9CFDF91CF911F9108955E
:101A7000660F771F61547C4FFB019183808308952B
:101A8000660F771F61507C4FFB019183808308951F
:101A9000FC01EE0FFF1FE150FC4F80819181089502
:101AA00061587C4FFB018083089581589C4FFC0155
:101AB0008081089561567C4FFB0180830895CF9308
:101AC0006115710511F19B01240F351F223231057B
:101AD000E0F4440F551F660F771F61547C4F20E0E0
:101AE00030E02417350779F0FB01E20FF31F32973E
:101AF000DC01A20FB31FC181CC93E0811196EC935E
:101B00002E5F3F4FEECF80E001C081E0CF9108957E
:101B10001F93CF93DF936F3F710589F441305105D7
:101B200091F4FC01C081CE3D71F4213061F46EED81
:101B30008FEF9FE00E947E21C09399014CC06115F8
:101B4000710509F446C0FB01E40FF51FB29708F0D8
:101B500040C0222361F02130F1F5440F551F660F7C
:101B6000771F61507C4F20E030E01AEF1AC0440F1D
:101B7000551F660F771F61507C4F20E030E024171F
:101B8000350749F1FB01E20FF31F3297DC01A20F89
:101B9000B31FC181CC93E0811196EC932E5F3F4F30
:101BA000EECF24173507B9F0EC01C20FD31FA8817F
:101BB000B0E0BA2FAA27FB01E20FF31FB293A29362
:101BC000C981AC2BB183A08310937E032E5F3F4F5E
:101BD000E8CF81E001C080E0DF91CF911F910895AF
:101BE000BF92CF92DF92EF92FF920F931F93CF930A
:101BF000DF937C018A0161157105C1F1CB01840F6E
:101C0000951F829798F5222359F0213089F5C0E07D
:101C1000D0E0CB0181589C4F6C018AEFB82E15C0E3
:101C2000C0E0D0E0CB0181589C4F6C01C017D107B8
:101C3000F9F0F601EC0FFD1F3197208141E0BE0164
:101C4000C7010E9413082196F1CFC017D10781F078
:101C500041E0BE01C7010E944708F601EC0FFD1FDD
:101C600031978083B0927E032196EFCF81E001C04F
:101C700080E0DF91CF911F910F91FF90EF90DF9067
:101C8000CF90BF900895CF92DF92EF92FF920F9383
:101C90001F93CF93DF937C018A0161157105E1F0F9
:101CA000CB01840F951F8297B8F4C0E0D0E0CB0140
:101CB00081569C4F6C01C017D10761F0F601EC0F03
:101CC000FD1F3197208141E0BE01C7010E9413082A
:101CD0002196F1CF80E001C081E0DF91CF911F918B
:101CE0000F91FF90EF90DF90CF900895EF920F93B8
:101CF0001F93CF93DF93CDB7DEB728970FB6F89435
:101D0000DEBF0FBECDBF88E0EEE3F1E0DE0111964D
:101D100001900D928A95E1F7E12C00E016E920E0B0
:101D200030E041E06BE080E00E94EA0924E130E02D
:101D3000AE014F5F5F4F61E080E60E94CF0778946D
:101D40000E94CE0A28960FB6F894DEBF0FBECDBF14
:101D5000DF91CF911F910F91EF9008959091D7044B
:101D600094FB882780F98093AF038091D804282FB3
:101D700021702093B00392FB222720F92093B10316
:101D800091709093B20386FB992790F99093B303D7
:101D900087FB992790F99093B40385FB992790F9D5
:101DA0009093B50383FB882780F98093B6039091C5
:101DB000BD0380919D03981304C0809192038823F2
:101DC00019F08AEF80937E0380917E03813019F4AD
:101DD0001092910302C0882319F1815080937E03F1
:101DE0008091D7049091900390FB83F990918F0399
:101DF00090FB87F99091910390FB81F98093D70430
:101E000080911F04909120049093DC048093DB0464
:101E100080912104909122049093EA048093E90434
:101E20008091D9049091DA049093E0038093DF03CA
:101E30008091E7049091E8049093E2038093E1039A
:101E40008091DD049091DE049093E4038093E3039A
:101E50008091E3049091E4049093E6038093E5037A
:101E60008091E1049091E2049093E8038093E7036A
:101E70008091EB049091EC049093EA038093E90342
:101E80008091FB049091FC049093EC038093EB030E
:101E90008091F80490E09093EE038093ED0380919D
:101EA00099018E3D09F4FFCF08950895AC01E0E05B
:101EB0008FEF9FEF70E0625071092E2F30E02617F0
:101EC0003707A4F4DA01A20FB31F2C91822728E070
:101ED000382F317096958795332321F031E0832791
:101EE00030EA93272150A1F7EF5FE7CF08956CE028
:101EF00080E794E00E94560F41E020917A043091EF
:101F00007B048217930709F040E0842F0895909195
:101F10009C019923F1F0E0919D01EC3040F081E0CB
:101F200080939B0110929D0110929C01089591E075
:101F30009E0F90939D01F0E0E059FB4F81839C3010
:101F4000A1F410929D0110929C0181E080939A016E
:101F50000895853551F481E080939C0110929D0194
:101F600010929B0180E480933201089585E580936F
:101F700070040E94770F882309F482C080919B012E
:101F800081117EC010926F049091D70480917104EA
:101F90009F7B80FB90F982FB332730F92091D80496
:101FA00030FB20F983FB332730F930FB21F984FB28
:101FB000332730F930FB22F985FB332730F930FB2A
:101FC00023F92093D80481FB222720F920FB94F9E0
:101FD00091FB332730F93223292F2095232320FB2F
:101FE00095F99093D70494FD04C0847291E08430F5
:101FF00009F090E08091D70490FB82F98093D70498
:1020000020917204309173044AE0429FC001439FC3
:10201000900D11249093DA048093D9048091780470
:1020200090917904A0E0B0E08093DD049093DE0409
:10203000A093DF04B093E004809174049091750440
:102040009093E2048093E1049093E4048093E3048A
:1020500080917604909177049093E8048093E7044C
:102060001092FC041092FB041092FE041092FD04E6
:10207000109200051092FF041092F8041092ED04E3
:102080000895CF93DF9385E5809370042091D70462
:1020900021FB882780F93091710480FB30F923FB04
:1020A000882780F980FB33F98091DB049091DC0470
:1020B0006AE070E00E949C1F709373046093720446
:1020C00027FB222720F920FB31F920FB34F93F7B45
:1020D0003093710466E080E794E00E94560F90937D
:1020E000750480937404C0E7D4E061E089910E9494
:1020F000F50C84E0C637D807C1F761E08FEF0E9486
:10210000F50C61E08FEF0E94F50C61E08FEFDF913D
:10211000CF910C94F50C80916F048F5F80936F04C6
:102120008F738F3319F481E080939E010E94D60C47
:1021300097FD0EC08B31910531F420919F012F5FE7
:1021400020939F0102C010929F010E94870FEECF43
:1021500080919F01803231F46FED8FEF9FE00E94FC
:102160007E21FFCF80919A01882341F081E0809306
:102170009E0110929A010E94B60F17C080916F04C1
:10218000893C98F08091D80483FD0FC08091D704DA
:1021900086FD0BC080648093D70487EE93E0909314
:1021A000FC048093FB040E943D118091D80483FFBE
:1021B00007C010926F048091D7048F7B8093D7045F
:1021C00080919E01882341F080919C01811104C07F
:1021D00010929E010C94411008951092C304109225
:1021E000BF041092C0041092D4048AB782608ABFE0
:1021F00089B7806189BF0895F8948091D504909142
:10220000D6049093C0038093BF0378948091A1017A
:10221000811105C00E94ED1081E08093A101089515
:102220008091C0048823B9F09091C304E92FF0E0B5
:10223000EC53FB4F80819F5F903119F09093C30462
:1022400002C01092C304F8949091C00491509093EE
:10225000C0047894089580E0089508950895E7ED06
:10226000F4E080818260816080830895E7EDF4E08E
:1022700080818E7F8D7F808308950E94361188E053
:1022800080930505E7EDF4E0808180618083089507
:10229000E7EDF4E080818B7F877F808308950E9443
:1022A00048118FEF80930505E7EDF4E080818061B0
:1022B00080830895E7EDF4E0808188608460808306
:1022C0000895E7EDF4E080818E7E80688083089534
:1022D00008951F920F920FB60F9211248F939F9320
:1022E0008091AC019091AD0101969093AD018093E6
:1022F000AC019F918F910F900FBE0F901F9018957A
:102300001F920F920FB60F9211240F900FBE0F90D5
:102310001F9018951F920F920FB60F9211240F90D5
:102320000FBE0F901F9018951F920F920FB60F922D
:1023300011240F900FBE0F901F9018951F920F92AF
:102340000FB60F9211240F900FBE0F901F9018958B
:102350001F920F920FB60F9211240F900FBE0F9085
:102360001F9018951F920F920FB60F9211242F9362
:102370003F938F939F9384B195B12091060530913F
:102380000705820F931F9093070580930605209100
:102390000805203238F09093C8038093C703109249
:1023A000080503C02F5F209308059F918F913F91EF
:1023B0002F910F900FBE0F901F901895949A8C9AA2
:1023C000E2E6F0E0808184608083E1E6F0E08081F5
:1023D00084608083969A8E9A979A8F9AC79ABF9AAA
:1023E000C69ABE9AA5E6B0E08C9181608C93E4E633
:1023F000F0E08081816080838C9182608C93808109
:102400008260808308952FE088E190E00FB6F89411
:10241000A89581BD0FBE21BDA8950E94DE1129E4BB
:1024200023BF8FEF9FEF9BBD8ABD83E08FBD89E9FE
:102430008EBD84E287BF25BD8CE488B980E189BF69
:102440001ABE89B7806289BF8AB784608ABF89B79C
:10245000806889BF8AB780648ABF89B7806489BF72
:102460008AB780618ABF80E487B98FEF86B988E92F
:1024700080939A008EE080939D001092980097E7D9
:102480009093990098E19AB98093950010929000EA
:1024900089E089B908958F929F92AF92BF92CF92AF
:1024A000DF92EF92FF920F931F93CF93DF93CA991E
:1024B00007C080910905843018F48F5F8093090567
:1024C000CA9B07C080910905882319F08150809329
:1024D0000905C99907C080910A05843018F48F5FF7
:1024E00080930A05C99B07C080910A05882319F0CB
:1024F000815080930A05C89907C080910B058430EC
:1025000018F48F5F80930B05C89B07C080910B0563
:10251000882319F0815080930B05079907C080919B
:102520000C05843018F48F5F80930C05079B07C05F
:1025300080910C05882319F0815080930C05069931
:1025400007C080910D05843018F48F5F80930D05CE
:10255000069B07C080910D05882319F08150809358
:102560000D05059907C080910E05843018F48F5F22
:1025700080930E05059B07C080910E05882319F0F6
:10258000815080930E05049907C080910F05843017
:1025900018F48F5F80930F05049B07C080910F058F
:1025A000882319F0815080930F05039907C080910B
:1025B0001005843018F48F5F80931005039B07C0CB
:1025C00080911005882319F081508093100569E0EF
:1025D00075E0CFE9D3E0FFE78F2EF3E09F2E20E0F8
:1025E00030E001E010E0822FDB014D91BD0191E070
:1025F000433008F490E09993F40191914F01A09138
:10260000AA01B091AB01A801022E02C0440F551FD0
:102610000A94E2F7C92ED12C5A01AA22BB22EE2439
:10262000E394F12C1A141B0414F0E12CF12CCE14B9
:10263000DF0409F466C0992319F04A2B5B2B04C010
:10264000409550954A235B235093AB014093AA01D8
:1026500090E001978730910528F48A5B9F4FFC0139
:102660000C94F11F80917F03811102C0949A49C09C
:10267000949847C080918003811104C080916200CA
:10268000846003C0809162008B7F8093620039C0B8
:1026900080918103811102C0969A33C0969831C00F
:1026A00080918203811102C0979A2BC0979829C00C
:1026B00080918303811102C0C79A23C0C79821C0AB
:1026C00080918403811102C0C69A1BC0C69819C0AC
:1026D00080918503811104C08091650081600FC0E5
:1026E000809165008E7F0BC080918603811104C0AC
:1026F00080916500826003C0809165008D7F80932A
:10270000650080910704909108044091A2015091C6
:10271000A3018417950759F09093A3018093A20118
:1027200090937900809378008FB58C608FBD8091F5
:10273000090490910A044091A4015091A5018417C5
:10274000950749F09093A5018093A40199BD88BD98
:102750008FB580638FBD80910B0490910C044091E4
:10276000A6015091A7018417950741F09093A70106
:102770008093A60183BD85B5806385BD80910D04DE
:1027800090910E044091A8015091A90184179507DA
:1027900051F09093A9018093A80181BFBC9ABE9883
:1027A00083B7806383BF2F5F3F4F2830310509F027
:1027B0001ACFDF91CF911F910F91FF90EF90DF9093
:1027C000CF90BF90AF909F908F90089590E0883009
:1027D000910510F5FC01E35BFF4F81E090E00C9464
:1027E000F11F2091090514C020910A0511C0209104
:1027F0000B050EC020910C050BC020910D0508C0E3
:1028000020910E0505C020910F0502C020911005F2
:10281000233020F480E0089580E090E00895653052
:1028200009F44BC068F4623089F128F46623E1F0C2
:10283000613001F10895633079F1643099F10895C0
:102840006C3609F45BC038F4663009F441C0673077
:1028500009F448C008956E3609F45DC008F455C007
:102860006F3609F45DC00895892B11F4949A089588
:1028700094980895892B21F480916200846003C0AC
:10288000809162008B7F809362000895892B11F400
:10289000969A089596980895892B11F4979A089519
:1028A00097980895892B11F4C79A01C0C7988FB5DE
:1028B0008B7F8FBD85B58F7E31C0892B11F4C69A71
:1028C00001C0C6988FB58F7E8FBD83B78F7E2DC018
:1028D000892B21F48091650081600DC08091650095
:1028E0008E7F09C0892B21F480916500826003C02E
:1028F000809165008D7F80936500089590937900A5
:10290000809378008FB58C6004C099BD88BD8FB569
:1029100080638FBD089583BD85B5806385BD0895AF
:1029200081BFBC9ABE9883B7806383BF0895089522
:10293000089508959B01BC0180E090E04FE0660F90
:10294000771F881F991F4A95D1F740E050E00E94F9
:10295000D21F211580E838074105510524F02FEFDB
:102960003FE740E050E0C9010895CF92DF92EF9237
:10297000FF920F931F939C01293B8EEF380704F1C0
:102980006B01EE24D7FCE094FE2CDB010E947E1F3D
:102990005FE095958795779567955A95D1F797FD5F
:1029A0000AC08B019C01C616D706E806F90634F466
:1029B0009701860103C000E010E09801C80101C042
:1029C000CA011F910F91FF90EF90DF90CF90089573
:1029D00080918E038111B2C060E576E48091D904C4
:1029E0009091DA040E949A14909300048093FF035C
:1029F00060ED77E08091E7049091E8040E949A14DA
:102A000090930204809301046CED75E08091E304DF
:102A10009091E4040E949A14909304048093030418
:102A200068E371E08091DD049091DE040E949A14C5
:102A300090930604809305048091D70482FB992724
:102A400090F990937F03982F91709093800384FB6B
:102A5000992790F99093810384FF36C08091FB04FD
:102A60009091FC048830910521F481E080938203E9
:102A70001EC08730910521F481E08093830317C045
:102A80009C01245131092E31310520F481E08093DD
:102A900086030DC08A30910521F481E0809385037F
:102AA00006C0873E934019F081E0809384038091B3
:102AB000D80482FF03C091E09093850381FF0EC08C
:102AC00081E0809386030AC01092820310928303F0
:102AD00010928603109285031092840380917E03E6
:102AE00081112CC08091D70490919F0390FB83F9B2
:102AF0009091A10390FB87F99091A00390FB81F93D
:102B00008093D70440E050E060E576E48091BF0315
:102B10009091C0030E94B5149093DC048093DB0471
:102B200040ED57E060ED77E08091C1039091C203E2
:102B30000E94B5149093EA048093E90408951092DA
:102B40007100109273001092720080E18093700007
:102B500080917100811102C085E90EC08091190534
:102B600091E0980F90931905811103C010927400A1
:102B700008951092190585EA8093740008951F92B4
:102B80000F920FB60F9211240BB60F922F933F9313
:102B90008F939F93AF93BF93EF93FF9380911A0509
:102BA00090E0FC01319720911905E730F10520F400
:102BB000EB5AFF4F0C94F11F90912505309126059B
:102BC0002F5F209319052230A9F018F4213031F03D
:102BD0001EC02330C1F02430B1F019C080917100C3
:102BE0008830A9F080917100803189F08FEF809357
:102BF00019050DC080917100883149F080917100F4
:102C00008034A1F704C080917100883279F78091F7
:102C10001905823009F4ACC0833009F4ACC08130AE
:102C200009F0E5C288E9DDC29091270530912805B9
:102C30002F5F209319052230A9F018F4213031F0CC
:102C40001EC02330C1F02430B1F019C08091710052
:102C50008830A9F080917100803189F08FEF8093E6
:102C600019050DC080917100883149F08091710083
:102C70008034A1F704C080917100883279F7809187
:102C80001905823009F474C0833009F474C08130AE
:102C900009F0ADC28AE9A5C29091290530912A05B3
:102CA0002F5F209319052230A9F018F4213031F05C
:102CB0001EC02330C1F02430B1F019C080917100E2
:102CC0008830A9F080917100803189F08FEF809376
:102CD00019050DC080917100883149F08091710013
:102CE0008034A1F704C080917100883279F7809117
:102CF00019058230E9F18330F1F1813009F077C2B2
:102D000080EC6FC290912B0530912C052F5F2093A2
:102D100019052230A9F018F4213031F01EC02330FB
:102D2000C1F02430B1F019C0809171008830A9F051
:102D300080917100803189F08FEF809319050DC06B
:102D400080917100883149F0809171008034A1F741
:102D500004C080917100883279F780911905823022
:102D600039F0833041F0813009F041C282EC39C240
:102D70003093730038C29093730035C28091330151
:102D8000882391F181E0820F8093190590E0FC0186
:102D90003197E830F105C8F4E45AFF4F8091710093
:102DA0000C94F11F883089F080917100803169F0B6
:102DB0008FEF8093190509C0883139F08091710037
:102DC0008034B1F702C0883299F78091190590E0FC
:102DD000FC013197E730F10508F009C2EC59FF4FCB
:102DE0000C94F11F80E9FDC12F5F2093190522305B
:102DF000A9F018F4213031F03BC02330C1F0243069
:102E000021F136C0809171008830B1F1809171005C
:102E1000803191F18FEF809319052EC08091710060
:102E2000883151F1809171008034A1F725C08091E3
:102E30007100803519F08FEF809319058091730030
:102E400010921D0580931E0517C080911D0590915D
:102E50001E0520917100203519F02FEF20931905E0
:102E600020917300822B90931E0580931D0504C052
:102E700010921E0510921D0580911905823009F4EB
:102E8000B4C1833009F4B1C1813009F0B0C181E926
:102E9000A8C180913301882391F181E0820F809352
:102EA000190590E0FC013197E830F105C8F4E559C7
:102EB000FF4F809171000C94F11F883089F0809150
:102EC0007100803169F08FEF8093190509C0883156
:102ED00039F0809171008034B1F702C0883299F7DF
:102EE0008091190590E0FC013197E730F10508F079
:102EF0007EC1ED58FF4F0C94F11F82E972C12F5F24
:102F0000209319052230A9F018F4213031F03BC08C
:102F10002330C1F0243021F136C080917100883017
:102F2000B1F180917100803191F18FEF809319059B
:102F30002EC080917100883151F1809171008034F0
:102F4000A1F725C080917100803519F08FEF809333
:102F500019058091730010921F058093200517C0FA
:102F600080911F059091200520917100203519F066
:102F70002FEF2093190520917300822B9093200549
:102F800080931F0504C01092200510921F058091A8
:102F90001905823009F429C1833009F426C1813032
:102FA00009F025C183E91DC180913301882391F186
:102FB00081E0820F8093190590E0FC013197E830A1
:102FC000F105C8F4E658FF4F809171000C94F11F91
:102FD000883089F080917100803169F08FEF8093A3
:102FE000190509C0883139F0809171008034B1F73A
:102FF00002C0883299F78091190590E0FC01319761
:10300000E730F10508F0F3C0EE57FF4F0C94F11FC5
:1030100084E9E7C02F5F209319052230A9F018F446
:10302000213031F03BC02330C1F0243021F136C0D3
:10303000809171008830B1F180917100803191F1FF
:103040008FEF809319052EC080917100883151F166
:10305000809171008034A1F725C080917100803586
:1030600019F08FEF8093190580917300109221055C
:103070008093220517C0809121059091220520910F
:103080007100203519F02FEF20931905209173005E
:10309000822B909322058093210504C01092220573
:1030A0001092210580911905823009F49EC0833069
:1030B00009F49BC0813009F09AC085E992C08091E3
:1030C00033018823E9F181E0820F8093190590E0B4
:1030D000FC013197E830F105C8F4E757FF4F8091C4
:1030E00071000C94F11F883089F08091710080315B
:1030F00069F08FEF8093190509C0883139F080910C
:1031000071008034B1F702C0883299F780911905B7
:1031100090E0FC013197E730F10508F068C0EF5608
:10312000FF4F0C94F11F81E05CC084E85AC080EA34
:1031300058C085EA5DC086E954C01092730053C040
:103140002F5F209319052230A9F018F4213031F0B7
:103150003BC02330C1F0243021F136C08091710092
:103160008830B1F180917100803191F18FEF8093BF
:1031700019052EC080917100883151F18091710044
:103180008034A1F725C080917100803519F08FEF50
:103190008093190580917300109223058093240574
:1031A00017C080912305909124052091710020354E
:1031B00019F02FEF2093190520917300822B909323
:1031C00024058093230504C0109224051092230542
:1031D00080911905823049F0833039F0813039F41B
:1031E00087E98093730085E803C085EC01C085E919
:1031F00080937400FF91EF91BF91AF919F918F9158
:103200003F912F910F900BBE0F900FBE0F901F900C
:1032100018958091330140911A05882321F081503F
:1032200080933301BCC04530B9F118F4443041F00B
:10323000B6C0463009F45CC0473009F485C0AFC061
:10324000A0911D05B0911E05A352B74121EF38E5AD
:103250000E94951FEEE09595879577956795EA957D
:10326000D1F7611520E872078105910564F46115B5
:1032700020E872072FEF820792074CF460E070E8B5
:103280008FEF9FEF04C06FEF7FE780E090E07093D7
:10329000C0036093BF0383C0A0911F05B0912005B8
:1032A000A352B74121EF38E50E94951F5EE0959546
:1032B0008795779567955A95D1F7611520E872073C
:1032C0008105910564F4611520E872072FEF8207EC
:1032D00092074CF460E070E88FEF9FEF04C06FEF4F
:1032E0007FE780E090E07093C2036093C10357C012
:1032F000A0912105B0912205A352B74121EF38E5F5
:103300000E94951F3EE095958795779567953A952C
:10331000D1F7611520E872078105910564F4611504
:1033200020E872072FEF820792074CF460E070E804
:103330008FEF9FEF04C06FEF7FE780E090E0709326
:10334000C4036093C3032BC0A0912305B09124054F
:10335000A352B74121EF38E50E94951F2EE09595C5
:103360008795779567952A95D1F7611520E87207BB
:103370008105910564F4611520E872072FEF82073B
:1033800092074CF460E070E88FEF9FEF04C06FEF9E
:103390007FE780E090E07093C6036093C5034F5FC2
:1033A000463018F440931A0502C010921A05809115
:1033B0001A05813031F138F0823009F440C0833091
:1033C00009F45BC077C0A091FF03B091000426E22E
:1033D0003FE10E94951FC096811520E1920714F0ED
:1033E0008FEF9FE09093260580932505809125051A
:1033F0009091260597FF5EC0109226051092250534
:1034000059C0A0910104B091020427E13FE10E945C
:10341000951FC096811520E1920714F08FEF9FE071
:103420009093280580932705809127059091280582
:1034300097FF40C010922805109227053BC0A0912D
:103440000304B09104042AE33FE10E94951FC4964F
:10345000811520E1920714F08FEF9FE090932A05E9
:10346000809329058091290590912A0597FF22C014
:1034700010922A05109229051DC0A0910504B09153
:1034800006042AE03FE10E94951FC496811520E1C1
:10349000920714F08FEF9FE090932C0580932B05FB
:1034A00080912B0590912C0597FF04C010922C055C
:1034B00010922B050C949F150E9403120E94760E09
:1034C00078948CB59DB520911B0530911C05AC01FD
:1034D000421B530B9A012115304244F090931C0576
:1034E00080931B050E9409190E944B122091AC0188
:1034F0003091AD018091BA029091BB022817390733
:1035000091F08091AC019091AD019093BB028093BA
:10351000BA020E941D0D0E94AE0E0E94E8140E9485
:103520008B100E94F00AA895CBCF5058BB27AA2732
:103530000ED09FC090D030F095D020F031F49F3F56
:1035400011F41EF485C00EF4E095E7FB7BC0E92F73
:10355000A1D080F3BA17620773078407950718F0A4
:1035600071F49EF5B9C00EF4E0950B2EBA2FA02D84
:103570000B01B90190010C01CA01A0011124FF2720
:10358000591B99F0593F50F4503E68F11A16F0401B
:10359000A22F232F342F4427585FF3CF469537951A
:1035A0002795A795F0405395C9F77EF41F16BA0BDF
:1035B000620B730B840BBAF09150A1F0FF0FBB1F8D
:1035C000661F771F881FC2F70EC0BA0F621F731FD6
:1035D000841F48F4879577956795B795F7959E3F33
:1035E00008F0B3CF9395880F08F09927EE0F9795C1
:1035F0008795089503D008F481E00895990F000895
:10360000550FAA0BE0E8FEEF16161706E807F907B4
:10361000C0F012161306E407F50798F0621B730B4F
:10362000840B950B39F40A2661F0232B242B252BD0
:1036300021F408950A2609F4A140A6958FEF811D73
:10364000811D089597F99F6780E870E060E0089514
:103650009FEF80EC089500240A94161617061806AA
:103660000906089500240A94121613061406050686
:103670000895092E0394000C11F4882352F0BB0F17
:1036800040F4BF2B11F460FF04C06F5F7F4F8F4F7A
:103690009F4F089557FD9058440F551F59F05F3FB5
:1036A00071F04795880F97FB991F61F09F3F79F064
:1036B00087950895121613061406551FF2CF4695E6
:1036C000F1DF08C0161617061806991FF1CF869568
:1036D0007105610508940895E894BB27662777274C
:1036E000CB0197F908958ADF08F48FEF08950BD086
:1036F000C0CFB1DF28F0B6DF18F0952309F0A2CFD4
:10370000A7CF1124EACFC6DFA0F3959FD1F3950F81
:1037100050E0551F629FF001729FBB27F00DB11D55
:10372000639FAA27F00DB11DAA1F649F6627B00DE5
:10373000A11D661F829F2227B00DA11D621F739FCE
:10374000B00DA11D621F839FA00D611D221F749FDC
:103750003327A00D611D231F849F600D211D822F23
:10376000762F6A2F11249F5750408AF0E1F088236A
:103770004AF0EE0FFF1FBB1F661F771F881F915077
:103780005040A9F79E3F510570F05CCFA6CF5F3F38
:10379000ECF3983EDCF3869577956795B795F795AA
:1037A000E7959F5FC1F7FE2B880F911D9695879532
:1037B00097F908952F923F924F925F926F927F9266
:1037C0008F929F92AF92BF92CF92DF92EF92FF9231
:1037D0000F931F93CF93DF93CDB7DEB763970FB6E9
:1037E000F894DEBF0FBECDBF7C011B016A01FC0156
:1037F00017821682838181FF66C3BE016F5F7F4F90
:103800004B01F7019381F10193FD859193FF819124
:103810001F01882309F453C3853239F493FD859140
:1038200093FF81911F01853239F4B70190E00E9426
:10383000EE2056016501E5CF10E0512C20E020324A
:10384000A0F48B3269F030F4803259F0833269F49D
:1038500020612CC08D3239F0803339F4216026C0CC
:103860002260246023C0286021C027FD27C030EDDE
:10387000380F3A3078F426FF06C0FAE01F9F300D6B
:103880001124132F13C06AE0569E300D1124532EBD
:1038900020620CC08E3221F426FD11C3206406C0C4
:1038A0008C3611F4206802C0883641F4F10193FD92
:1038B000859193FF81911F018111C1CF9BEB980FDF
:1038C000933018F42061805E06C09BE9980F933016
:1038D00008F0AAC12F7E26FF16E02F73722E8536C0
:1038E00021F4F22FF0647F2E08C0863621F4622F77
:1038F0006068762E02C01111115077FE07C01C338C
:1039000048F444244394410E27E00BC0183030F4AF
:10391000212F06C027E04CE3442E03C027E017E028
:10392000412C560174E0A70EB11CF6016081718133
:1039300082819381042DA4010E94F71F6C010981EB
:1039400000FF02C003FF06C071FC07C072FC08C084
:10395000612C08C03DE2632E05C02BE2622E02C03E
:1039600090E2692E802F8C7099F1662011F084E02E
:1039700001C083E0851510F0512C0BC0581A73FC60
:1039800008C0B70180E290E00E94EE205A94C9F787
:10399000F3CF662029F0B701862D90E00E94EE203B
:1039A00003FD03C004E313E002C000E313E0F72DBE
:1039B000F0717F2EF8018491882309F476C271108A
:1039C0008052B70190E00E94EE200F5F1F4FF2CFB0
:1039D00077FE0FC04C0C04FF04C08A81813309F4C8
:1039E0004A94141474F5F8E0F41578F588E0482E3C
:1039F0002CC076FC2AC0812F90E08C159D059CF090
:103A00006CEFC6166FEFD60674F0772D7068772EC0
:103A10000AC0E2E0F0E0EC0FFD1FE10FF11D808134
:103A2000803319F411501111F4CF77FE0EC04424E5
:103A30004394410E812F90E0C816D9062CF41C192E
:103A400004C04424439401C010E077FE07C01C1456
:103A50001D043CF496012F5F3F4F05C025E030E088
:103A600002C021E030E0662011F02F5F3F4F1123AC
:103A700031F0412F50E04F5F5F4F240F351F452D30
:103A800050E02417350714F4521A01C0512C872D29
:103A9000897049F4552039F0B70180E290E00E9426
:103AA000EE205A94F7CF662029F0B701862D90E0DA
:103AB0000E94EE2073FC09C0552039F0B70180E365
:103AC00090E00E94EE205A94F7CF77FE5FC09C2DC5
:103AD0008D2DD7FE02C090E080E0692E782E40E068
:103AE00050E0C601841991099D878C87960126199B
:103AF0003709280D391D812F90E0EE27FF27E81B9D
:103B0000F90BFF87EE87FFEF6F167F0669F4B701A9
:103B10008EE290E02B8B3A8B488B598B0E94EE20E3
:103B2000598948893A892B89C614D70454F06C8581
:103B30007D85661577052CF4F901E40FF51F818169
:103B400001C080E371E0671A71084F5F5F4FEE8537
:103B5000FF856E167F066CF0B70190E02B8B3A8BD9
:103B6000488B598B0E94EE202B893A8948895989C4
:103B7000CACF6C147D0439F49A81963318F49533C6
:103B800011F404FF81E3B70190E04BC08A818133D7
:103B900009F00F7EB70190E00E94EE20111105C0E0
:103BA00074FE18C085E490E017C0B7018EE290E083
:103BB0000E94EE2082E066246394680EF401E80F10
:103BC000F11D8081B70190E00E94EE20115041F379
:103BD000862DF1CF85E690E0B7010E94EE20D7FC5C
:103BE00005C0C114D10439F404FF05C0D194C194B7
:103BF000D1088DE201C08BE2B70190E00E94EE2077
:103C000080E36AE0C616D1042CF08F5FFAE0CF1A89
:103C1000D108F7CFB70190E00E94EE20B701C601AE
:103C2000C0960E94EE2041C1833631F0833779F08F
:103C3000833509F058C021C0560172E0A70EB11CAF
:103C4000F6018081898301E010E0640114C056010F
:103C5000F2E0AF0EB11CF601C080D18026FF03C098
:103C6000612F70E002C06FEF7FEFC6012B8B0E94C7
:103C7000E3208C012B892F7715C05601F2E0AF0E9F
:103C8000B11CF601C080D18026FF03C0612F70E017
:103C900002C06FEF7FEFC6012B8B0E94CF208C01FB
:103CA0002B892068722E23FD1AC0852D90E00817FD
:103CB0001907A8F4B70180E290E00E94EE205A9420
:103CC000F4CFF60177FC859177FE81916F01B70102
:103CD00090E00E94EE2051105A94015011090115F4
:103CE000110579F7E2C0843611F0893651F5560195
:103CF00027FF09C0F4E0AF0EB11CF60160817181AD
:103D0000828193810AC0F2E0AF0EB11CF60160819E
:103D10007181882777FD8095982F022F0F7697FF66
:103D200008C090958095709561957F4F8F4F9F4FFC
:103D300000682AE030E0A4010E942021C82EC818A3
:103D40003EC0022F853721F40F7E2AE030E01DC0EF
:103D5000097F8F3691F018F4883559F0B0C080375C
:103D600019F0883711F0ABC0006104FF09C004608E
:103D700007C024FF08C0066006C028E030E005C088
:103D800020E130E002C020E132E0560107FF09C027
:103D9000F4E0AF0EB11CF6016081718182819381E4
:103DA00008C0F2E0AF0EB11CF6016081718180E0C5
:103DB00090E0A4010E942021C82EC8180F7706FFAA
:103DC0000BC0202F2E7FC11650F404FF0AC002FD45
:103DD00008C0202F2E7E05C0DC2C202F03C0DC2C39
:103DE00001C0D12E24FF0DC0FE01EC0DF11D80811C
:103DF000803311F4297E09C022FF06C0D394D394E6
:103E000004C0822F867809F0D39423FD13C020FFCD
:103E100006C01C2DD51418F4150D1D19D52CD5145C
:103E200068F4B70180E290E02B8B0E94EE20D394DF
:103E30002B89F5CFD51410F45D1801C0512C24FF47
:103E400012C0B70180E390E02B8B0E94EE202B89FB
:103E500022FF17C021FF03C088E590E002C088E779
:103E600090E0B7010CC0822F867859F021FD02C086
:103E700080E201C08BE227FD8DE2B70190E00E9455
:103E8000EE20C11638F4B70180E390E00E94EE20E6
:103E90001150F7CFCA94F401EC0DF11D8081B701E8
:103EA00090E00E94EE20C110F5CF552009F4C2CC5D
:103EB000B70180E290E00E94EE205A94F6CFF7011D
:103EC0008681978102C08FEF9FEF63960FB6F894BB
:103ED000DEBF0FBECDBFDF91CF911F910F91FF903D
:103EE000EF90DF90CF90BF90AF909F908F907F909A
:103EF0006F905F904F903F902F9008950E94861F83
:103F0000332312F48A1B9B0B0C94971FA29FB001C2
:103F1000B39FC001A39F700D811D1124911DB29FFD
:103F2000700D811D1124911D08950E94861FB7FFF9
:103F30000895821B930B0895AA1BBB1B51E107C078
:103F4000AA1FBB1FA617B70710F0A61BB70B881F29
:103F5000991F5A95A9F780959095BC01CD010895B8
:103F6000A1E21A2EAA1BBB1BFD010DC0AA1FBB1F7D
:103F7000EE1FFF1FA217B307E407F50720F0A21BEF
:103F8000B30BE40BF50B661F771F881F991F1A945C
:103F900069F760957095809590959B01AC01BD0186
:103FA000CF010895052E97FB1EF400940E94E91F8F
:103FB00057FD07D00E94B01F07FC03D04EF40C94AD
:103FC000E91F50954095309521953F4F4F4F5F4FDA
:103FD000089590958095709561957F4F8F4F9F4F75
:103FE0000895EE0FFF1F0590F491E02D09942830FD
:103FF00008F027E03327DA01990F311D87FD916022
:1040000000966105710539F432602E5F3D9330E30F
:104010002A95E1F708959F3F30F0803871056105DA
:1040200009F03C5F3C5F3D93913008F08068911D42
:10403000DF93CF931F930F93FF92EF92192F987FE7
:104040009695E92F96959695E90FFF27EE56FC4F2A
:1040500099273327EE24FF24A701E7010590089450
:10406000079428F4360FE71EF81E491F511D660FEE
:10407000771F881F991F0694A1F70590079428F4CD
:10408000E70EF81E491F561FC11D770F881F991F85
:10409000661F0694A1F70590079428F4F80E491FAF
:1040A000561FC71FD11D880F991F661F771F0694C3
:1040B000A1F70590079420F4490F561FC71FD81F7A
:1040C000990F661F771F881F0694A9F78491109592
:1040D000177041F0D695C79557954795F794E79493
:1040E0001A95C1F7E8E3F3E06894159015913591BE
:1040F0006591959105907FE27395E118F10A430B64
:10410000560BC90BD009C0F7E10CF11E431F561F17
:10411000C91FD01D7EF4703311F48A95E6CFE89460
:10412000015030F0080F0AF40027021708F4202F7E
:104130002395022F7A3328F079E37D932A95E9F7C6
:1041400010C07D932A9589F60694979567953795C3
:1041500017951794E118F10A430B560BC90BD009B8
:1041600098F023957E9173957A3308F070E37C93F1
:104170002013B8F77E9170617D9330F0839571E3E1
:104180007D9370E32A95E1F71124EF90FF900F9152
:104190001F91CF91DF91992787FD90950895FC019C
:1041A0000590615070400110D8F7809590958E0F62
:1041B0009F1F0895FB01DC0102C001900D92415048
:1041C0005040D8F70895FC016150704001900110F3
:1041D000D8F7809590958E0F9F1F08950F931F938A
:1041E000CF93DF93182F092FEB018B8181FD03C043
:1041F0008FEF9FEF20C082FF10C04E815F812C8126
:104200003D81421753077CF4E881F9819F012F5FBC
:104210003F4F39832883108306C0E885F985812FB5
:104220000995892B29F72E813F812F5F3F4F3F83CF
:104230002E83812F902FDF91CF911F910F910895A1
:10424000FA01AA27283051F1203181F1E8946F93C7
:104250006E7F6E5F7F4F8F4F9F4FAF4FB1E03ED06D
:10426000B4E03CD0670F781F891F9A1FA11D680F0B
:10427000791F8A1F911DA11D6A0F711D811D911D3E
:10428000A11D20D009F468943F912AE0269F1124B3
:104290003019305D3193DEF6CF010895462F477017
:1042A000405D4193B3E00FD0C9F7F6CF462F4F7072
:1042B000405D4A3318F0495D31FD4052419302D0D0
:1042C000A9F7EACFB4E0A695979587957795679576
:1042D000BA95C9F700976105710508959B01AC0176
:1042E0000A2E06945795479537952795BA95C9F79D
:1042F000620F731F841F951FA01D0895262FE1993B
:10430000FECF9FBB8EBBE09A01970DB2021631F033
:104310002DBB0FB6F894E29AE19A0FBE0895F89477
:02432000FFCFCD
:104322000111FA0704860703C306109006067306F6
:10433200170907015E0505B0050FE4050222060014
:10434200000000000000000000000000000000006B
:1043520000024064000204040404040600016576BD
:0643620036395F30300027
:020000021000EC
:04F800000E9424FE40
:10F80600BF92CF92DF92EF92FF920F931F93CF9307
:10F81600DF93F894E199FECFC0910001CC3029F036
:10F8260000E010E09801D1E00CC023E0FB018093DA
:10F836005B0020936800E8952091680020FDFCCFCE
:10F84600EFCFFA01E00FF11FB08068017901C60E13
:10F85600D71EE81EF91EE181F0E0BE2FAA27AB0DE8
:10F86600B11D0D01F601E0925B00D0936800E895AA
:10F8760011240E5F1F4F2F4F3F4F0115E1E01E076A
:10F8860021053105F1F6CC3059F425E0FB018093D2
:10F896005B0020936800E8958091680080FDFCCFAE
:10F8A60081E180936800E895DF91CF911F910F91D8
:10F8B600FF90EF90DF90CF90BF900895FC01680F06
:10F8C600791F8FEF9FEFE617F707C9F0219182277F
:10F8D600282F22952827022E269526952025022EAA
:10F8E600269520252770082E892F2695079427957B
:10F8F600902D82270694279590258227E4CF089598
:10F906009091010191110DC05E9902C05D9BFCCFE3
:10F916005E9A8CB9B89AC09A089590919B0095FD0D
:10F9260004C090919B0096FFF8CF90919B00906445
:10F9360090939B0080939C00089520E030E0F901AD
:10F94600E60FF71FE491DA01FD91AD01EF1739F0EB
:10F9560081EF90E00E9483FC8FEF9FEF08952F5F69
:10F966003F4F2F3F310559F780E090E00895809191
:10F976000101811110C05E9902C05D9BFCCF8FEF23
:10F986008CB95E9A5E9902C05D9BFCCF5E9AC09868
:10F996008CB18CB1089580E0089590910101911188
:10F9A60004C05F9BFECF8CB1089580919B0087FFBA
:10F9B600F6CF80919C0008956F927F928F929F92CE
:10F9C600AF92BF92CF92DF92EF92FF920F931F9367
:10F9D600CF93DF9303E0FF24F39414E0E12E85E058
:10F9E600D82E96E0C92E27E0B22E38E0A32E49E0A5
:10F9F600942E5AE0852E6BE0762E7CE0672E1091D1
:10FA060000011C3029F50E94D0FC888367E071E074
:10FA160082E091E00E9461FC492F5527288130E061
:10FA26004217530779F499272197288130E08217E6
:10FA3600930741F481E090E020910801211185C0EF
:10FA460080E083C080EF0E9483FC8FEF9FEF7DC034
:10FA56001B3051F40E94D0FC9E012F5F3F4F8883DC
:10FA660060920001E901CBCF1A3089F40E94D0FCE4
:10FA76009E012F5F3F4F8883293082E038071CF0B4
:10FA86007092000102C010930001A895EBCF1930C7
:10FA960049F40E94D0FC9E012F5F3F4F88838092DD
:10FAA6000001E0CF183049F40E94D0FC9E012F5F80
:10FAB6003F4F888390920001D5CF173049F40E94BA
:10FAC600D0FC9E012F5F3F4F8883A0920001CACFD2
:10FAD600163049F40E94D0FC9E012F5F3F4F888369
:10FAE600B0920001BFCF153049F40E94D0FC9E01B0
:10FAF6002F5F3F4F8883C0920001B4CF143049F482
:10FB06000E94D0FC9E012F5F3F4F8883D092000158
:10FB1600A9CF133071F40E94D0FC9E012F5F3F4F96
:10FB26008883803119F4E09200019CCFF0920001A5
:10FB360099CF0E94D0FC80930201853611F4009380
:10FB46000001A89523E031E08DCFDF91CF911F9181
:10FB56000F91FF90EF90DF90CF90BF90AF909F9066
:10FB66008F907F906F900895CF93DF931F92CDB7BC
:10FB7600DEB797FDFFCF80E00E9483FC80E00E9405
:10FB860083FC80E00E9483FC80E00E9483FC80E08E
:10FB96000E9483FC809102010E9483FC80910301F4
:10FBA6000E9483FC809104010E9483FC80910501E0
:10FBB6000E9483FC809106010E9483FC80910701CC
:10FBC6000E9483FC66E070E082E091E00E9461FCA6
:10FBD6008093080199830E9483FC9981909309017F
:10FBE600892F0E9483FC0E94BAFC0F90DF91CF916F
:10FBF6000895262FE199FECF9FBB8EBBE09A019711
:10FC06000DB2021631F02DBB0FB6F894E29AE19AC6
:10FC16000FBE08950895F89481E180936800E895F1
:10FC260061E08FEF9FE00E94FCFDE0E0F0E00994C8
:10FC3600E199FECF9FBB8EBBE09A99278DB30895BD
:10FC46000895112480E18EBF8FEF8DBF1FBE2EE079
:10FC560088E190E00FB6F894A89581BD0FBE21BD4E
:10FC6600E0E0F1E01192E11581E1F807D9F78FEFB5
:10FC76009FE00E941BFE8E3DC1F480EE8BB988E1A9
:10FC86008AB98EE0809395008DE189B981E087BBC2
:10FC960088BB1092900085E68CB95E9902C05D9B88
:10FCA600FCCF5E9AC0988CB119C08F3DA9F481E053
:10FCB6008093010180EE80939B0088E180939A00F7
:10FCC6008EE080939D0087E78093990010929800BC
:10FCD60085E680939C0002C00E940EFE1ABA81E05F
:10FCE60087BB14BA11BA12B81092640011E01093CF
:10FCF60000010E94DFFCEC014091040180910501A6
:10FD0600D7FD1FC050E060E070E0762F652F542FBE
:10FD16004427480F511D611D711DCC24D42EE52E9C
:10FD2600F62E49E051E0C701B6010E9403FC49E006
:10FD360051E0C701B6010E94A0FC97FF02C0CFEFB9
:10FD4600DFEFCE010E94B7FD219711F40E940EFE4F
:04FD5600A895CDCFD0
:00000001FF
