:100000000C94A2020C94C1020C94C1020C94C10283
:100010000C94C1020C940A0D0C948E130C94A21330
:100020000C9498130C94C1020C94C1020C947A1392
:100030000C94C1020C94C1020C9463130C94C10281
:100040000C94C1020C94C1020C9472030C944703EB
:100050000C949E030C94AC130C94C1020C94841366
:100060000C94C1020C94C1020C94EF030C94C102D5
:100070000C94C1020C94C1020C941A0D0C94C10290
:100080000C944A0D0C94AD170C94C1024311F91055
:10009000041121118911A4112D110F1138113315DB
:1000A000411549155115591561156D15EA15ED15CF
:1000B000F015F315F615F915FC15FF1502183A1889
:1000C0007018AC183919C619531AC118CB18D218A0
:1000D000D218D218C118CB18D218E2188A1A8C1A62
:1000E0008E1A901AE218941A4E1958195F195F194E
:1000F0005F194E1958195F196F198A1A8C1A8E1ABE
:10010000901A6F19941ADB19E519EC19EC19EC190E
:10011000DB19E519EC19FC198A1A8C1A8E1A901A37
:10012000FC19941A691A731A7A1A7A1A7A1A691ABD
:10013000731A7A1A921A8A1A8C1A8E1A901A921AAA
:10014000941A00C0C101C30302C2C60607C705C591
:10015000C404CC0C0DCD0FCFCE0E0ACACB0BC909EF
:1001600008C8D81819D91BDBDA1A1EDEDF1FDD1DFF
:100170001CDC14D4D515D71716D6D21213D311D12F
:10018000D010F03031F133F3F23236F6F737F5357F
:1001900034F43CFCFD3DFF3F3EFEFA3A3BFB39F9AF
:1001A000F83828E8E929EB2B2AEAEE2E2FEF2DED7F
:1001B000EC2CE42425E527E7E62622E2E323E121EF
:1001C00020E0A06061A163A3A26266A6A767A565FF
:1001D00064A46CACAD6DAF6F6EAEAA6A6BAB69A96F
:1001E000A86878B8B979BB7B7ABABE7E7FBF7DBD7F
:1001F000BC7CB47475B577B7B67672B2B373B171AF
:1002000070B050909151935352929656579755957E
:1002100094549C5C5D9D5F9F9E5E5A9A9B5B99592E
:100220005898884849894B8B8A4A4E8E8F4F8D4DFE
:100230004C8C44848545874746868242438341816E
:10024000804000C1814001C0804101C0804100C1A7
:10025000814001C0804100C1814000C1814001C096
:10026000804101C0804100C1814000C1814001C086
:10027000804100C1814001C0804101C0804100C176
:10028000814001C0804100C1814000C1814001C066
:10029000804100C1814001C0804101C0804100C156
:1002A000814000C1814001C0804101C0804100C146
:1002B000814001C0804100C1814000C1814001C036
:1002C000804101C0804100C1814000C1814001C026
:1002D000804100C1814001C0804101C0804100C116
:1002E000814000C1814001C0804101C0804100C106
:1002F000814001C0804100C1814000C1814001C0F6
:10030000804100C1814001C0804101C0804100C1E5
:10031000814001C0804100C1814000C1814001C0D5
:10032000804101C0804100C1814000C1814001C0C5
:10033000804100C1814001C0804101C0804100C1B5
:100340008140005EBCE2613FDD83C29C7E20A3FD54
:100350001F419DC3217FFCA2401E5F01E3BD3E60A3
:1003600082DC237D9FC1421CFEA0E1BF5D0380DED5
:100370003C62BEE0025CDF81633D7C22C09E1D4387
:10038000A1FF4618FAA427799BC584DA3866E5BB35
:100390005907DB856739BAE406581947A5FB782663
:1003A000C49A653BD987045AB8E6A7F91B45C69895
:1003B0007A24F8A6441A99C7257B3A6486D85B0547
:1003C000E7B98CD2306EEDB3510F4E10F2AC2F71F5
:1003D00093CD114FADF3702ECC92D38D6F31B2EC23
:1003E0000E50AFF1134DCE90722C6D33D18F0C5255
:1003F000B0EE326C8ED0530DEFB1F0AE4C1291CF07
:100400002D73CA947628ABF517490856B4EA6937B4
:10041000D58B5709EBB536688AD495CB2977F4AAE2
:100420004816E9B7550B88D6346A2B7597C94A1414
:10043000F6A8742AC896154BA9F7B6E80A54D789C6
:100440006B356E616E00696E660000407A10F35A7B
:1004500000A0724E18090010A5D4E80000E8764804
:10046000170000E40B54020000CA9A3B000000E1B0
:10047000F505000080969800000040420F00000043
:10048000A08601000000102700000000E803000023
:1004900000006400000000000A00000000000100ED
:1004A000000000002C76D888DC674F0823DFC1DF0E
:1004B000AE59E1B1B796E5E3E453C63AE651997611
:1004C00096E8E6C28426EB898C9B62ED407C6FFC4B
:1004D000EFBC9C9F40F2BAA56FA5F490055A2AF78D
:1004E0005C936B6CF9676DC11BFCE0E40D47FEF596
:1004F00020E6B500D0ED902E0300943577050080FE
:10050000841E080000204E0A000000C80C3333335C
:10051000330F986E12831141EF8D2114893BE655FC
:1005200016CFFEE6DB18D1844B381BF77C1D901DDF
:10053000A4BBE424203284725E228100C9F124EC41
:10054000A1E53D2711241FBEC0E0D0E1DEBFCDBF35
:1005500011E0A0E0B1E0E2E3F7E400E00BBF02C08D
:1005600007900D92A634B107D9F725E0A6E4B1E0D3
:1005700001C01D92AE32B207E1F70E945A1C0C94E2
:1005800097230C940000DC01680F791F9FEF4FEF59
:10059000A617B70771F08D919827292F30E0F90140
:1005A000EE5BFD4F94919427F901EE5BFE4F449171
:1005B000EFCF892F90E0942B08951092460181E0AF
:1005C000089591E0909346018093470181E008955A
:1005D00020914601222341F020914701FC01208314
:1005E0001092460181E0089580E008959AB19864E0
:1005F0009AB9882319F08AB1806902C08AB18F76CE
:100600008AB9662329F08AB188628AB9C09A0895A6
:10061000559808950F93CF93C22F9A01AB0184E0B0
:10062000220F331F441F551F8A95D1F760E070E4F5
:1006300089E191E00E9491218FEF820F89B9013009
:1006400021F0023021F480E203C080E301C080E0A9
:10065000C73021F0C83019F4866001C084609091E1
:1006600095009860892B8093950060E080E00E945F
:10067000F602B89AC09881E0CF910F9108958CB995
:1006800081E008952CB1FC01208381E008951F9240
:100690000F920FB60F9211240BB60F922F933F9328
:1006A0004F935F936F937F938F939F93AF93BF937A
:1006B000EF93FF93E091B102F091B2020995FF919F
:1006C000EF91BF91AF919F918F917F916F915F91CA
:1006D0004F913F912F910F900BBE0F900FBE0F9037
:1006E0001F9018951F920F920FB60F9211240BB600
:1006F0000F922F933F934F935F936F937F938F93BB
:100700009F93AF93BF93EF93FF93E091B502F09166
:10071000B6020995C098FF91EF91BF91AF919F915B
:100720008F917F916F915F914F913F912F910F909A
:100730000BBE0F900FBE0F901F9018951F920F9237
:100740000FB60F921124C0980F900FBE0F901F90FC
:10075000189510928900109288008091480190911C
:100760004901892B69F080917D00806180937D0033
:100770008091480190914901909387008093860071
:1007800080918A00856080938A000895EAE8F0E00D
:1007900080818A7F8083EDE7F0E080818F7E808397
:1007A000ECE7F0E080818061808308959C01A0E502
:1007B000B6E40E94E32120E23EE440E050E00E94E3
:1007C0009121309349012093480110928B0010929F
:1007D0008A0010928C000E94C60381E008951F9247
:1007E0000F920FB60F9211240BB60F922F933F93D7
:1007F0004F935F936F937F938F939F93AF93BF9329
:10080000EF93FF93E091B302F091B4020995C09881
:10081000FF91EF91BF91AF919F918F917F916F91D8
:100820005F914F913F912F910F900BBE0F900FBE94
:100830000F901F9018950F93862FBA01A901F89475
:100840009AE090934A0127E00E940A03813031F434
:1008500080E29EE40E94D603813011F083E001C063
:1008600080E078940F910895F89460E081E00E9410
:10087000F60210925301789480E00C94E102F8940F
:1008800060E080E00E94F6020E94C603789408951A
:10089000DC01F8948091510190915201039718F175
:1008A0002091510130915201E1EBF1E02F543E4F84
:1008B00090E0E217F30719F08191980FFACF9111A8
:1008C00012C08091B1018C9380915101909152019D
:1008D0000297FA019183808382EB91E0FB0191837F
:1008E000808380E001C085E078940895F894909129
:1008F000530191113BC0FB013197F0934F01E093FD
:100900004E0121E030E030934D0120934C01808373
:1009100080914C0190914D01480F591F50934D010A
:1009200040934C0120914C0130914D0180E02150C9
:10093000310918F09191890FFACF819520914C01DE
:1009400030914D01A9014F5F5F4F50934D0140938E
:100950004C01F901EF54FE4F808381E080935401F4
:1009600061E080E00E94F60280E001C085E07894BA
:100970000895CF93DF931F92CDB7DEB7CE010196D6
:100980000E94420380915301813031F008F474C019
:10099000823009F453C07EC00E94A90399819A3322
:1009A00039F410925001109252011092510172C00C
:1009B0009D3011F482E06CC080ED890F8A3040F0E8
:1009C0008FEB890F863018F489EC890F01C08FEF07
:1009D000909150019923C1F0913009F05BC0E091F2
:1009E0005101F0915201EF54FE4F9081892B808389
:1009F0008091510190915201019690935201809300
:100A000051011092500146C0209151013091520184
:100A10002F3F310509F068F4E0915101F091520146
:100A2000EF54FE4F8295807F808381E08093500158
:100A300031C0109253010E94C6032CC0898190914D
:100A40004A01891308C00E94C6031092530181E035
:100A50000E94E10220C08A3361F41092500110928A
:100A600052011092510181E0809353010E94A90329
:100A700011C0109253010EC089818A3359F40E942B
:100A8000A90310925201109251011092500181E07D
:100A90008093530180E00F90DF91CF910895CF9321
:100AA00080915401823019F178F4882309F474C0DC
:100AB000813009F075C08AE30E943F0382E0809391
:100AC0005401109250016CC0833009F45DC0843031
:100AD00009F066C01092540183E00E94E102C82F21
:100AE00060E081E00E94F602109254015AC08091A9
:100AF0004C0190914D01892B09F441C08091500126
:100B0000882319F08130C9F04BC0E0914E01F0917B
:100B10004F01808182958F708A3010F4805D07C00C
:100B200096EF980F963010F4895C01C080E30E9424
:100B30003F0381E08093500133C0E0914E01F0917A
:100B40004F0180818F708A3010F4805D01C0895C14
:100B50000E943F0380914E0190914F010196909326
:100B60004F0180934E011092500180914C01909161
:100B70004D01019790934D0180934C0111C08DE080
:100B80000E943F0383E005C080914A010E943F0319
:100B900084E08093540104C060E081E00E94F6028A
:100BA000C0E08C2FCF910895809153018150823005
:100BB00010F4109253010E94C60380E008951F9321
:100BC000CF93DF93FC01EB0188819981059709F0B0
:100BD00047C081819281438150E0542F4427248172
:100BE000422B9A01215031092F3C3740C8F5198218
:100BF000188221E02083288139812F5F3F4F39837C
:100C00002883BA0123E0769567952A95E1F79A0142
:100C100027703327232B19F011E0160F01C0162F70
:100C20001183288139812F5F3F4F39832883692FB2
:100C300070E0782B6F5F7F4F20E0CF0102960E941B
:100C40009F0E882329F0DF91CF911F910C940F09FB
:100C500088819981810F911D9983888380E001C0EB
:100C600083E0DF91CF911F910895CF93DF9300D060
:100C7000CDB7DEB7FC01DB018D919C91059709F59D
:100C800091816281848181111CC083812FEF280FA3
:100C90002E3FB8F01A828F3F19F481E0898301C09A
:100CA000198270E0792B6F5F7F4F21E041E050E0C7
:100CB000CE0101960E949F0E882329F00E940F0901
:100CC00003C083E001C080E00F900F90DF91CF91CF
:100CD0000895CF93DF93FC01DB018D919C910697E2
:100CE00098F131812281438150E0542F442784813F
:100CF000482BA581EA01C770DD27CA01B3E09695AC
:100D00008795BA95E1F7CD2B09F08F5FEA0121971E
:100D1000C03BD740C8F48A1317C0EB01CF01622F44
:100D200070E0732B6F5F7F4F21E006960E949F0E4D
:100D3000882321F0DF91CF910C940F0985E090E09A
:100D40009983888380E001C083E0DF91CF9108958B
:100D50001F93CF93DF93FC01EB0188819981059765
:100D600009F046C081819281438150E0542F44278D
:100D70002481422B9A01215031092F3C3740C0F584
:100D80001982188222E02083288139812F5F3F4F0A
:100D900039832883BA0123E0769567952A95E1F790
:100DA0009A0127703327232B19F011E0160F01C089
:100DB000162F1183288139812F5F3F4F3983288374
:100DC000692F70E0782B6F5F7F4FCF0102960E94F2
:100DD000F10E882329F0DF91CF911F910C940F0918
:100DE00088819981810F911D9983888380E001C05A
:100DF00083E0DF91CF911F910895FB012081318124
:100E000025303105A1F4FC01618170E0762F662761
:100E10008281682B6F5F7F4F21E041E050E0CF017E
:100E200003960E94300E882321F00C940F0983E072
:100E3000089580E00895CF93DF93FC01DB018D914D
:100E40009C91069748F131812281438150E0542FD3
:100E500044278481482B9581DA011197A837B10581
:100E6000D8F4842F880F981317C0EB01CF01622F9D
:100E700070E0732B6F5F7F4F21E006960E94300E6B
:100E8000882321F0DF91CF910C940F0985E090E049
:100E90009983888380E001C083E0DF91CF9108953A
:100EA0000F931F93CF93DF93FC01DB018D919C91F6
:100EB0000597D9F5818192812481022F10E0A80144
:100EC000415051094D37510580F5EB0119821882C7
:100ED00033E03083488159814F5F5F4F59834883A6
:100EE000220F2183288139812F5F3F4F3983288347
:100EF000692F70E0782B6F5F7F4F20E0A801CF0152
:100F000002960E94300E882331F0DF91CF911F911D
:100F10000F910C940F09000F111F88819981080F00
:100F2000191F1983088380E001C083E0DF91CF910E
:100F30001F910F910895CF92DF92EF92FF920F933E
:100F40001F93CF93DF93FC01DB018D919C910A9756
:100F500008F459C0C180D280038110E0102F00270F
:100F60008481082B95818681378140852185D80130
:100F70001197AD37B10508F048C050E0532BDA01A6
:100F80001197A937B10508F040C030E0DA01AA0F87
:100F9000BB1FA217B307C9F57B01EF01682F70E0F3
:100FA000792B6F5F7F4F21E0CF010A960E94300EB0
:100FB00081112DC0F7011182108287E18883808121
:100FC0009181019691838083802F880F898380810E
:100FD00091810196918380836D2D70E07C296F5FF4
:100FE0007F4F20E0A801CE0102960E94300E8111B1
:100FF0000EC0000F111FD7018D919C911197080F02
:10100000191F0D931C9380E00CC083E00AC0DF9190
:10101000CF911F910F91FF90EF90DF90CF900C94A4
:101020000F09DF91CF911F910F91FF90EF90DF900B
:10103000CF9008950F931F93CF93DF93FC01DB01B3
:101040008D919C911197059709F043C08181928100
:10105000C381D0E0DC2FCC272481C22B9E012150FC
:1010600031092C373105A8F58B0111961C921E927F
:1010700024E020832D913C9111972F5F3F4F1196D3
:101080003C932E932C2F220F21832D913C9111976D
:101090002F5F3F4F2D933C93692F70E0782B6F5F4C
:1010A0007F4FAE01CF0102960E94060E882331F0D9
:1010B000DF91CF911F910F910C940F09CC0FDD1F81
:1010C000F80180819181C80FD91FD183C08380E04E
:1010D00001C083E0DF91CF911F910F910895CF93CD
:1010E000DF93E9012296C032D105E8F480935701DD
:1010F00082E090E0909356018093550181E0611168
:1011000001C080E08195809358012115310569F077
:10111000BA01A90189E591E00E94DC22D093560131
:10112000C093550102C084E001C080E0DF91CF91FF
:1011300008950F931F93CF93DF938B01C0915501B7
:10114000D0915601AE0167E571E001960E94DC2264
:101150002196F801D183C08380E0DF91CF911F9168
:101160000F9108950F931F93CF93DF9330E08B017E
:1011700053E0169507955A95E1F767707727E1E0F8
:10118000F0E002C0EE0FFF1F4A95E2F73197EC0145
:10119000C00FD11F48810F5F1F4FDC01A00FB11F8F
:1011A0008C9150E0582B062E02C0EE0FFF1F0A94C0
:1011B000E2F7E095F0954E235F2302C0220F331F24
:1011C0006A95E2F7422B532B48835C93DF91CF91D2
:1011D0001F910F910895FB0123E0F695E7952A955D
:1011E000E1F7DC01AE0FBF1F2C9111968C9130E01E
:1011F000382B53E0EE0FFF1F5A95E1F76E1B7F0B64
:1012000002C0369527956A95E2F781E090E002C02A
:10121000880F991F4A95E2F7019782230895883035
:1012200030F4E82FF0E0EC5CFE4F8081089584E01C
:101230000895CF92DF92EF92FF920F93862F69016C
:101240007A01F89428E0B701A6010E940A038130D0
:10125000E9F481E0C8168BE4D806E104F10468F4EF
:10126000A7019601220F331F441F551F60EA7FE735
:1012700087E190E00E94912104C023E230E040E049
:1012800050E0C9010E94D603813011F083E001C013
:1012900080E078940F91FF90EF90DF90CF900895C9
:1012A000F89410927D0160E081E00E94F6020E94B5
:1012B000A90378940895F89460E080E00E94F60213
:1012C0000E94C60378940895EF92FF920F931F93A4
:1012D000CF93DF93F89420917701309178012430F7
:1012E000310510F485E01EC08A01EB017C0160919C
:1012F00077017091780181EB91E00E94C302892B04
:1013000089F78091B101F7018083809177019091F5
:1013100078010397F8019183808382EB91E09983B0
:10132000888380E07894DF91CF911F910F91FF9097
:10133000EF900895CF93F894C0917D01C13009F0EA
:1013400046C0282FCB01019790937C0180937B01AD
:1013500061E070E070937A0160937901FC01208371
:101360002091790130917A01420F531F50937A01F5
:10137000409379016091790170917A010E94C302D2
:10138000492F2091790130917A01B9016F5F7F4F28
:1013900070937A0160937901F901EF54FE4F8083D5
:1013A0008091790190917A019C012F5F3F4F30939A
:1013B0007A0120937901FC01EF54FE4F4083C093E2
:1013C0007E0161E080E00E94F60280E001C085E0DD
:1013D0007894CF910895CF93DF931F92CDB7DEB766
:1013E000CE0101960E94420380917D01813031F04F
:1013F000B8F18230C9F0833099F134C0109278018D
:101400001092770180917701909178019C012F5F74
:101410003F4F30937801209377012981FC01EF54ED
:10142000FE4F208382E01AC080917701909178016D
:101430008F3F910509F088F48091770190917801B0
:101440009C012F5F3F4F30937801209377012981D2
:10145000FC01EF54FE4F208303C083E080937D01A5
:101460000E94A90380E00F90DF91CF910895CF9360
:1014700080917E01882319F0813031F030C060E026
:1014800081E00E94F6022BC08091790190917A014F
:10149000892BD1F0E0917B01F0917C0180810E9449
:1014A0003F0380917B0190917C01019690937C0198
:1014B00080937B018091790190917A0101979093BB
:1014C0007A01809379010BC083E00E94E102C82F6A
:1014D00060E081E00E94F60210927E0101C0C0E04F
:1014E0008C2FCF910895CF93DF931F92CDB7DEB7A6
:1014F00080917D01882321F0823031F481E001C0A8
:1015000080E00E94E10201C080E089830E94C6035E
:1015100091E090937D0189810F90DF91CF910895A3
:10152000EF920F931F93CF93DF93D82F962F642FB3
:101530008FEF890F873F08F07AC0A9019801892FA2
:1015400090939101DD23A9F1D13009F070C0E4E35B
:10155000F4E0F0938D01E0938C01EFE3F4E0F0937D
:101560008B01E0938A01E6E7F4E0F0938F01E093CA
:101570008E01E8E4F4E0F0938901E0938801109291
:10158000870110928601E9EBF4E0F093B602E09354
:10159000B502EFE4F5E0F093B202E093B102E4EDBE
:1015A000F5E0F093B402E093B3020E2D0E941B0409
:1015B00031C0E0E5F9E0F0938D01E0938C01EBE5BB
:1015C000F9E0F0938B01E0938A01EAE9F9E0F09306
:1015D0008F01E0938E01E4E6F9E0F0938901E09356
:1015E00088011092870110928601EBEEF9E0F093EA
:1015F000B602E093B502E7E3FAE0F093B202E093BB
:10160000B102E3E7FAE0F093B402E093B3020E2DE7
:101610000E941909C82F81110DC00E94DD02882384
:1016200041F0D093900181E08093310103C0C2E08A
:1016300001C0C3E08C2FDF91CF911F910F91EF90EC
:10164000089518160CF03DC0F894E1E0F1E020E0B8
:1016500030E06115710521F141815281411551053B
:1016600071F4F901EE0FFF1FE20FF31FEF5FFE4F62
:101670008083728361832031310501F509C04617EB
:10168000570779F32F5F3F4F33962031310521F70C
:1016900084E015C02F5F3F4F33962031310571F044
:1016A00090819813F7CFF901EE0FFF1F2E0F3F1F08
:1016B000F901EF5FFE4F10821282118280E0789470
:1016C000089582E0089580913101813041F4E091E4
:1016D0008601F0918701309721F0099502C086E0DC
:1016E000089580E0089580913101813049F4E091BE
:1016F0008C01F0918D0109951092310180E00895DF
:1017000086E0089580913101811109C0E0918A013C
:10171000F0918B01099581E08093310104C0813003
:1017200011F086E0089580E00895CF93DF931F9233
:10173000CDB7DEB780913101811189C0CE0101960C
:101740000E94E802813009F084C09981913089F0CB
:10175000923009F07EC0A0918301B09184019C91E8
:101760009093800180937F01E1E0F1E020E030E0A0
:101770001FC0E0918801F091890141E851E063E8E0
:1017800071E085E891E00995811163C08091850140
:1017900090919101891711F081115BC082E00E9444
:1017A000E10257C02F5F3F4F339620313105B1F032
:1017B0008081882399F08913F5CFF901EE0FFF1F7F
:1017C0002E0F3F1FF901EF5FFE4F0180F281E02DE8
:1017D00061E871E0CD01099580937F0180918501D9
:1017E0008823B9F120917F01222309F1E09183013F
:1017F000F091840181E090E09093820180938101D7
:1018000080918001806880834091830150918401A0
:101810008091810190918201BC016F5F7F4F709335
:10182000820160938101FA01E80FF91F2083409142
:101830008101509182016091830170918401E09156
:101840008E01F0918F0180919101099502C086E08F
:1018500001C080E00F90DF91CF910895F89420911E
:10186000AD013091AE017894E62FF0E0EE0FFF1F4E
:10187000EE0FFF1FE354FD4F009761F0318320838B
:101880008D3B2FE7920714F08CEB9FE70197938332
:10189000828310C082819381009771F040815181D1
:1018A000241B350B821793072CF41382128281E0DC
:1018B00090E0089580E090E008954F925F926F92DB
:1018C0007F928F929F92AF92BF92CF92DF92EF92D0
:1018D000FF920F931F93CF93DF9300D000D0CDB72B
:1018E000DEB7E982FA820B831C830E94931C2B01D2
:1018F0003C0120E030E0A9010E947A1D18166CF42A
:1019000020E030E040E85FE3F40160817181828192
:1019100093810E94001D87FD16C020E030E0A901E0
:10192000C301B2010E94001D87FF21C020E030E00A
:1019300040E85FEBF40160817181828193810E94B4
:101940007A1D1816A4F4A3019201C601B5010E94E4
:101950007F1D9B01AC01F4016081718182819381C3
:101960000E94941CF4016083718382839383A3019A
:10197000920169817A818B819C810E947F1DF40193
:1019800020813181428153810E94941C6B017C0132
:1019900020E030E040E85FE30E947A1D18168CF0EA
:1019A00020E030E040E85FEBC701B6010E94001D77
:1019B00087FF0DC0C12CD12C90E8E92E9FEBF92EAA
:1019C00006C0C12CD12C80E8E82E8FE3F82EC70189
:1019D000B6010F900F900F900F90DF91CF911F9154
:1019E0000F91FF90EF90DF90CF90BF90AF909F90BE
:1019F0008F907F906F905F904F900895880F991F00
:101A0000880F991FFB01E80FF91F6591759185916A
:101A1000949108951F920F920FB60F9211248F93F5
:101A2000C09A82E080933E038F910F900FBE0F907B
:101A30001F9018951F920F920FB60F9211240BB69C
:101A40000F928F939F93EF93FF9380919B009091C0
:101A50009C008C71A1F480919401E82FF0E0E25099
:101A6000FD4F90838F5F803419F08093940102C002
:101A700010929401809193018F5F80939301FF9165
:101A8000EF919F918F910F900BBE0F900FBE0F9013
:101A90001F9018951F920F920FB60F9211240BB63C
:101AA0000F928F93EF93FF93809196018823B1F06B
:101AB000815080939601E0919801F0E0E15CFC4F49
:101AC000808180939C00809198018F5F803419F011
:101AD0008093980108C01092980105C080919A00E7
:101AE0008F7B80939A00FF91EF918F910F900BBEA7
:101AF0000F900FBE0F901F9018958091930188232F
:101B0000C1F0F8948091930181508093930190915A
:101B10009501E92FF0E0E250FD4F80819F5F903406
:101B200019F09093950102C010929501789490E07D
:101B300008958FEF9FEF089590919601911104C041
:101B400090919B0095FD18C0F89490919701E92F12
:101B5000F0E0E15CFC4F808381E0890F803419F074
:101B60008093970102C010929701809196018F5F38
:101B7000809396017894089580939C0080919A00B8
:101B8000806480939A00089580913E03882331F009
:101B9000815080933E03811101C0C09808951F9326
:101BA000CF93DF93162FEC018991882321F0612FC9
:101BB0000E949C0DF9CFDF91CF911F910895FB01F9
:101BC000EE0FFF1FE054FC4F918380830895FB01CB
:101BD000EE0FFF1FE050FC4F918380830895880F24
:101BE000991FFC01E050FC4F808191810895FB0119
:101BF000E058FC4F8083089580589C4FFC01808101
:101C00000895FB01E056FC4F80830895CF93DF9346
:101C10006115710509F19B01240F351F2232310531
:101C2000D8F4440F551F660F771F20E030E02417CB
:101C3000350781F0F901E60FF71FE254FC4FA1814F
:101C4000EC01A8830296DC011197E081EC932E5FF2
:101C50003F4FEDCF80E001C081E0DF91CF9108954B
:101C6000FF920F931F93CF93DF93FC016F3F71059A
:101C700081F44130510589F4C081CE3D71F42130A9
:101C800061F46EED8FEF9FE00E948623C09399016F
:101C90004FC06115710509F449C0CB01840F951F30
:101CA000829708F043C0222361F0213009F040C040
:101CB000440F551F660F771F80E090E00AEFF02E6B
:101CC00019C0440F551F660F771F80E090E08417FE
:101CD000950771F1DC01A60FB71FA250BC4F1196FA
:101CE0002C91119720833296EF0121972C91288314
:101CF0000296EDCF84179507D9F0208130E0322F7E
:101D00002227DC01A60FB71FA250BC4F11963C93AF
:101D10002E9332968F0101501109E8011881212B71
:101D20002D933C93F0927F030296E4CF81E001C0B3
:101D300080E0DF91CF911F910F91FF900895BF92A6
:101D4000CF92DF92EF92FF920F931F93CF93DF9387
:101D500061157105C9F1FB01E40FF51FB297A0F5FC
:101D60008A01EB016C01222339F0213079F5E12C55
:101D7000F12C8AEFB82E14C0E12CF12CE016F106FC
:101D800029F1F701EC0FFD1FE158FC4F208141E0E4
:101D9000B701C6010E94B2088FEFE81AF80AEECF29
:101DA000E016F10699F041E0B701C6010E94EB0888
:101DB000F701EC0FFD1FE158FC4F8083B0927F03C9
:101DC0008FEFE81AF80AECCF81E001C080E0DF91E4
:101DD000CF911F910F91FF90EF90DF90CF90BF9028
:101DE0000895CF92DF92EF92FF920F931F93CF93BC
:101DF000DF9361157105E9F09B01240F351F223235
:101E00003105B8F46A017B018C01C0E0D0E0CC154B
:101E1000DD0569F0FE01EE0DFF1DE156FC4F20814E
:101E200041E0BE01C8010E94B2082196F0CF80E0D7
:101E300001C081E0DF91CF911F910F91FF90EF9052
:101E4000DF90CF900895EF920F931F93CF93DF937E
:101E5000CDB7DEB728970FB6F894DEBF0FBECDBF63
:101E600088E0EEE3F1E0DE01119601900D928A9593
:101E7000E1F7E12C00E016E920E030E041E06BE022
:101E800080E00E94900A24E130E0AE014F5F5F4F96
:101E900061E080E60E946F0878940E94730B289698
:101EA0000FB6F894DEBF0FBECDBFDF91CF911F916B
:101EB0000F91EF9008959091D80494FB882780F9B2
:101EC0008093B0038091D904282F21702093B1030F
:101ED00092FB222720F92093B20391709093B303D1
:101EE00086FB992790F99093B40387FB992790F983
:101EF0009093B50385FB992790F99093B60383FBE4
:101F0000882780F98093B7039091BE0380919E0348
:101F1000981304C080919303882319F08AEF80936B
:101F20007F0380917F03813019F41092920302C0E5
:101F3000882319F1815080937F038091D804909178
:101F4000910390FB83F99091900390FB87F9909116
:101F5000920390FB81F98093D804809120049091A2
:101F600021049093DD048093DC04809122049091FD
:101F700023049093EB048093EA048091DA04909117
:101F8000DB049093E1038093E0038091E804909157
:101F9000E9049093E3038093E2038091DE0490913F
:101FA000DF049093E5038093E4038091E40490912F
:101FB000E5049093E7038093E6038091E204909117
:101FC000E3049093E9038093E8038091EC049091FB
:101FD000ED049093EB038093EA038091FC049091CD
:101FE000FD049093ED038093EC038091F90490E05D
:101FF0009093EF038093EE03809199018E3D09F455
:10200000FFCF08950895282FDC0180E09A2F921BBE
:10201000961738F4ED91E827F0E0EE5BFC4F8491E1
:10202000F5CF08956091400482E494E00E9403108B
:1020300091E0811190E0892F089590919C0199235E
:10204000A1F190919D01492F50E02091320130E0A3
:102050002F5F3F4F2417350774F410929D011092A3
:102060009C01843021F481E080939A01089581E0FD
:1020700080939B010895813229F1992349F0913091
:1020800051F4805280933201813458F090939B0137
:1020900010929C0106C0923020F0FA01E159FB4FEA
:1020A00080839F5F90939D010895823081F481E049
:1020B00080939C0110929D0110929B0180E480937B
:1020C00032010895913039F790933201EACF0895A3
:1020D000CF92DF92EF92FF920F931F93CF93DF93F4
:1020E0004091320150E0F0E0E0E08F2F90E0841763
:1020F00095070CF048C0DC01AE58BB4FAC91B0E086
:102100006E2F70E09B012E5B3B4F79019D012052A9
:102110003109207333278C010F581B4FE801B88118
:10212000B052C4E036952795CA95E1F7D4E0BD9F3B
:10213000200D1124E7012883EC01CD58DB4FE88006
:10214000F12CEB01CD5BDB4F9701205231092C7351
:102150003327359527953595279510E1A19F200DBB
:1021600011242883DB01AC5BBB4FEC01CC58DB4F67
:10217000888180528F7320E4E29E800D11248C931D
:10218000ED5FFC5FB2CFE09340040E941210882301
:1021900009F4E7C080919B018111E3C010927004A3
:1021A0008091D8048F7B8093D80480E02DE098E064
:1021B00034E14AE055E0E82FF0E06091400470E03F
:1021C00061507109E617F7070CF0CBC0EE5BFB4FCF
:1021D000E081CE2ED12CB6016150710969307105B4
:1021E00008F0BFC06A5B7F4FA1E0A80FFB010C9411
:1021F000D221EA2FF0E0EE5BFB4F6081718170939A
:10220000DB046093DA041BC0EA2FF0E0EE5BFB4FC7
:10221000608171817093E9046093E8041CC0EA2F27
:10222000F0E0EE5BFB4FC080D180E280F380C09293
:10223000DE04D092DF04E092E004F092E1048B5FD0
:10224000BACFEA2FF0E0EE5BFB4F608171817093B3
:10225000E5046093E4048D5FAECFEA2FF0E0EE5B1F
:10226000FB4F608171817093E3046093E204F3CFCC
:10227000EA2FF0E0EE5BFB4F608171817093ED041B
:102280006093EC04E8CFEA2FF0E0EE5BFB4F708147
:1022900072FBFF24F0F873FBEE27E0F974FBDD27F7
:1022A000D0F975FBBB27B0F976FBAA27A0F977FB1D
:1022B000CC27C0F98E5F71FB662760F9F091D804D6
:1022C00060FBF4F96091D904F0FA67F970FBF0F95A
:1022D0007F2FD0FB72F97093D804C0FB66F9B0FB76
:1022E00065F96E7F6E2BA0FB63F96093D9041092A1
:1022F000060560FD509306056091D80462FD409389
:10230000060560FD3093060564FF55CF90930605E2
:1023100052CFEA2FF0E0EE5BFB4FACEFB4E0692F59
:1023200001900D926A95E1F7875FECEFF4E0608130
:102330007181683E734010F011821082329665E020
:10234000E430F607A1F737CFEA2FF0E0EE5BFB4F62
:10235000AEEEB4E0622F01900D926A95E1F7825FD4
:102360002ACFDF91CF911F910F91FF90EF90DF90D7
:10237000CF900895CF93DF938091D80481FB3327CA
:1023800030F94091DC045091DD0460E070E0E091B0
:10239000EA04F091EB0483FB222720F99091A0013D
:1023A0009A3028F49F5F9093A00191E003C087FBCF
:1023B000992790F982E0809342044093430450931C
:1023C0004404609345047093460483E0809347047B
:1023D000F0934904E093480481E080934A0480919B
:1023E0004B0430FB80F990FB81F920FB84F980934A
:1023F0004B0481E880934C0482E880934D0489E883
:1024000080934E0484E880934F0483E880935004C3
:1024100088E88093510485E88093520486E880938D
:102420005304109254041092550464E182E494E041
:102430000E94031080935604B0E0A0E04B2F50E0C0
:1024400045315105ECF5FA01EE5BFB4F90816A2FA7
:1024500070E0FB01EF58FB4F892F86958695805ED3
:102460008083FA01ED5BFB4F8081FB01EE58FB4F4F
:10247000C82FC295CF70D0E19D9F900111242C2BC5
:102480002F73205E2083FA01EC5BFB4F2081FB0160
:10249000ED58FB4F34E0839FC0011124922F929599
:1024A000969596959370892B8F73805E8083FB0140
:1024B000EC58FB4F2F73205E2083AC5FBD5FBECF17
:1024C000A093410461E082E00E949C0D61E080E203
:1024D0000E949C0D8091410461E0805E0E949C0DF1
:1024E000C0E080914104C81750F4EC2FF0E0EF58A1
:1024F000FB4F60E080810E949C0DCF5FF2CF61E0D6
:1025000084E0DF91CF910C949C0D809170048F5FDB
:10251000809370048F738F3319F481E080939E0150
:102520000E947D0D97FD0EC08B31910531F42091F5
:102530009F012F5F20939F0102C010929F010E9474
:102540001D10EECF80919F01803231F46FED8FEF3F
:102550009FE00E948623FFCF80919A01882341F05B
:1025600081E080939E0110929A010E94681017C02A
:1025700080917004893C98F08091D90483FD0FC04C
:102580008091D80486FD0BC080648093D80487EEC8
:1025900093E09093FD048093FC040E943713809194
:1025A000D90483FF07C0109270048091D8048F7BF8
:1025B0008093D80480919E01882341F080919C01F2
:1025C000811104C010929E010C94BA1108951092CA
:1025D000C4041092C0041092C1041092D5048AB7AA
:1025E00082608ABF89B7806189BF0895F89480911D
:1025F000D6049091D7049093C1038093C00378943C
:102600008091A201811105C00E94E71281E08093B0
:10261000A20108958091C1048823B9F09091C40467
:10262000E92FF0E0EB53FB4F80819F5F903119F071
:102630009093C40402C01092C404F8949091C10411
:1026400091509093C1047894089580E0089508957E
:102650000895E8EDF4E080818260816080830895D0
:10266000E8EDF4E080818E7F8D7F808308950E9465
:10267000301388E080930605E8EDF4E08081806106
:1026800080830895E8EDF4E080818B7F877F8083ED
:1026900008950E9442138FEF80930605E8EDF4E061
:1026A0008081806180830895E8EDF4E08081886016
:1026B000846080830895E8EDF4E080818E7E8068F8
:1026C0008083089508951F920F920FB60F921124E0
:1026D0008F939F938091AD019091AE01019690935D
:1026E000AE018093AD019F918F910F900FBE0F901F
:1026F0001F9018951F920F920FB60F9211240F90F2
:102700000FBE0F901F9018951F920F920FB60F9249
:1027100011240F900FBE0F901F9018951F920F92CB
:102720000FB60F9211240F900FBE0F901F901895A7
:102730001F920F920FB60F9211240F900FBE0F90A1
:102740001F9018951F920F920FB60F9211240F90A1
:102750000FBE0F901F9018951F920F920FB60F92F9
:1027600011242F933F938F939F9324B135B1809180
:10277000070590910805280F391F3093080520930D
:10278000070580910905803238F03093C903209302
:10279000C8031092090503C08F5F809309059F91BC
:1027A0008F913F912F910F900FBE0F901F90189512
:1027B000949A8C9AE2E6F0E0808184608083E1E67E
:1027C000F0E0808184608083969A8E9A979A8F9A9F
:1027D000C79ABF9AC69ABE9AA5E6B0E08C9181606E
:1027E0008C93E4E6F0E08081816080838C9182604C
:1027F0008C938081826080830895CF93C8E18FE0BD
:102800000FB6F894A895C1BD0FBE81BDA8950E94D2
:10281000D81389E483BF2FEF3FEF3BBD2ABD93E080
:102820009FBD99E99EBD94E297BF85BD8CE488B9B0
:1028300080E189BF1ABE89B7806289BF8AB7846088
:102840008ABF89B7806889BF8AB780648ABF89B721
:10285000806489BF8AB780618ABF80E487B98FEFBF
:1028600086B988E980939A009EE090939D0010922B
:10287000980089E080939900CAB9909395001092CE
:10288000900089B9CF9108958F929F92AF92BF9295
:10289000CF92DF92EF92FF920F931F93CF93DF932C
:1028A000CA9907C080910A05843018F48F5F80931D
:1028B0000A05CA9B07C080910A05882319F0815038
:1028C00080930A05C99907C080910B05843018F4DC
:1028D0008F5F80930B05C99B07C080910B058823F0
:1028E00019F0815080930B05C89907C080910C05A1
:1028F000843018F48F5F80930C05C89B07C08091CB
:102900000C05882319F0815080930C05079907C0A6
:1029100080910D05843018F48F5F80930D05079B1F
:1029200007C080910D05882319F0815080930D0513
:10293000069907C080910E05843018F48F5F80934C
:102940000E05069B07C080910E05882319F0815063
:1029500080930E05059907C080910F05843018F407
:102960008F5F80930F05059B07C080910F0588231B
:1029700019F0815080930F05049907C080911005CC
:10298000843018F48F5F80931005049B07C08091FA
:102990001005882319F0815080931005039907C012
:1029A00080911105843018F48F5F80931105039B8B
:1029B00007C080911105882319F08150809311057B
:1029C0000AE015E060EA73E0C0E8D3E040E050E0E0
:1029D000EE24E394F12CE42FD8019D918D0181E048
:1029E000933008F480E0DB018D93BD018991209143
:1029F000AB013091AC01D701042E02C0AA0FBB1F5E
:102A00000A94E2F7A82EB12C4D0182229322CC2405
:102A1000C394D12C1814190414F0C12CD12CAC146B
:102A2000BD0409F467C0882319F02A2B3B2B04C08E
:102A3000A095B0952A233B233093AC012093AB01A2
:102A40008E2F90E0FC013197E730F10520F4E15B37
:102A5000FF4F0C94D22180918003811102C0949A7F
:102A600049C0949847C080918103811104C080912E
:102A70006200846003C0809162008B7F809362005B
:102A800039C080918203811102C0969A33C0969812
:102A900031C080918303811102C0979A2BC097980F
:102AA00029C080918403811102C0C79A23C0C798AE
:102AB00021C080918503811102C0C69A1BC0C698AF
:102AC00019C080918603811104C0809165008160E6
:102AD0000FC0809165008E7F0BC0809187038111AC
:102AE00004C080916500826003C0809165008D7F85
:102AF0008093650080910804909109042091A301BE
:102B00003091A4018217930759F09093A401809308
:102B1000A30190937900809378008FB58C608FBD6E
:102B200080910A0490910B042091A5013091A60197
:102B30008217930749F09093A6018093A50199BD50
:102B400088BD8FB580638FBD80910C0490910D047A
:102B50002091A7013091A8018217930741F090932B
:102B6000A8018093A70183BD85B5806385BD809151
:102B70000E0490910F042091A9013091AA018217AF
:102B8000930751F09093AA018093A90181BFBC9A49
:102B9000BE9883B7806383BF4F5F5F4F4830510556
:102BA00009F019CFDF91CF911F910F91FF90EF9016
:102BB000DF90CF90BF90AF909F908F90089590E05E
:102BC0008830910510F5FC01EA5AFF4F81E090E052
:102BD0000C94D22120910A0514C020910B0511C03C
:102BE00020910C050EC020910D050BC020910E0503
:102BF00008C020910F0505C02091100502C020914A
:102C00001105233020F480E0089580E090E00895DD
:102C1000653009F44BC068F4623089F128F466230A
:102C2000E1F0613001F10895633079F1643099F198
:102C300008956C3609F45BC038F4663009F441C07D
:102C4000673009F448C008956E3609F45DC008F491
:102C500055C06F3609F45DC00895892B11F4949A1C
:102C6000089594980895892B21F4809162008460DE
:102C700003C0809162008B7F809362000895892B4E
:102C800011F4969A089596980895892B11F4979ABD
:102C9000089597980895892B11F4C79A01C0C79891
:102CA0008FB58B7F8FBD85B58F7E31C0892B11F499
:102CB000C69A01C0C6988FB58F7E8FBD83B78F7EB1
:102CC0002DC0892B21F48091650081600DC0809119
:102CD00065008E7F09C0892B21F480916500826098
:102CE00003C0809165008D7F809365000895909367
:102CF0007900809378008FB58C6004C099BD88BD41
:102D00008FB580638FBD089583BD85B5806385BD14
:102D1000089581BFBC9ABE9883B7806383BF08952E
:102D20000895089508959B01A0E0B0E0BC01CD0195
:102D30004FE0660F771F881F991F4A95D1F740E033
:102D400050E00E94B321211580E838074105510564
:102D500024F02FEF3FE740E050E0C9010895CF9203
:102D6000DF92EF92FF920F931F93893B2EEF920712
:102D70000CF16B01072E000CEE08FF089C01DB0133
:102D80000E94DB218B019C018FE0359527951795DB
:102D900007958A95D1F737FD08C0C016D106E2061F
:102DA000F30634F49701860103C000E010E09801B7
:102DB000C80101C0CA011F910F91FF90EF90DF90F1
:102DC000CF90089580918F038111A6C060E87CE0C8
:102DD0008091DA049091DB040E9493169093010491
:102DE000809300046AE872E08091E8049091E9041D
:102DF0000E94931690930304809302046EE571E0A1
:102E00008091E4049091E5040E9493169093050448
:102E10008093040468EB7BE08091DE049091DF04F2
:102E20000E94931690930704809306048091D8041F
:102E300082FB992790F990938003982F917090933B
:102E4000810384FB992790F99093820384FF2AC021
:102E50008091FC049091FD048830910521F481E07B
:102E60008093830329C08730910521F481E080930A
:102E7000840322C09C01245131092E31310520F4F4
:102E800081E08093870318C08A30910521F481E0A6
:102E90008093860311C0873E934071F081E0809358
:102EA00085030AC010928303109284031092870353
:102EB000109286031092850380917F0381112CC0AC
:102EC0008091D8049091A00390FB83F99091A20384
:102ED00090FB87F99091A10390FB81F98093D8042E
:102EE00040E050E060E87CE08091C0039091C10335
:102EF0000E94AF169093DD048093DC044AE852E010
:102F00006AE872E08091C2039091C3030E94AF16F9
:102F10009093EB048093EA0408951092710010924C
:102F200073001092720080E18093700080917100B4
:102F3000811102C085E90EC080911A0591E0980FB9
:102F400090931A05811103C0109274000895109295
:102F50001A0585EA8093740008951F920F920FB6A8
:102F60000F9211240BB60F922F938F939F93AF93D1
:102F7000BF93EF93FF93E0911B058E2F90E0FC0130
:102F8000319780911A05E730F10520F4E25AFF4F9E
:102F90000C94D22190912605209127058F5F809374
:102FA0001A058230A9F018F4813031F01EC0833048
:102FB000C1F08430B1F019C0809171008830A9F05F
:102FC00080917100803189F08FEF80931A050DC0D8
:102FD00080917100883149F0809171008034A1F7AF
:102FE00004C080917100883279F780911A0582308F
:102FF00009F4ACC0833009F4ACC0813009F0EEC2F2
:1030000088E9E6C290912805209129058F5F809379
:103010001A058230A9F018F4813031F01EC08330D7
:10302000C1F08430B1F019C0809171008830A9F0EE
:1030300080917100803189F08FEF80931A050DC067
:1030400080917100883149F0809171008034A1F73E
:1030500004C080917100883279F780911A0582301E
:1030600009F474C0833009F474C0813009F0B6C229
:103070008AE9AEC290912A0520912B058F5F80933B
:103080001A058230A9F018F4813031F01EC0833067
:10309000C1F08430B1F019C0809171008830A9F07E
:1030A00080917100803189F08FEF80931A050DC0F7
:1030B00080917100883149F0809171008034A1F7CE
:1030C00004C080917100883279F780911A058230AE
:1030D000E9F18330F1F1813009F080C280EC78C2EF
:1030E00090912C0520912D058F5F80931A058230D9
:1030F000A9F018F4813031F01EC08330C1F0843063
:10310000B1F019C0809171008830A9F080917100F0
:10311000803189F08FEF80931A050DC08091710086
:10312000883149F0809171008034A1F704C080910A
:103130007100883279F780911A05823039F0833036
:1031400041F0813009F04AC282EC42C22093730000
:1031500041C2909373003EC2909133019923A1F133
:10316000E1E0E80FE0931A058E2F90E0FC01319723
:10317000E830F105C8F4EB59FF4F809171000C94D1
:10318000D221883089F080917100803169F08FEF11
:1031900080931A0509C0883139F08091710080341C
:1031A000B1F702C0883299F7E0911A058E2F90E0AE
:1031B000FC013197E730F10508F010C2E359FF4FE9
:1031C0000C94D22180E904C28F5F80931A0582306B
:1031D000A9F018F4813031F03BC08330C1F0843065
:1031E00021F136C0809171008830B1F18091710079
:1031F000803191F18FEF80931A052EC0809171007C
:10320000883151F1809171008034A1F725C08091FF
:103210007100803519F08FEF80931A05809173004B
:1032200010921E0580931F0517C080917100803594
:1032300019F08FEF80931A052091730080911E057D
:1032400090911F05822B90931F0580931E0504C04B
:1032500010921F0510921E0580911A05823009F404
:10326000BBC1833009F4B8C1813009F0B7C181E92D
:10327000AFC1909133019923A1F1E1E0E80FE09310
:103280001A058E2F90E0FC013197E830F105C8F463
:10329000EC58FF4F809171000C94D221883089F056
:1032A00080917100803169F08FEF80931A0509C019
:1032B000883139F0809171008034B1F702C08832D2
:1032C00099F7E0911A058E2F90E0FC013197E730D5
:1032D000F10508F083C1E458FF4F0C94D22182E934
:1032E00077C18F5F80931A058230A9F018F481307E
:1032F00031F03BC08330C1F0843021F136C0809181
:1033000071008830B1F180917100803191F18FEFBF
:1033100080931A052EC080917100883151F18091FF
:1033200071008034A1F725C080917100803519F0BB
:103330008FEF80931A05809173001092200580937F
:10334000210517C080917100803519F08FEF8093AF
:103350001A05209173008091200590912105822B00
:10336000909321058093200504C0109221051092AE
:10337000200580911A05823009F42EC1833009F4AA
:103380002BC1813009F02AC183E922C19091330118
:103390009923A1F1E1E0E80FE0931A058E2F90E068
:1033A000FC013197E830F105C8F4ED57FF4F8091EB
:1033B00071000C94D221883089F0809171008031A5
:1033C00069F08FEF80931A0509C0883139F0809138
:1033D00071008034B1F702C0883299F7E0911A0584
:1033E0008E2F90E0FC013197E730F10508F0F6C030
:1033F000E557FF4F0C94D22184E9EAC08F5F809398
:103400001A058230A9F018F4813031F03BC08330C6
:10341000C1F0843021F136C0809171008830B1F163
:1034200080917100803191F18FEF80931A052EC049
:1034300080917100883151F1809171008034A1F741
:1034400025C080917100803519F08FEF80931A05A7
:1034500080917300109222058093230517C08091FC
:103460007100803519F08FEF80931A052091730059
:103470008091220590912305822B909323058093C0
:10348000220504C0109223051092220580911A058E
:10349000823009F4A1C0833009F49EC0813009F064
:1034A0009DC085E995C090913301992309F43FC0EF
:1034B000E1E0E80FE0931A058E2F90E0FC013197D0
:1034C000E830F105C8F4EE56FF4F809171000C947E
:1034D000D221883089F080917100803169F08FEFBE
:1034E00080931A0509C0883139F0809171008034C9
:1034F000B1F702C0883299F7E0911A058E2F90E05B
:10350000FC013197E730F10508F068C0E656FF4F3F
:103510000C94D22181E05CC084E85AC080EA58C093
:1035200085EA5DC086E954C01092730053C08F5F76
:1035300080931A058230A9F018F4813031F03BC035
:103540008330C1F0843021F136C080917100883021
:10355000B1F180917100803191F18FEF80931A0564
:103560002EC080917100883151F1809171008034BA
:10357000A1F725C080917100803519F08FEF8093FD
:103580001A0580917300109224058093250517C0B9
:1035900080917100803519F08FEF80931A0520918A
:1035A00073008091240590912505822B9093250529
:1035B0008093240504C01092250510922405809163
:1035C0001A05823049F0833039F0813039F487E9C7
:1035D0008093730085E803C085EC01C085E9809382
:1035E0007400FF91EF91BF91AF919F918F912F91B7
:1035F0000F900BBE0F900FBE0F901F9018958091EB
:10360000330140911B05882321F0815080933301C1
:10361000C4C04530C9F118F4443041F0BEC0463052
:1036200009F460C0473009F48BC0B7C0A0911E05F3
:10363000B0911F05A352B74121EF38E50E94F22156
:10364000DC01CB016EE0B595A795979587956A95B6
:10365000D1F7811520E89207A105B10564F4811521
:1036600020E892072FEFA207B2074CF480E090E821
:10367000AFEFBFEF04C08FEF9FE7A0E0B0E0909303
:10368000C1038093C00389C0A0912005B09121059A
:10369000A352B74121EF38E50E94F221DC01CB01B2
:1036A0005EE0B595A795979587955A95D1F78115C1
:1036B00020E89207A105B10564F4811520E892077E
:1036C0002FEFA207B2074CF480E090E8AFEFBFEF16
:1036D00004C08FEF9FE7A0E0B0E09093C303809316
:1036E000C2035BC0A0912205B0912305A352B7414C
:1036F00021EF38E50E94F221DC01CB013EE0B595D7
:10370000A795979587953A95D1F7811520E8920767
:10371000A105B10564F4811520E892072FEFA207F7
:10372000B2074CF480E090E8AFEFBFEF04C08FEF3A
:103730009FE7A0E0B0E09093C5038093C4032DC041
:10374000A0912405B0912505A352B74121EF38E59A
:103750000E94F221DC01CB012EE0B595A79597954B
:1037600087952A95D1F7811520E89207A105B10523
:1037700064F4811520E892072FEFA207B2074CF4FA
:1037800080E090E8AFEFBFEF04C08FEF9FE7A0E0CD
:10379000B0E09093C7038093C6034F5F463018F4A0
:1037A00040931B0502C010921B0580911B058130C0
:1037B00031F138F0823009F440C0833009F45BC045
:1037C00077C0A0910004B09101042AE23FE10E9479
:1037D000F221C196811520E1920714F08FEF9FE04E
:1037E00090932705809326058091260590912705C3
:1037F00097FF5EC0109227051092260559C0A09130
:103800000204B09103042EE03FE10E94F221C19630
:10381000811520E1920714F08FEF9FE09093290526
:1038200080932805809128059091290597FF40C035
:1038300010922905109228053BC0A0910404B09174
:1038400005042FE43FE10E94F221C796811520E193
:10385000920714F08FEF9FE090932B0580932A0539
:1038600080912A0590912B0597FF22C010922B057D
:1038700010922A051DC0A0910604B091070424E50A
:103880003FE10E94F221C796811520E1920714F0D2
:103890008FEF9FE090932D0580932C0580912C0550
:1038A00090912D0597FF04C010922D0510922C05C4
:1038B0000C948D170E94FD130E94230F78948CB5F1
:1038C0009DB520911C0530911D05AC01421B530B89
:1038D0009A012115304244F090931D0580931C05F8
:1038E0000E94FF1A0E9444142091AD013091AE0154
:1038F0008091BB029091BC022817390791F080910A
:10390000AD019091AE019093BC028093BB020E94E6
:10391000C40D0E945B0F0E94E2160E9485120E9455
:10392000950BA895CBCF5058BB27AA270E94AB1C5C
:103930000C94401D0E94321D38F00E94391D20F069
:1039400039F49F3F19F426F40C942F1D0EF4E095E2
:10395000E7FB0C94291DE92F0E94511D58F3BA175B
:10396000620773078407950720F079F4A6F50C9495
:10397000731D0EF4E0950B2EBA2FA02D0B01B9018B
:1039800090010C01CA01A0011124FF27591B99F0D5
:10399000593F50F4503E68F11A16F040A22F232FE1
:1039A000342F4427585FF3CF469537952795A79531
:1039B000F0405395C9F77EF41F16BA0B620B730BD8
:1039C000840BBAF09150A1F0FF0FBB1F661F771F49
:1039D000881FC2F70EC0BA0F621F731F841F48F4FE
:1039E000879577956795B795F7959E3F08F0B0CF87
:1039F0009395880F08F09927EE0F9795879508956E
:103A00000E94051D08F481E00895990F0008550FE4
:103A1000AA0BE0E8FEEF16161706E807F907C0F054
:103A200012161306E407F50798F0621B730B840B5C
:103A3000950B39F40A2661F0232B242B252B21F436
:103A400008950A2609F4A140A6958FEF811D811DD6
:103A5000089597F99F6780E870E060E008959FEF10
:103A600080EC089500240A94161617061806090615
:103A7000089500240A9412161306140605060895E4
:103A8000092E0394000C11F4882352F0BB0F40F46C
:103A9000BF2B11F460FF04C06F5F7F4F8F4F9F4FAC
:103AA000089557FD9058440F551F59F05F3F71F02E
:103AB0004795880F97FB991F61F09F3F79F0879595
:103AC0000895121613061406551FF2CF4695F1DF1E
:103AD00008C0161617061806991FF1CF86957105AE
:103AE000610508940895E894BB2766277727CB01E2
:103AF00097F908950E94051D08F48FEF08950E941C
:103B0000921D0C94401D0E94321D38F00E94391DF8
:103B100020F0952311F00C94291D0C942F1D1124D5
:103B20000C94741D0E94511D70F3959FC1F3950F65
:103B300050E0551F629FF001729FBB27F00DB11D31
:103B4000639FAA27F00DB11DAA1F649F6627B00DC1
:103B5000A11D661F829F2227B00DA11D621F739FAA
:103B6000B00DA11D621F839FA00D611D221F749FB8
:103B70003327A00D611D231F849F600D211D822FFF
:103B8000762F6A2F11249F5750409AF0F1F0882326
:103B90004AF0EE0FFF1FBB1F661F771F881F915053
:103BA0005040A9F79E3F510580F00C94291D0C94BC
:103BB000741D5F3FE4F3983ED4F38695779567953F
:103BC000B795F795E7959F5FC1F7FE2B880F911D7D
:103BD0009695879597F908952F923F924F925F920D
:103BE0006F927F928F929F92AF92BF92CF92DF920D
:103BF000EF92FF920F931F93CF93DF93CDB7DEB772
:103C000063970FB6F894DEBF0FBECDBF6C014B01BA
:103C10002A01FC0117821682838181FF43C3AE0112
:103C20004F5F5F4F3A01F6019381F40193FD859157
:103C300093FF81914F01882309F430C3853239F411
:103C400093FD859193FF81914F01853239F4B6013F
:103C500090E00E94F02252012501E5CF10E0F12C06
:103C600020E02032A0F48B3269F030F4803259F039
:103C7000833269F420612CC08D3239F0803339F4FD
:103C8000216026C02260246023C0286021C027FD57
:103C900027C030ED380F3A3078F426FF06C0FAE03E
:103CA0001F9F300D1124132F13C04AE0F49E300DD6
:103CB0001124F32E20620CC08E3221F426FDEEC2B8
:103CC000206406C08C3611F4206802C0883641F4A6
:103CD000F40193FD859193FF81914F018111C1CF33
:103CE0009BEB980F933018F42061805E06C09BE92F
:103CF000980F933008F071C12F7E26FF16E02F73C6
:103D0000322E853619F42064322E08C0863621F40E
:103D1000F22FF0683F2E02C01111115037FE07C07C
:103D20001C3350F4EE24E394E10E27E00BC018306E
:103D300038F027E017E005C027E04CE3E42E02C08E
:103D4000212FE12C520144E0A40EB11CF20160814C
:103D50007181828193810E2DA3010E94F9212C0192
:103D6000098100FF02C003FF07C031FC08C032FE1A
:103D700009C030E2232E07C02DE2222E04C09BE2B0
:103D8000292E01C0212C802F8C7019F0211068C2BF
:103D9000A8C237FE0FC0E40C04FF04C08A8181333F
:103DA00009F4EA941E1474F5F8E0FE1578F588E03D
:103DB000E82E2CC036FC2AC0812F90E08415950592
:103DC0009CF02CEF42162FEF520674F0432D406802
:103DD000342E0AC0E2E0F0E0EC0FFD1FE10FF11D10
:103DE0008081803319F411501111F4CF37FE0EC0C9
:103DF000EE24E394E10E812F90E0481659062CF44E
:103E0000141904C0EE24E39401C010E037FE06C08C
:103E10001414150434F4C201019605C085E090E045
:103E200002C081E090E021100196112331F0212F92
:103E300030E02F5F3F4F820F931F2F2D30E082170E
:103E4000930714F4F81A01C0F12C832D897049F4FA
:103E5000FF2039F0B60180E290E00E94F022FA944F
:103E6000F7CF222029F0B601822D90E00E94F022A7
:103E700033FC09C0FF2039F0B60180E390E00E94D6
:103E8000F022FA94F7CF37FE5AC0942D852D57FEB5
:103E900002C090E080E0292E382E20E030E0A20120
:103EA0004E1951095D874C87A201421953095F875A
:103EB0004E87612F70E044275527461B570B598BBF
:103EC000488B5FEF2516350649F4B6018EE290E087
:103ED0002A8B3B8B0E94F0223B892A89421453048F
:103EE0006CF04C855D854215530544F4EE85FF85E5
:103EF000E20FF31FE60DF71D818101C080E351E061
:103F0000251A31082F5F3F4F4889598924163506F5
:103F10004CF0B60190E02A8B3B8B0E94F0222A895C
:103F20003B89CFCF2414350439F49A81963318F4A1
:103F3000953311F404FF81E3B60190E04BC08A8110
:103F4000813309F00F7EB60190E00E94F02211113A
:103F500005C034FC18C085E690E017C0B6018EE2BB
:103F600090E00E94F02282E0EE24E394E80EF30158
:103F7000E80FF11D8081B60190E00E94F0221150FF
:103F80008E2D91F7E6CF85E490E0B6010E94F022F5
:103F900057FC05C04114510439F404FF05C0519485
:103FA000419451088DE201C08BE2B60190E00E947D
:103FB000F02280E39AE0491651042CF08F5F5AE01A
:103FC000451A5108F7CFB60190E00E94F022B601E1
:103FD000C201C0960E94F02257C1833631F0833768
:103FE00079F0833509F058C021C05201E2E0AE0EED
:103FF000B11CF2018081898301E010E0230114C02B
:104000005201F2E0AF0EB11CF2014080518026FF58
:1040100003C0612F70E002C06FEF7FEFC2012A8BF7
:104020000E94E5228C012A892F7715C05201F2E007
:10403000AF0EB11CF2014080518026FF03C0612FFA
:1040400070E002C06FEF7FEFC2012A8B0E94D12285
:104050008C012A892068322E23FD1AC08F2D90E012
:1040600008171907A8F4B60180E290E00E94F02238
:10407000FA94F4CFF20137FC859137FE81912F013C
:10408000B60190E00E94F022F110FA94015011095B
:104090000115110579F7F8C0843611F0893659F504
:1040A000520127FF09C0F4E0AF0EB11CF20160819C
:1040B0007181828193810AC0F2E0AF0EB11CF201DE
:1040C00060817181072E000C880B990B2F76322EA0
:1040D00097FF09C090958095709561957F4F8F4FA0
:1040E0009F4F2068322E2AE030E0A3010E9428234F
:1040F000E82EE6183FC0022F853721F40F7E2AE014
:1041000030E01DC0097F8F3691F018F4883559F0E2
:10411000C5C0803719F0883711F0C0C0006104FFB6
:1041200009C0046007C024FF08C0066006C028E07C
:1041300030E005C020E130E002C020E132E0520171
:1041400007FF09C0F4E0AF0EB11CF201608171817C
:104150008281938108C0F2E0AF0EB11CF201608150
:10416000718180E090E0A3010E942823E82EE618E8
:104170000F77302E36FE0BC0332D3E7FE11650F404
:1041800034FE0AC032FC08C0332D3E7E05C00E2D21
:10419000332D03C00E2D01C0012F34FF0CC0FE01D2
:1041A000EE0DF11D8081803311F4397E08C032FF9D
:1041B00005C00E5F04C0832F867809F00F5F33FDC2
:1041C00013C030FF06C01E2D0F1518F41F0D101B55
:1041D0000F2D0F1568F4B60180E290E03B8B0E9432
:1041E000F0220F5F3B89F5CF0F1510F4F01A01C0D4
:1041F000F12C34FF12C0B60180E390E03B8B0E94AB
:10420000F0223B8932FF17C031FD03C088E790E000
:1042100002C088E590E0B6010CC0832F867859F083
:1042200031FF02C08BE201C080E237FD8DE2B601B2
:1042300090E00E94F022E11638F4B60180E390E0AD
:104240000E94F0221150F7CFEA94F301EE0DF11D18
:104250008081B60190E00E94F022E110F5CF14C0F9
:10426000F4E0FF1558F584E0F81A33FE1EC0211063
:1042700026C003FF2AC002E414E0F32DF0713F2EA4
:10428000F8018491811124C0FF2009F4E5CCB60126
:1042900080E290E00E94F022FA94F6CFF601868147
:1042A000978126C08FEF9FEF23C0B60180E290E098
:1042B0000E94F022FA94F110F8CFD9CFF12CB60178
:1042C000822D90E00E94F022D4CF06E414E0D5CFF6
:1042D00031108052B60190E00E94F0220F5F1F4F14
:1042E000CFCF23E02F1510F483E0BECFF12CC1CF48
:1042F00063960FB6F894DEBF0FBECDBFDF91CF91AE
:104300001F910F91FF90EF90DF90CF90BF90AF90F3
:104310009F908F907F906F905F904F903F902F90E5
:104320000895A1E21A2EAA1BBB1BFD010DC0AA1FF6
:10433000BB1FEE1FFF1FA217B307E407F50720F00E
:10434000A21BB30BE40BF50B661F771F881F991F89
:104350001A9469F760957095809590959B01AC01D2
:10436000BD01CF010895052E97FB1EF400940E9415
:10437000CA2157FD07D00E94912107FC03D04EF4BB
:104380000C94CA2150954095309521953F4F4F4F41
:104390005F4F089590958095709561957F4F8F4FF1
:1043A0009F4F0895EE0FFF1F0024001C0BBE0790C7
:1043B000F691E02D09940E94E321332312F48A1B25
:1043C0009B0B0C94F421A29FB001B39FC001A39F4B
:1043D000700D811D1124911DB29F700D811D11243E
:1043E000911D08950E94E321B7FF0895821B930B4E
:1043F0000895283008F027E03327DA01990F311D9E
:1044000087FD916000966105710539F432602E5F79
:104410003D9330E32A95E1F708959F3F30F08038CF
:104420007105610509F03C5F3C5F3D93913008F0F8
:104430008068911DDF93CF931F930F93FF92EF92AC
:10444000192F987F9695E92F96959695E90FFF2756
:10445000EC55FB4F99273327EE24FF24A701E701F2
:1044600005900894079428F4360FE71EF81E491F9C
:10447000511D660F771F881F991F0694A1F705909D
:10448000079428F4E70EF81E491F561FC11D770F29
:10449000881F991F661F0694A1F70590079428F4BA
:1044A000F80E491F561FC71FD11D880F991F661F81
:1044B000771F0694A1F70590079420F4490F561F23
:1044C000C71FD81F990F661F771F881F0694A9F76B
:1044D00084911095177041F0D695C79557954795DB
:1044E000F794E7941A95C1F7EAE4F4E0689415901C
:1044F000159135916591959105907FE27395E1183D
:10450000F10A430B560BC90BD009C0F7E10CF11EA1
:10451000431F561FC91FD01D7EF4703311F48A95B6
:10452000E6CFE894015030F0080F0AF40027021794
:1045300008F4202F2395022F7A3328F079E37D9316
:104540002A95E9F710C07D932A9589F606949795E8
:104550006795379517951794E118F10A430B560B99
:10456000C90BD00998F023957E9173957A3308F0A2
:1045700070E37C932013B8F77E9170617D9330F0E7
:10458000839571E37D9370E32A95E1F71124EF9011
:10459000FF900F911F91CF91DF91992787FD909503
:1045A0000895FC010590615070400110D8F7809586
:1045B00090958E0F9F1F0895FB01DC0102C00190B2
:1045C0000D9241505040D8F70895FC016150704061
:1045D00001900110D8F7809590958E0F9F1F089538
:1045E0000F931F93CF93DF93FB01238121FD03C022
:1045F0008FEF9FEF28C022FF16C04681578124818C
:1046000035814217530744F4A081B1819D012F5F8A
:104610003F4F318320838C93268137812F5F3F4F1B
:104620003783268310C0EB01092F182F0084F185F2
:10463000E02D0995892BE1F68E819F8101969F835C
:104640008E83812F902FDF91CF911F910F9108952D
:10465000FA01AA27283051F1203181F1E8946F93B3
:104660006E7F6E5F7F4F8F4F9F4FAF4FB1E03ED059
:10467000B4E03CD0670F781F891F9A1FA11D680FF7
:10468000791F8A1F911DA11D6A0F711D811D911D2A
:10469000A11D20D009F468943F912AE0269F11249F
:1046A0003019305D3193DEF6CF010895462F477003
:1046B000405D4193B3E00FD0C9F7F6CF462F4F705E
:1046C000405D4A3318F0495D31FD4052419302D0BC
:1046D000A9F7EACFB4E0A695979587957795679562
:1046E000BA95C9F700976105710508959B01AC0162
:1046F0000A2E06945795479537952795BA95C9F789
:10470000620F731F841F951FA01D0895262FE19926
:10471000FECF9FBB8EBBE09A01970DB2021631F01F
:104720002DBB0FB6F894E29AE19A0FBE0895F89463
:02473000FFCFB9
:1047320001119908041A08035007101B0706FD0609
:10474200179B0701DF050535060F690602A806005B
:104752000000000000000000000000000000000057
:1047620000024064000204040404040600016576A9
:0647720036395F30300013
:020000021000EC
:04F800000E9419FE4B
:10F80600CF92DF92EF92FF92CF93DF93F894E19934
:10F81600FECFA0910001AC3031F09A0133956B0117
:10F826007C01B1E00CC023E0FB0180935B002093D8
:10F836006800E8952091680020FDFCCFEECFEA0134
:10F84600E8814E5F5F4F2196F881CF2FD0E0DC2F05
:10F85600CC27CE0FD11D0E01F601E0925B00B093CE
:10F866006800E8951124D2E0CD0ED11CE11CF11CF4
:10F876004217530721F7AC3059F425E0FB0180937A
:10F886005B0020936800E8958091680080FDFCCFBE
:10F8960081E180936800E895DF91CF91FF90EF902A
:10F8A600DF90CF900895FC01680F791F8FEF9FEFCF
:10F8B600E617F707C9F021918227282F22952827D6
:10F8C600022E269526952025022E26952025277080
:10F8D600082E892F269507942795902D8227069422
:10F8E600279590258227E4CF0895909101019111E3
:10F8F6000DC05E9902C05D9BFCCF5E9A8CB9B89A2A
:10F90600C09A089590919B0095FD04C090919B002C
:10F9160096FFF8CF90919B00906490939B00809304
:10F926009C0008959A0121503F4FDA01641B750B24
:10F93600FB01EA0FFB1FE4918D91E81739F081EF87
:10F9460090E00E9478FC8FEF9FEF0895A217B3070F
:10F9560079F780E090E0089580910101811110C04F
:10F966005E9902C05D9BFCCF8FEF8CB95E9A5E9963
:10F9760002C05D9BFCCF5E9AC0988CB18CB1089595
:10F9860080E0089590910101911104C05F9BFECF24
:10F996008CB1089580919B0087FFF6CF80919C00E3
:10F9A60008956F927F928F929F92AF92BF92CF925D
:10F9B600DF92EF92FF920F931F93CF93DF9303E0B3
:10F9C600FF24F39434E0E32E45E0D42E56E0C52E12
:10F9D60067E0B62E78E0A72EE9E09E2EFAE08F2E9D
:10F9E600ABE07A2EBCE06B2E109100011C3029F59D
:10F9F6000E94C5FC888367E071E082E091E00E9486
:10FA060056FC492F5527288130E04217530779F4D1
:10FA160099272197288130E08217930741F481E0E6
:10FA260090E020910801211185C080E083C080EF1D
:10FA36000E9478FC8FEF9FEF7DC01B3051F40E942F
:10FA4600C5FC9E012F5F3F4F888360920001E9014C
:10FA5600CBCF1A3089F40E94C5FC9E012F5F3F4F21
:10FA66008883293082E038071CF07092000102C0BA
:10FA760010930001A895EBCF193049F40E94C5FCFC
:10FA86009E012F5F3F4F888380920001E0CF1830A0
:10FA960049F40E94C5FC9E012F5F3F4F88839092D8
:10FAA6000001D5CF173049F40E94C5FC9E012F5F97
:10FAB6003F4F8883A0920001CACF163049F40E94B6
:10FAC600C5FC9E012F5F3F4F8883B0920001BFCFD8
:10FAD600153049F40E94C5FC9E012F5F3F4F888375
:10FAE600C0920001B4CF143049F40E94C5FC9E01B7
:10FAF6002F5F3F4F8883D0920001A9CF133071F456
:10FB06000E94C5FC9E012F5F3F4F8883803119F408
:10FB1600E09200019CCFF092000199CF0E94C5FCB3
:10FB260080930201853611F400930001A89523E025
:10FB360031E08DCFDF91CF911F910F91FF90EF9024
:10FB4600DF90CF90BF90AF909F908F907F906F90F7
:10FB56000895CF93DF931F92CDB7DEB797FDFFCF02
:10FB660080E00E9478FC80E00E9478FC80E00E94A1
:10FB760078FC80E00E9478FC80E00E9478FC80910E
:10FB860002010E9478FC809103010E9478FC80911A
:10FB960004010E9478FC809105010E9478FC809106
:10FBA60006010E9478FC809107010E9478FC66E0BD
:10FBB60070E082E091E00E9456FC809308019983F0
:10FBC6000E9478FC998190930901892F0E9478FC04
:10FBD6000E94AFFC0F90DF91CF910895262FE199F7
:10FBE600FECF9FBB8EBBE09A01970DB2021631F095
:10FBF6002DBB0FB6F894E29AE19A0FBE08950895C8
:10FC0600F89481E180936800E89561E08FEF9FE0CA
:10FC16000E94F1FDE0E0F0E00994E199FECF9FBB80
:10FC26008EBBE09A99278DB308950895112480E13B
:10FC36008EBF8FEF8DBF1FBE9EE088E10FB6F89492
:10FC4600A89581BD0FBE91BDE0E0F1E01192E115EE
:10FC560081E1F807D9F78FEF9FE00E9410FE8E3DF5
:10FC6600C1F480EE8BB988E18AB98EE08093950065
:10FC76008DE189B981E087BB88BB1092900085E64B
:10FC86008CB95E9902C05D9BFCCF5E9AC0988CB120
:10FC960019C08F3DA9F481E08093010180EE809325
:10FCA6009B0088E180939A008EE080939D0089E016
:10FCB600809399001092980085E680939C0002C07C
:10FCC6000E9403FE1ABA81E087BB14BA11BA12B8B1
:10FCD6001092640011E0109300010E94D4FCEC0124
:10FCE600C090040180910501D7FD1FC0D12CE12CE5
:10FCF600F12CFE2CED2CDC2CCC24C80ED11CE11CE6
:10FD0600F11CFE2CED2CDC2CCC2449E051E0C70183
:10FD1600B6010E9403FC49E051E0C701B6010E940A
:10FD260095FC97FF02C0CFEFDFEFCE010E94ACFD3E
:0CFD3600219711F40E9403FEA895CDCF88
:00000001FF
