:100000000C9419020C9438020C9438020C943802A7
:100010000C9438020C94810C0C94BA110C94CE11EF
:100020000C94C4110C9438020C9438020C94A61150
:100030000C9438020C9438020C948F110C943802F2
:100040000C9438020C9438020C94E9020C94BE0211
:100050000C9415030C94D8110C9438020C94B01124
:100060000C9438020C9438020C9466030C943802F9
:100070000C9438020C9438020C94910C0C943802B5
:100080000C94C10C0C94F9150C94380260136E1387
:1000900076137E1386138E139A1317141A141D14D5
:1000A00020142314261429142C144E168616BC165C
:1000B000F816851712189F180D1717171E171E17F9
:1000C0001E170D1717171E172E17D618D818DA185F
:1000D000DC182E17E0189A17A417AB17AB17AB173D
:1000E0009A17A417AB17BB17D618D818DA18DC184C
:1000F000BB17E0182718311838183818381827187F
:10010000311838184818D618D818DA18DC184818D2
:10011000E018B518BF18C618C618C618B518BF1805
:10012000C618DE18D618D818DA18DC18DE18E01849
:1001300000C0C101C30302C2C60607C705C5C40487
:10014000CC0C0DCD0FCFCE0E0ACACB0BC90908C8F7
:10015000D81819D91BDBDA1A1EDEDF1FDD1D1CDCE7
:1001600014D4D515D71716D6D21213D311D1D01057
:10017000F03031F133F3F23236F6F737F53534F447
:100180003CFCFD3DFF3F3EFEFA3A3BFB39F9F838B7
:1001900028E8E929EB2B2AEAEE2E2FEF2DEDEC2CA7
:1001A000E42425E527E7E62622E2E323E12120E017
:1001B000A06061A163A3A26266A6A767A56564A407
:1001C0006CACAD6DAF6F6EAEAA6A6BAB69A9A86877
:1001D00078B8B979BB7B7ABABE7E7FBF7DBDBC7C67
:1001E000B47475B577B7B67672B2B373B17170B0D7
:1001F00050909151935352929656579755959454C7
:100200009C5C5D9D5F9F9E5E5A9A9B5B9959589836
:10021000884849894B8B8A4A4E8E8F4F8D4D4C8C26
:100220004484854587474686824243834181804096
:1002300000C1814001C0804101C0804100C18140B6
:1002400001C0804100C1814000C1814001C08041A6
:1002500001C0804100C1814000C1814001C0804196
:1002600000C1814001C0804101C0804100C1814086
:1002700001C0804100C1814000C1814001C0804176
:1002800000C1814001C0804101C0804100C1814066
:1002900000C1814001C0804101C0804100C1814056
:1002A00001C0804100C1814000C1814001C0804146
:1002B00001C0804100C1814000C1814001C0804136
:1002C00000C1814001C0804101C0804100C1814026
:1002D00000C1814001C0804101C0804100C1814016
:1002E00001C0804100C1814000C1814001C0804106
:1002F00000C1814001C0804101C0804100C18140F6
:1003000001C0804100C1814000C1814001C08041E5
:1003100001C0804100C1814000C1814001C08041D5
:1003200000C1814001C0804101C0804100C18140C5
:100330006E616E00696E660000407A10F35A00A08C
:10034000724E18090010A5D4E80000E8764817009E
:1003500000E40B54020000CA9A3B000000E1F505DE
:10036000000080969800000040420F000000A08628
:1003700001000000102700000000E803000000005A
:100380006400000000000A000000000001000000FE
:1003900000002C76D888DC674F0823DFC1DFAE5918
:1003A000E1B1B796E5E3E453C63AE651997696E8AB
:1003B000E6C28426EB898C9B62ED407C6FFCEFBC2F
:1003C0009C9F40F2BAA56FA5F490055A2AF75C935A
:1003D0006B6CF9676DC11BFCE0E40D47FEF520E690
:1003E000B500D0ED902E0300943577050080841E73
:1003F000080000204E0A000000C80C333333330FCE
:10040000986E12831141EF8D2114893BE65516CF6A
:10041000FEE6DB18D1844B381BF77C1D901DA4BB76
:10042000E424203284725E228100C9F124ECA1E52B
:100430003D2711241FBEC0E0D0E1DEBFCDBF11E0DB
:10044000A0E0B1E0E2EFF3E400E00BBF02C00790F0
:100450000D92A634B107D9F725E0A6E4B1E001C0BA
:100460001D92AD32B207E1F70E94A61A0C94F72153
:100470000C940000DC01680F791F9FEF4FEFA61767
:10048000B70771F08D919827292F30E0F901E05DD1
:10049000FD4F94919427F901E05DFE4F4491EFCF19
:1004A000892F90E0942B08951092460181E00895E1
:1004B00091E0909346018093470181E00895209157
:1004C0004601222341F020914701FC012083109234
:1004D000460181E0089580E008959AB198649AB940
:1004E000882319F08AB1806902C08AB18F768AB9EF
:1004F000662329F08AB188628AB9C09A089555980E
:1005000008950F93CF93C22F9A01AB0184E0220F7D
:10051000331F441F551F8A95D1F760E070E489E1CD
:1005200091E00E94F11F8FEF820F89B9013021F015
:10053000023021F480E203C080E301C080E0C730D4
:1005400021F0C83019F4866001C084609091950054
:100550009860892B8093950060E080E00E946D0296
:10056000B89AC09881E0CF910F9108958CB981E03D
:1005700008952CB1FC01208381E008951F920F9211
:100580000FB60F9211240BB60F922F933F934F93F8
:100590005F936F937F938F939F93AF93BF93EF93EB
:1005A000FF93E091B002F091B1020995FF91EF91B4
:1005B000BF91AF919F918F917F916F915F914F917B
:1005C0003F912F910F900BBE0F900FBE0F901F9079
:1005D00018951F920F920FB60F9211240BB60F921F
:1005E0002F933F934F935F936F937F938F939F933B
:1005F000AF93BF93EF93FF93E091B402F091B502F4
:100600000995C098FF91EF91BF91AF919F918F9104
:100610007F916F915F914F913F912F910F900BBE02
:100620000F900FBE0F901F9018951F920F920FB64C
:100630000F921124C0980F900FBE0F901F90189525
:100640001092890010928800809148019091490190
:10065000892B69F080917D00806180937D0080917D
:100660004801909149019093870080938600809182
:100670008A00856080938A000895EAE8F0E080812E
:100680008A7F8083EDE7F0E080818F7E8083ECE7D6
:10069000F0E080818061808308959C01A0E5B6E44C
:1006A0000E94432020E23EE440E050E00E94F11F1F
:1006B000309349012093480110928B0010928A00D8
:1006C00010928C000E943D0381E008951F920F92CA
:1006D0000FB60F9211240BB60F922F933F934F93A7
:1006E0005F936F937F938F939F93AF93BF93EF939A
:1006F000FF93E091B202F091B3020995C098FF9187
:10070000EF91BF91AF919F918F917F916F915F9189
:100710004F913F912F910F900BBE0F900FBE0F90F6
:100720001F9018950F93862FBA01A901F8949AE0AB
:1007300090934A0127E00E948102813031F480E2E7
:100740009EE40E944D03813011F083E001C080E0FF
:1007500078940F910895F89460E081E00E946D0212
:1007600010925301789480E00C945802F89460E061
:1007700080E00E946D020E943D0378940895DC01A0
:10078000F8948091510190915201039718F12091B2
:10079000510130915201E0EBF1E020553E4F90E0E5
:1007A000E217F30719F08191980FFACF911112C057
:1007B0008091B0018C9380915101909152010297E8
:1007C000FA019183808381EB91E0FB019183808327
:1007D00080E001C085E078940895F89490915301E9
:1007E00091113BC0FB013197F0934F01E0934E0113
:1007F00021E030E030934D0120934C0180838091C3
:100800004C0190914D01480F591F50934D01409359
:100810004C0120914C0130914D0180E02150310973
:1008200018F09191890FFACF819520914C01309168
:100830004D01A9014F5F5F4F50934D0140934C0113
:10084000F901E055FE4F808381E08093540161E01F
:1008500080E00E946D0280E001C085E078940895F8
:10086000CF93DF931F92CDB7DEB7CE0101960E94E2
:10087000B90280915301813031F008F474C08230A4
:1008800009F453C07EC00E94200399819A3339F441
:1008900010925001109252011092510172C09D307D
:1008A00011F482E06CC080ED890F8A3040F08FEB4C
:1008B000890F863018F489EC890F01C08FEF909171
:1008C00050019923C1F0913009F05BC0E0915101D2
:1008D000F0915201E055FE4F9081892B80838091E9
:1008E00051019091520101969093520180935101D0
:1008F0001092500146C020915101309152012F3F7A
:10090000310509F068F4E0915101F0915201E05590
:10091000FE4F8295807F808381E08093500131C0BB
:10092000109253010E943D032CC0898190914A018D
:10093000891308C00E943D031092530181E00E9478
:10094000580220C08A3361F4109250011092520173
:100950001092510181E0809353010E94200311C045
:10096000109253010EC089818A3359F40E942003EA
:1009700010925201109251011092500181E0809327
:10098000530180E00F90DF91CF910895CF93809134
:100990005401823019F178F4882309F474C081304D
:1009A00009F075C08AE30E94B60282E08093540188
:1009B000109250016CC0833009F45DC0843009F09E
:1009C00066C01092540183E00E945802C82F60E074
:1009D00081E00E946D02109254015AC080914C0136
:1009E00090914D01892B09F441C0809150018823D9
:1009F00019F08130C9F04BC0E0914E01F0914F01E8
:100A0000808182958F708A3010F4805D07C096EFE8
:100A1000980F963010F4895C01C080E30E94B60202
:100A200081E08093500133C0E0914E01F0914F017D
:100A300080818F708A3010F4805D01C0895C0E94D3
:100A4000B60280914E0190914F01019690934F0113
:100A500080934E011092500180914C0190914D0174
:100A6000019790934D0180934C0111C08DE00E943D
:100A7000B60283E005C080914A010E94B60284E07C
:100A80008093540104C060E081E00E946D02C0E0E8
:100A90008C2FCF910895809153018150823010F4B2
:100AA000109253010E943D0380E008951F93CF935D
:100AB000DF93FC01EB0188819981059709F047C01C
:100AC00081819281438150E0542F44272481422B1D
:100AD0009A01215031092F3C3740C8F519821882FC
:100AE00021E02083288139812F5F3F4F398328837C
:100AF000BA0123E0769567952A95E1F79A01277068
:100B00003327232B19F011E0160F01C0162F118384
:100B1000288139812F5F3F4F39832883692F70E007
:100B2000782B6F5F7F4F20E0CF0102960E94160E58
:100B3000882329F0DF91CF911F910C94860888813A
:100B40009981810F911D9983888380E001C083E0A2
:100B5000DF91CF911F910895CF93DF9300D0CDB750
:100B6000DEB7FC01DB018D919C91059709F5918120
:100B70006281848181111CC083812FEF280F2E3F59
:100B8000B8F01A828F3F19F481E0898301C019827D
:100B900070E0792B6F5F7F4F21E041E050E0CE01A4
:100BA00001960E94160E882329F00E94860803C031
:100BB00083E001C080E00F900F90DF91CF91089506
:100BC000CF93DF93FC01DB018D919C91069798F107
:100BD00031812281438150E0542F44278481482B66
:100BE000A581EA01C770DD27CA01B3E09695879514
:100BF000BA95E1F7CD2B09F08F5FEA012197C03B51
:100C0000D740C8F48A1317C0EB01CF01622F70E000
:100C1000732B6F5F7F4F21E006960E94160E88238C
:100C200021F0DF91CF910C94860885E090E09983C4
:100C3000888380E001C083E0DF91CF9108951F9306
:100C4000CF93DF93FC01EB0188819981059709F02F
:100C500046C081819281438150E0542F44272481F2
:100C6000422B9A01215031092F3C3740C0F519829F
:100C7000188222E02083288139812F5F3F4F3983FA
:100C80002883BA0123E0769567952A95E1F79A01C2
:100C900027703327232B19F011E0160F01C0162FF0
:100CA0001183288139812F5F3F4F39832883692F32
:100CB00070E0782B6F5F7F4FCF0102960E94680E25
:100CC000882329F0DF91CF911F910C9486088881A9
:100CD0009981810F911D9983888380E001C083E011
:100CE000DF91CF911F910895FB0120813181253043
:100CF0003105A1F4FC01618170E0762F66278281C5
:100D0000682B6F5F7F4F21E041E050E0CF010396F9
:100D10000E94A70D882321F00C94860883E0089593
:100D200080E00895CF93DF93FC01DB018D919C91CE
:100D3000069748F131812281438150E0542F4427A6
:100D40008481482B9581DA011197A837B105D8F431
:100D5000842F880F981317C0EB01CF01622F70E02A
:100D6000732B6F5F7F4F21E006960E94A70D8823AB
:100D700021F0DF91CF910C94860885E090E0998373
:100D8000888380E001C083E0DF91CF9108950F93C5
:100D90001F93CF93DF93FC01DB018D919C9105970D
:100DA000D9F5818192812481022F10E0A801415060
:100DB00051094D37510580F5EB011982188233E056
:100DC0003083488159814F5F5F4F59834883220F99
:100DD0002183288139812F5F3F4F39832883692FF1
:100DE00070E0782B6F5F7F4F20E0A801CF01029663
:100DF0000E94A70D882331F0DF91CF911F910F91B1
:100E00000C948608000F111F88819981080F191F03
:100E10001983088380E001C083E0DF91CF911F91A7
:100E20000F910895CF92DF92EF92FF920F931F934D
:100E3000CF93DF93FC01DB018D919C910A9708F41D
:100E400059C0C180D280038110E0102F0027848117
:100E5000082B95818681378140852185D80111979E
:100E6000AD37B10508F048C050E0532BDA011197B7
:100E7000A937B10508F040C030E0DA01AA0FBB1F66
:100E8000A217B307C9F57B01EF01682F70E0792B3A
:100E90006F5F7F4F21E0CF010A960E94A70D81115D
:100EA0002DC0F7011182108287E1888380819181B2
:100EB000019691838083802F880F8983808191811F
:100EC0000196918380836D2D70E07C296F5F7F4F49
:100ED00020E0A801CE0102960E94A70D81110EC04C
:100EE000000F111FD7018D919C911197080F191FA9
:100EF0000D931C9380E00CC083E00AC0DF91CF917A
:100F00001F910F91FF90EF90DF90CF900C94860887
:100F1000DF91CF911F910F91FF90EF90DF90CF90D5
:100F200008950F931F93CF93DF93FC01DB018D9105
:100F30009C911197059709F043C081819281C381EB
:100F4000D0E0DC2FCC272481C22B9E012150310917
:100F50002C373105A8F58B0111961C921E9224E0C6
:100F600020832D913C9111972F5F3F4F11963C9319
:100F70002E932C2F220F21832D913C9111972F5FBF
:100F80003F4F2D933C93692F70E0782B6F5F7F4F1D
:100F9000AE01CF0102960E947D0D882331F0DF91D2
:100FA000CF911F910F910C948608CC0FDD1FF80193
:100FB00080819181C80FD91FD183C08380E001C097
:100FC00083E0DF91CF911F910F910895CF93DF932D
:100FD000E9012296C032D105E8F48093570182E0FE
:100FE00090E0909356018093550181E0611101C01A
:100FF00080E08195809358012115310569F0BA018F
:10100000A90189E591E00E943C21D0935601C0934B
:10101000550102C084E001C080E0DF91CF910895C6
:101020000F931F93CF93DF938B01C0915501D09104
:101030005601AE0167E571E001960E943C212196C0
:10104000F801D183C08380E0DF91CF911F910F9190
:1010500008950F931F93CF93DF9330E08B0153E0FC
:10106000169507955A95E1F767707727E1E0F0E06C
:1010700002C0EE0FFF1F4A95E2F73197EC01C00F57
:10108000D11F48810F5F1F4FDC01A00FB11F8C9152
:1010900050E0582B062E02C0EE0FFF1F0A94E2F715
:1010A000E095F0954E235F2302C0220F331F6A950F
:1010B000E2F7422B532B48835C93DF91CF911F9132
:1010C0000F910895FB0123E0F695E7952A95E1F746
:1010D000DC01AE0FBF1F2C9111968C9130E0382BA4
:1010E00053E0EE0FFF1F5A95E1F76E1B7F0B02C016
:1010F000369527956A95E2F781E090E002C0880F67
:10110000991F4A95E2F7019782230895883030F4B9
:10111000E82FF0E0EC5CFE4F8081089584E00895B4
:10112000CF92DF92EF92FF920F93862F69017A019F
:10113000F89428E0B701A6010E9481028130E9F409
:1011400081E0C8168BE4D806E104F10468F4A70135
:101150009601220F331F441F551F60EA7FE787E186
:1011600090E00E94F11F04C023E230E040E050E034
:10117000C9010E944D03813011F083E001C080E07D
:1011800078940F91FF90EF90DF90CF900895F894AE
:1011900010927D0160E081E00E946D020E942003B8
:1011A00078940895F89460E080E00E946D020E94B7
:1011B0003D0378940895EF92FF920F931F93CF937E
:1011C000DF93F89420917701309178012430310534
:1011D00010F485E01EC08A01EB017C01609177016B
:1011E0007091780180EB91E00E943A02892B89F797
:1011F0008091B001F701808380917701909178010F
:101200000397F8019183808381EB91E09983888330
:1012100080E07894DF91CF911F910F91FF90EF9034
:101220000895CF93F894C0917D01C13009F046C074
:10123000282FCB01019790937C0180937B0161E083
:1012400070E070937A0160937901FC012083209112
:10125000790130917A01420F531F50937A014093E4
:1012600079016091790170917A010E943A02492FC7
:101270002091790130917A01B9016F5F7F4F7093AE
:101280007A0160937901F901E055FE4F80838091E6
:10129000790190917A019C012F5F3F4F30937A0141
:1012A00020937901FC01E055FE4F4083C0937E01FD
:1012B00061E080E00E946D0280E001C085E07894EA
:1012C000CF910895CF93DF931F92CDB7DEB7CE01B4
:1012D00001960E94B90280917D01813031F0B8F110
:1012E0008230C9F0833099F134C0109278011092A5
:1012F000770180917701909178019C012F5F3F4F9A
:1013000030937801209377012981FC01E055FE4F4D
:10131000208382E01AC080917701909178018F3FFD
:10132000910509F088F480917701909178019C01F2
:101330002F5F3F4F30937801209377012981FC0183
:10134000E055FE4F208303C083E080937D010E941F
:10135000200380E00F90DF91CF910895CF9380918B
:101360007E01882319F0813031F030C060E081E0E7
:101370000E946D022BC08091790190917A01892B96
:10138000D1F0E0917B01F0917C0180810E94B60256
:1013900080917B0190917C01019690937C018093D8
:1013A0007B018091790190917A01019790937A0164
:1013B000809379010BC083E00E945802C82F60E03F
:1013C00081E00E946D0210927E0101C0C0E08C2F6E
:1013D000CF910895CF93DF931F92CDB7DEB7809161
:1013E0007D01882321F0823031F481E001C080E06A
:1013F0000E94580201C080E089830E943D0391E071
:1014000090937D0189810F90DF91CF910895EF92A4
:101410000F931F93CF93DF93D82F962F642F8FEFC7
:10142000890F873F08F07AC0A9019801892F90930E
:101430009101DD23A9F1D13009F070C0EBEAF3E0AE
:10144000F0938D01E0938C01E6EBF3E0F0938B01D8
:10145000E0938A01EDEEF3E0F0938F01E0938E01CB
:10146000EFEBF3E0F0938901E0938801109287019C
:1014700010928601E0E3F4E0F093B502E093B40249
:10148000E6ECF4E0F093B102E093B002EBE4F5E0B7
:10149000F093B302E093B2020E2D0E94920331C08A
:1014A000E7ECF8E0F0938D01E0938C01E2EDF8E0D9
:1014B000F0938B01E0938A01E1E1F9E0F0938F0171
:1014C000E0938E01EBEDF8E0F0938901E093880161
:1014D0001092870110928601E2E6F9E0F093B502DE
:1014E000E093B402EEEAF9E0F093B102E093B002C7
:1014F000EAEEF9E0F093B302E093B2020E2D0E94FF
:101500009008C82F81110DC00E945402882341F019
:10151000D093900181E08093310103C0C2E001C00B
:10152000C3E08C2FDF91CF911F910F91EF90089521
:1015300018160CF03DC0F894E1E0F1E020E030E056
:101540006115710521F1418152814115510571F4F7
:10155000F901EE0FFF1FE20FF31FEF5FFE4F8083D5
:10156000728361832031310501F509C046175707A1
:1015700079F32F5F3F4F33962031310521F784E017
:1015800015C02F5F3F4F33962031310571F09081A8
:101590009813F7CFF901EE0FFF1F2E0F3F1FF90130
:1015A000EF5FFE4F10821282118280E078940895DE
:1015B00082E0089580913101813041F4E09186010B
:1015C000F0918701309721F0099502C086E00895D7
:1015D00080E0089580913101813049F4E0918C01DF
:1015E000F0918D0109951092310180E0089586E017
:1015F000089580913101811109C0E0918A01F09133
:101600008B01099581E08093310104C0813011F094
:1016100086E0089580E00895CF93DF931F92CDB7C1
:10162000DEB780913101811189C0CE0101960E94FF
:101630005F02813009F084C09981913089F0923045
:1016400009F07EC0A0918301B09184019C91909398
:10165000800180937F01E1E0F1E020E030E01FC0F5
:10166000E0918801F091890141E851E063E871E07F
:1016700085E891E00995811163C080918501909181
:101680009101891711F081115BC082E00E9458021C
:1016900057C02F5F3F4F339620313105B1F0808125
:1016A000882399F08913F5CFF901EE0FFF1F2E0F54
:1016B0003F1FF901EF5FFE4F0180F281E02D61E8ED
:1016C00071E0CD01099580937F0180918501882388
:1016D000B9F120917F01222309F1E0918301F0917A
:1016E000840181E090E09093820180938101809158
:1016F00080018068808340918301509184018091B2
:10170000810190918201BC016F5F7F4F70938201D4
:1017100060938101FA01E80FF91F20834091810154
:10172000509182016091830170918401E0918E015A
:10173000F0918F0180919101099502C086E001C06E
:1017400080E00F90DF91CF910895F8942091AC0143
:101750003091AD017894E62FF0E0EE0FFF1FEE0F11
:10176000FF1FE454FD4F009761F0318320838D3BD0
:101770002FE7920714F08CEB9FE701979383828306
:1017800010C082819381009771F040815181241BA8
:10179000350B821793072CF41382128281E090E0BC
:1017A000089580E090E008954F925F926F927F924B
:1017B0008F929F92AF92BF92CF92DF92EF92FF9261
:1017C0000F931F93CF93DF9300D000D0CDB7DEB738
:1017D000E982FA820B831C830E94DF1A2B013C01F1
:1017E00020E030E0A9010E94C61B18166CF420E02E
:1017F00030E040E85FE3F401608171818281938190
:101800000E944C1B87FD16C020E030E0A901C301F7
:10181000B2010E944C1B87FF21C020E030E040E86D
:101820005FEBF40160817181828193810E94C61B0C
:101830001816A4F4A3019201C601B5010E94CB1BA6
:101840009B01AC01F40160817181828193810E94CE
:10185000E01AF4016083718382839383A301920170
:1018600069817A818B819C810E94CB1BF40120814C
:101870003181428153810E94E01A6B017C0120E09A
:1018800030E040E85FE30E94C61B18168CF020E0B1
:1018900030E040E85FEBC701B6010E944C1B87FFB8
:1018A0000DC0C12CD12C90E8E92E9FEBF92E06C07B
:1018B000C12CD12C80E8E82E8FE3F82EC701B601A9
:1018C0000F900F900F900F90DF91CF911F910F917C
:1018D000FF90EF90DF90CF90BF90AF909F908F9050
:1018E0007F906F905F904F900895880F991F880F99
:1018F000991FFB01E80FF91F6591759185919491EE
:1019000008951F920F920FB60F9211248F93C09AD1
:1019100082E080933D038F910F900FBE0F901F9038
:1019200018951F920F920FB60F9211240BB60F92BB
:101930008F939F93EF93FF9380919B0090919C00D6
:101940008C71A1F480919401E82FF0E0E350FD4FF9
:1019500090838F5F803419F08093940102C01092BD
:101960009401809193018F5F80939301FF91EF9198
:101970009F918F910F900BBE0F900FBE0F901F90F5
:1019800018951F920F920FB60F9211240BB60F925B
:101990008F93EF93FF93809196018823B1F081504C
:1019A00080939601E0919801F0E0E25CFC4F808129
:1019B00080939C00809198018F5F803419F0809310
:1019C000980108C01092980105C080919A008F7B01
:1019D00080939A00FF91EF918F910F900BBE0F9023
:1019E0000FBE0F901F901895809193018823C1F02E
:1019F000F894809193018150809393019091950187
:101A0000E92FF0E0E350FD4F80819F5F903419F0A3
:101A10009093950102C010929501789490E00895FA
:101A20008FEF9FEF089590919601911104C09091CE
:101A30009B0095FD18C0F89490919701E92FF0E074
:101A4000E25CFC4F808381E0890F803419F0809341
:101A5000970102C010929701809196018F5F809349
:101A600096017894089580939C0080919A008064F8
:101A700080939A00089580913D03882331F081502E
:101A800080933D03811101C0C09808951F93CF93A7
:101A9000DF93162FEC018991882321F0612F0E949A
:101AA000130DF9CFDF91CF911F910895FB01EE0F38
:101AB000FF1FE154FC4F918380830895FB01EE0FDB
:101AC000FF1FE150FC4F918380830895880F991F79
:101AD000FC01E150FC4F808191810895FB01E158A8
:101AE000FC4F8083089581589C4FFC0180810895AC
:101AF000FB01E156FC4F80830895CF93DF9361157E
:101B0000710509F19B01240F351F22323105D8F4EC
:101B1000440F551F660F771F20E030E0241735076C
:101B200081F0F901E60FF71FE354FC4FA181EC01AE
:101B3000A8830296DC011197E081EC932E5F3F4F62
:101B4000EDCF80E001C081E0DF91CF910895FF9259
:101B50000F931F93CF93DF93FC016F3F710581F4C7
:101B60004130510589F4C081CE3D71F4213061F4DA
:101B70006EED8FEF9FE00E94E621C09399014FC068
:101B80006115710509F449C0CB01840F951F829737
:101B900008F043C0222361F0213009F040C0440F17
:101BA000551F660F771F80E090E00AEFF02E19C0F6
:101BB000440F551F660F771F80E090E0841795074C
:101BC00071F1DC01A60FB71FA350BC4F11962C91E9
:101BD000119720833296EF0121972C91288302964A
:101BE000EDCF84179507D9F0208130E0322F2227DE
:101BF000DC01A60FB71FA350BC4F11963C932E9348
:101C000032968F0101501109E8011881212B2D9383
:101C10003C93F0927E030296E4CF81E001C080E025
:101C2000DF91CF911F910F91FF900895BF92CF92B6
:101C3000DF92EF92FF920F931F93CF93DF93611583
:101C40007105C9F1FB01E40FF51FB297A0F58A01F8
:101C5000EB016C01222339F0213079F5E12CF12CD4
:101C60008AEFB82E14C0E12CF12CE016F10629F110
:101C7000F701EC0FFD1FE258FC4F208141E0B70156
:101C8000C6010E9429088FEFE81AF80AEECFE01685
:101C9000F10699F041E0B701C6010E946208F70120
:101CA000EC0FFD1FE258FC4F8083B0927E038FEF54
:101CB000E81AF80AECCF81E001C080E0DF91CF9113
:101CC0001F910F91FF90EF90DF90CF90BF900895FC
:101CD000CF92DF92EF92FF920F931F93CF93DF93F8
:101CE00061157105E9F09B01240F351F2232310582
:101CF000B8F46A017B018C01C0E0D0E0CC15DD05B1
:101D000069F0FE01EE0DFF1DE256FC4F208141E01F
:101D1000BE01C8010E9429082196F0CF80E001C0D1
:101D200081E0DF91CF911F910F91FF90EF90DF90B5
:101D3000CF900895EF920F931F93CF93DF93CDB77A
:101D4000DEB728970FB6F894DEBF0FBECDBF88E090
:101D5000EEE3F1E0DE01119601900D928A95E1F734
:101D6000E12C00E016E920E030E041E06BE080E0AB
:101D70000E94070A24E130E0AE014F5F5F4F61E04F
:101D800080E60E94E60778940E94EA0A28960FB639
:101D9000F894DEBF0FBECDBFDF91CF911F910F91A1
:101DA000EF9008959091D70494FB882780F9809351
:101DB000AF038091D804282F21702093B00392FBA9
:101DC000222720F92093B10391709093B20386FBF0
:101DD000992790F99093B30387FB992790F99093F3
:101DE000B40385FB992790F99093B50383FB88276B
:101DF00080F98093B6039091BD0380919D03981361
:101E000004C080919203882319F08AEF80937E03A7
:101E100080917E03813019F41092910302C08823CF
:101E200019F1815080937E038091D70490919003A3
:101E300090FB83F990918F0390FB87F99091910328
:101E400090FB81F98093D70480911F049091200426
:101E50009093DC048093DB04809121049091220410
:101E60009093EA048093E9048091D9049091DA0474
:101E70009093E0038093DF038091E7049091E8045E
:101E80009093E2038093E1038091DD049091DE045E
:101E90009093E4038093E3038091E3049091E4043E
:101EA0009093E6038093E5038091E1049091E2042E
:101EB0009093E8038093E7038091EB049091EC0406
:101EC0009093EA038093E9038091FB049091FC04D2
:101ED0009093EC038093EB038091F80490E090934F
:101EE000EE038093ED03809199018E3D09F4FFCFBD
:101EF00008950895FC0140E08FEF9FEF70E062507D
:101F00007109242F30E026173707A4F4DF01A20F50
:101F1000B31F2C91822728E0382F31709695879532
:101F2000332321F031E0832730EA93272150A1F7B2
:101F30004F5FE7CF08956CE080E794E00E947A0F4E
:101F400021E040917A0450917B048417950709F0B1
:101F500020E0822F089590919C019923F1F0E09167
:101F60009D01EC3040F081E080939B0110929D0137
:101F700010929C01089591E09E0F90939D01F0E0D6
:101F8000E059FB4F81839C30A1F410929D01109287
:101F90009C0181E080939A010895853551F481E098
:101FA00080939C0110929D0110929B0180E480938C
:101FB0003201089585E5809370040E949B0F882369
:101FC00009F482C080919B0181117EC010926F0440
:101FD0008091D704209171048F7B20FB80F922FB34
:101FE000332730F99091D80430FB90F923FB332745
:101FF00030F930FB91F924FB332730F930FB92F9AB
:1020000025FB332730F930FB93F99093D80421FB5B
:10201000992790F990FB84F981FB332730F99323BA
:10202000382F3095932390FB85F98093D70484FD56
:1020300004C0247281E0243009F080E09091D7043C
:1020400080FB92F99093D70420917204309173042D
:102050004AE0429FC001439F900D11249093DA04FF
:102060008093D9048091780490917904A0E0B0E045
:102070008093DD049093DE04A093DF04B093E0042A
:1020800080917404909175049093E2048093E1042C
:102090009093E4048093E304809176049091770414
:1020A0009093E8048093E7041092FC041092FB04E0
:1020B0001092FE041092FD04109200051092FF048D
:1020C0001092F8041092ED0408951F93CF93DF93BC
:1020D00085E5809370043091D70431FB882780F91F
:1020E0002091710480FB20F933FB882780F980FB65
:1020F00023F98091DB049091DC046AE070E00E9497
:10210000DD1F709373046093720437FB332730F93B
:1021100030FB21F930FB24F92F7B2093710466E01A
:1021200080E794E00E947A0F909375048093740482
:10213000C0E7D4E01C2F1A5F61E089910E94130D63
:102140001C13FACF61E08FEF0E94130D61E08FEF57
:102150000E94130D61E08FEFDF91CF911F910C94DE
:10216000130D80916F048F5F80936F048F738F3393
:1021700019F481E080939E010E94F40C97FD0EC03B
:102180008B31910531F420919F012F5F20939F01A6
:1021900002C010929F010E94AB0FEECF80919F0171
:1021A000803231F46FED8FEF9FE00E94E621FFCF88
:1021B00080919A01882341F081E080939E011092E2
:1021C0009A010E94DA0F17C080916F04893C98F041
:1021D0008091D80483FD0FC08091D70486FD0BC089
:1021E00080648093D70487EE93E09093FC048093FF
:1021F000FB040E9463118091D80483FF07C01092F2
:102200006F048091D7048F7B8093D70480919E01C7
:10221000882341F080919C01811104C010929E019D
:102220000C94651008951092C3041092BF0410928C
:10223000C0041092D4048AB782608ABF89B78061D3
:1022400089BF0895F8948091D5049091D604909315
:10225000C0038093BF0378948091A101811105C0D0
:102260000E94131181E08093A10108958091C00420
:102270008823B9F09091C304E92FF0E0EC53FB4FB1
:1022800080819F5F903119F09093C30402C0109237
:10229000C304F8949091C00491509093C004789432
:1022A000089580E0089508950895E7EDF4E08081B1
:1022B0008260816080830895E7EDF4E080818E7F05
:1022C0008D7F808308950E945C1188E080930505CE
:1022D000E7EDF4E08081806180830895E7EDF4E02C
:1022E00080818B7F877F808308950E946E118FEF9E
:1022F00080930505E7EDF4E0808180618083089597
:10230000E7EDF4E080818860846080830895E7EDE4
:10231000F4E080818E7E80688083089508951F9206
:102320000F920FB60F9211248F939F938091AC015F
:102330009091AD0101969093AD018093AC019F9176
:102340008F910F900FBE0F901F9018951F920F92B4
:102350000FB60F9211240F900FBE0F901F9018957B
:102360001F920F920FB60F9211240F900FBE0F9075
:102370001F9018951F920F920FB60F9211240F9075
:102380000FBE0F901F9018951F920F920FB60F92CD
:1023900011240F900FBE0F901F9018951F920F924F
:1023A0000FB60F9211240F900FBE0F901F9018952B
:1023B0001F920F920FB60F9211242F933F938F937A
:1023C0009F9324B135B18091060590910705280FA0
:1023D000391F309307052093060580910805803248
:1023E00038F03093C8032093C7031092080503C048
:1023F0008F5F809308059F918F913F912F910F9050
:102400000FBE0F901F901895949A8C9AE2E6F0E018
:10241000808184608083E1E6F0E080818460808355
:10242000969A8E9A979A8F9AC79ABF9AC69ABE9A88
:10243000A5E6B0E08C9181608C93E4E6F0E08081C9
:10244000816080838C9182608C93808182608083A4
:102450000895CF93C8E18FE00FB6F894A895C1BD59
:102460000FBE81BDA8950E94041289E483BF2FEF9F
:102470003FEF3BBD2ABD93E09FBD99E99EBD94E22D
:1024800097BF85BD8CE488B980E189BF1ABE89B742
:10249000806289BF8AB784608ABF89B7806889BF34
:1024A0008AB780648ABF89B7806489BF8AB7806130
:1024B0008ABF80E487B98FEF86B988E980939A0054
:1024C0008EE080939D001092980097E7909399007A
:1024D000CAB9809395001092900089E089B9CF9194
:1024E00008958F929F92AF92BF92CF92DF92EF9218
:1024F000FF920F931F93CF93DF93CA9907C08091E8
:102500000905843018F48F5F80930905CA9B07C0C2
:1025100080910905882319F0815080930905C99994
:1025200007C080910A05843018F48F5F80930A05F4
:10253000C99B07C080910A05882319F081508093B8
:102540000A05C89907C080910B05843018F48F5F85
:1025500080930B05C89B07C080910B05882319F059
:10256000815080930B05079907C080910C0584303A
:1025700018F48F5F80930C05079B07C080910C05B2
:10258000882319F0815080930C05069907C080912B
:102590000D05843018F48F5F80930D05069B07C0EE
:1025A00080910D05882319F0815080930D050599C0
:1025B00007C080910E05843018F48F5F80930E055C
:1025C000059B07C080910E05882319F081508093E8
:1025D0000E05049907C080910F05843018F48F5FB1
:1025E00080930F05049B07C080910F05882319F085
:1025F000815080930F05039907C0809110058430A6
:1026000018F48F5F80931005039B07C0809110051D
:10261000882319F081508093100509E015E06FE9D7
:1026200073E0CFE7D3E040E050E0EE24E394F12CF8
:10263000E42FD8019D918D0181E0933008F480E072
:10264000DB018D93BD0189912091AA013091AB01ED
:10265000D701042E02C0AA0FBB1F0A94E2F7A82ECE
:10266000B12C4D0182229322CC24C394D12C181476
:10267000190414F0C12CD12CAC14BD0409F467C0AA
:10268000882319F02A2B3B2B04C0A095B0952A2350
:102690003B233093AB012093AA018E2F90E0FC01E5
:1026A0003197E730F10520F4EA5BFF4F0C943220BC
:1026B00080917F03811102C0949A49C0949847C0C9
:1026C00080918003811104C080916200846003C006
:1026D000809162008B7F8093620039C0809181037A
:1026E000811102C0969A33C0969831C080918203BE
:1026F000811102C0979A2BC0979829C080918303BB
:10270000811102C0C79A23C0C79821C08091840359
:10271000811102C0C69A1BC0C69819C0809185035A
:10272000811104C08091650081600FC080916500B7
:102730008E7F0BC080918603811104C0809165005B
:10274000826003C0809165008D7F809365008091D9
:102750000704909108042091A2013091A3018217EF
:10276000930759F09093A3018093A201909379006D
:10277000809378008FB58C608FBD80910904909113
:102780000A042091A4013091A5018217930749F012
:102790009093A5018093A40199BD88BD8FB58063F6
:1027A0008FBD80910B0490910C042091A601309173
:1027B000A7018217930741F09093A7018093A60188
:1027C00083BD85B5806385BD80910D0490910E0415
:1027D0002091A8013091A9018217930751F090939D
:1027E000A9018093A80181BFBC9ABE9883B780637A
:1027F00083BF4F5F5F4F4830510509F019CFDF911C
:10280000CF911F910F91FF90EF90DF90CF90BF90ED
:10281000AF909F908F90089590E08830910510F5CB
:10282000FC01E35BFF4F81E090E00C9432202091AB
:10283000090514C020910A0511C020910B050EC096
:1028400020910C050BC020910D0508C020910E05AC
:1028500005C020910F0502C020911005233020F4FF
:1028600080E0089580E090E00895653009F44BC061
:1028700068F4623089F128F46623E1F0613001F1F7
:102880000895633079F1643099F108956C3609F454
:102890005BC038F4663009F441C0673009F448C0C1
:1028A00008956E3609F45DC008F455C06F3609F41A
:1028B0005DC00895892B11F4949A08959498089511
:1028C000892B21F480916200846003C080916200B2
:1028D0008B7F809362000895892B11F4969A089556
:1028E00096980895892B11F4979A089597980895CA
:1028F000892B11F4C79A01C0C7988FB58B7F8FBD04
:1029000085B58F7E31C0892B11F4C69A01C0C69857
:102910008FB58F7E8FBD83B78F7E2DC0892B21F41D
:102920008091650081600DC0809165008E7F09C037
:10293000892B21F480916500826003C0809165003D
:102940008D7F80936500089590937900809378003F
:102950008FB58C6004C099BD88BD8FB580638FBD75
:10296000089583BD85B5806385BD089581BFBC9AF8
:10297000BE9883B7806383BF08950895089508952E
:102980009B01A0E0B0E0BC01CD014FE0660F771FD6
:10299000881F991F4A95D1F740E050E00E9413200C
:1029A000211580E838074105510524F02FEF3FE756
:1029B00040E050E0C9010895CF92DF92EF92FF927C
:1029C0000F931F93893B2EEF92070CF16B01072E9B
:1029D000000CEE08FF089C01DB010E943B208B01EC
:1029E0009C018FE035952795179507958A95D1F726
:1029F00037FD08C0C016D106E206F30634F497018D
:102A0000860103C000E010E09801C80101C0CA01BE
:102A10001F910F91FF90EF90DF90CF9008950F934B
:102A20001F93CF93DF9380918E038111BDC060EA25
:102A30007FE08091D9049091DA040E94C0149093B1
:102A400000048093FF0360E273E08091E7049091BB
:102A5000E8040E94C014909302048093010468EE7D
:102A600073E08091E3049091E4040E94C014909379
:102A700004048093030462EE74E08091DD0490917D
:102A8000DE040E94C0149093060480930504809194
:102A9000D70482FB992790F990937F03982F917028
:102AA0009093800384FB992790F99093810384FF8E
:102AB00036C08091FB049091FC048830910521F48C
:102AC00081E0809382031EC08730910521F481E06C
:102AD0008093830317C09C01245131092E313105A5
:102AE00020F481E0809386030DC08A30910521F4A3
:102AF00081E08093850306C0873E934019F081E012
:102B0000809384038091D80482FF03C091E0909366
:102B1000850381FF0EC081E0809386030AC0109276
:102B20008203109283031092860310928503109201
:102B3000840380917E03811137C08091D7049091E6
:102B40009F0390FB83F99091A10390FB87F99091EB
:102B5000A00390FB81F98093D70440E050E060EA45
:102B60007FE08091BF039091C0030E94DC14EC01D0
:102B70000091C1031091C20340E050E060EA7FE0A1
:102B8000C8010E94DC148C0F9D1F9093DC0480937D
:102B9000DB0440E253E060E273E0C8010E94DC1411
:102BA0009093EA048093E904DF91CF911F910F91F4
:102BB000089510927100109273001092720080E1DB
:102BC0008093700080917100811102C085E90EC070
:102BD0008091190591E0980F90931905811103C018
:102BE0001092740008951092190585EA809374007C
:102BF00008951F920F920FB60F9211240BB60F92E9
:102C00002F938F939F93AF93BF93EF93FF93E09195
:102C10001A058E2F90E0FC01319780911905E7305D
:102C2000F10520F4EB5AFF4F0C94322090912505CA
:102C3000209126058F5F809319058230A9F018F442
:102C4000813031F01EC08330C1F08430B1F019C042
:102C5000809171008830A9F080917100803189F0F5
:102C60008FEF809319050DC080917100883149F074
:102C7000809171008034A1F704C080917100883286
:102C800079F780911905823009F4ACC0833009F4DA
:102C9000ACC0813009F0EEC288E9E6C29091270508
:102CA000209128058F5F809319058230A9F018F4D0
:102CB000813031F01EC08330C1F08430B1F019C0D2
:102CC000809171008830A9F080917100803189F085
:102CD0008FEF809319050DC080917100883149F004
:102CE000809171008034A1F704C080917100883216
:102CF00079F780911905823009F474C0833009F4A2
:102D000074C0813009F0B6C28AE9AEC2909129053B
:102D100020912A058F5F809319058230A9F018F45D
:102D2000813031F01EC08330C1F08430B1F019C061
:102D3000809171008830A9F080917100803189F014
:102D40008FEF809319050DC080917100883149F093
:102D5000809171008034A1F704C0809171008832A5
:102D600079F7809119058230E9F18330F1F18130F2
:102D700009F080C280EC78C290912B0520912C053F
:102D80008F5F809319058230A9F018F4813031F0FB
:102D90001EC08330C1F08430B1F019C08091710041
:102DA0008830A9F080917100803189F08FEF809395
:102DB00019050DC080917100883149F08091710032
:102DC0008034A1F704C080917100883279F7809136
:102DD0001905823039F0833041F0813009F04AC260
:102DE00082EC42C22093730041C2909373003EC2B2
:102DF000909133019923A1F1E1E0E80FE0931905E7
:102E00008E2F90E0FC013197E830F105C8F4E45AC8
:102E1000FF4F809171000C943220883089F08091AE
:102E20007100803169F08FEF8093190509C08831F6
:102E300039F0809171008034B1F702C0883299F77F
:102E4000E09119058E2F90E0FC013197E730F105F4
:102E500008F010C2EC59FF4F0C94322080E904C2F4
:102E60008F5F809319058230A9F018F4813031F01A
:102E70003BC08330C1F0843021F136C080917100B5
:102E80008830B1F180917100803191F18FEF8093A2
:102E900019052EC080917100883151F18091710027
:102EA0008034A1F725C080917100803519F08FEF33
:102EB000809319058091730010921D0580931E0563
:102EC00017C080917100803519F08FEF809319053C
:102ED0002091730080911D0590911E05822B909387
:102EE0001E0580931D0504C010921E0510921D053D
:102EF00080911905823009F4BBC1833009F4B8C14F
:102F0000813009F0B7C181E9AFC1909133019923B4
:102F1000A1F1E1E0E80FE09319058E2F90E0FC01AC
:102F20003197E830F105C8F4E559FF4F8091710001
:102F30000C943220883089F080917100803169F0E2
:102F40008FEF8093190509C0883139F080917100A5
:102F50008034B1F702C0883299F7E09119058E2FBD
:102F600090E0FC013197E730F10508F083C1ED589E
:102F7000FF4F0C94322082E977C18F5F809319054F
:102F80008230A9F018F4813031F03BC08330C1F0B9
:102F9000843021F136C0809171008830B1F1809188
:102FA0007100803191F18FEF809319052EC08091CF
:102FB0007100883151F1809171008034A1F725C0F2
:102FC00080917100803519F08FEF80931905809101
:102FD000730010921F058093200517C08091710027
:102FE000803519F08FEF809319052091730080913F
:102FF0001F0590912005822B9093200580931F053B
:1030000004C01092200510921F058091190582308E
:1030100009F42EC1833009F42BC1813009F02AC193
:1030200083E922C1909133019923A1F1E1E0E80FF6
:10303000E09319058E2F90E0FC013197E830F105FF
:10304000C8F4E658FF4F809171000C94322088300C
:1030500089F080917100803169F08FEF80931905BC
:1030600009C0883139F0809171008034B1F702C015
:10307000883299F7E09119058E2F90E0FC01319785
:10308000E730F10508F0F6C0EE57FF4F0C94322000
:1030900084E9EAC08F5F809319058230A9F018F4A3
:1030A000813031F03BC08330C1F0843021F136C033
:1030B000809171008830B1F180917100803191F17F
:1030C0008FEF809319052EC080917100883151F1E6
:1030D000809171008034A1F725C080917100803506
:1030E00019F08FEF809319058091730010922105DC
:1030F0008093220517C080917100803519F08FEF01
:1031000080931905209173008091210590912205EB
:10311000822B909322058093210504C010922205F2
:103120001092210580911905823009F4A1C08330E5
:1031300009F49EC0813009F09DC085E995C0909149
:103140003301992309F43FC0E1E0E80FE09319054A
:103150008E2F90E0FC013197E830F105C8F4E75775
:10316000FF4F809171000C943220883089F080915B
:103170007100803169F08FEF8093190509C08831A3
:1031800039F0809171008034B1F702C0883299F72C
:10319000E09119058E2F90E0FC013197E730F105A1
:1031A00008F068C0EF56FF4F0C94322081E05CC0FD
:1031B00084E85AC080EA58C085EA5DC086E954C0F8
:1031C0001092730053C08F5F809319058230A9F06D
:1031D00018F4813031F03BC08330C1F0843021F1EC
:1031E00036C0809171008830B1F1809171008031DA
:1031F00091F18FEF809319052EC080917100883175
:1032000051F1809171008034A1F725C08091710047
:10321000803519F08FEF809319058091730010921B
:1032200023058093240517C080917100803519F023
:103230008FEF809319052091730080912305909161
:103240002405822B909324058093230504C01092BB
:1032500024051092230580911905823049F08330AE
:1032600039F0813039F487E98093730085E803C031
:1032700085EC01C085E980937400FF91EF91BF91C7
:10328000AF919F918F912F910F900BBE0F900FBE1A
:103290000F901F9018958091330140911A05882353
:1032A00021F0815080933301C4C04530C9F118F436
:1032B000443041F0BEC0463009F460C0473009F4E4
:1032C0008BC0B7C0A0911D05B0911E05A352B74198
:1032D00021EF38E50E945220DC01CB016EE0B5956C
:1032E000A795979587956A95D1F7811520E892075C
:1032F000A105B10564F4811520E892072FEFA2071C
:10330000B2074CF480E090E8AFEFBFEF04C08FEF5E
:103310009FE7A0E0B0E09093C0038093BF0389C013
:10332000A0911F05B0912005A352B74121EF38E5C8
:103330000E945220DC01CB015EE0B595A7959795E0
:1033400087955A95D1F7811520E89207A105B10517
:1033500064F4811520E892072FEFA207B2074CF41E
:1033600080E090E8AFEFBFEF04C08FEF9FE7A0E0F1
:10337000B0E09093C2038093C1035BC0A09121058C
:10338000B0912205A352B74121EF38E50E945220A7
:10339000DC01CB013EE0B595A795979587953A95C9
:1033A000D1F7811520E89207A105B10564F48115D4
:1033B00020E892072FEFA207B2074CF480E090E8D4
:1033C000AFEFBFEF04C08FEF9FE7A0E0B0E09093B6
:1033D000C4038093C3032DC0A0912305B09124059D
:1033E000A352B74121EF38E50E945220DC01CB0106
:1033F0002EE0B595A795979587952A95D1F78115D4
:1034000020E89207A105B10564F4811520E8920730
:103410002FEFA207B2074CF480E090E8AFEFBFEFC8
:1034200004C08FEF9FE7A0E0B0E09093C6038093C5
:10343000C5034F5F463018F440931A0502C010923E
:103440001A0580911A05813031F138F0823009F483
:1034500040C0833009F45BC077C0A091FF03B091F6
:1034600000042AE23FE10E945220C196811520E12A
:10347000920714F08FEF9FE0909326058093250527
:10348000809125059091260597FF5EC01092260534
:103490001092250559C0A0910104B09102042EE0BC
:1034A0003FE10E945220C196811520E1920714F05D
:1034B0008FEF9FE090932805809327058091270543
:1034C0009091280597FF40C010922805109227057B
:1034D0003BC0A0910304B091040427E23FE10E94A5
:1034E0005220C796811520E1920714F08FEF9FE0DC
:1034F00090932A05809329058091290590912A05AA
:1035000097FF22C010922A05109229051DC0A09194
:103510000504B091060427E23FE10E945220C796BD
:10352000811520E1920714F08FEF9FE090932C0516
:1035300080932B0580912B0590912C0597FF04C05B
:1035400010922C0510922B050C94D9150E9429126B
:103550000E949A0E78948CB59DB520911B053091F0
:103560001C05AC01421B530B9A012115304244F05B
:1035700090931C0580931B050E944B190E947112A9
:103580002091AC013091AD018091BA029091BB02C3
:103590002817390791F08091AC019091AD0190937B
:1035A000BB028093BA020E943B0D0E94D20E0E9481
:1035B0000F150E94B1100E940C0BA895CBCF50584C
:1035C000BB27AA270E94F71A0C948C1B0E947E1B13
:1035D00038F00E94851B20F039F49F3F19F426F43F
:1035E0000C947B1B0EF4E095E7FB0C94751BE92F04
:1035F0000E949D1B58F3BA1762077307840795074B
:1036000020F079F4A6F50C94BF1B0EF4E0950B2E78
:10361000BA2FA02D0B01B90190010C01CA01A00124
:103620001124FF27591B99F0593F50F4503E68F17F
:103630001A16F040A22F232F342F4427585FF3CFC0
:10364000469537952795A795F0405395C9F77EF491
:103650001F16BA0B620B730B840BBAF09150A1F0DA
:10366000FF0FBB1F661F771F881FC2F70EC0BA0F60
:10367000621F731F841F48F4879577956795B795E8
:10368000F7959E3F08F0B0CF9395880F08F09927E3
:10369000EE0F9795879508950E94511B08F481E0DD
:1036A0000895990F0008550FAA0BE0E8FEEF1616D3
:1036B0001706E807F907C0F012161306E407F50726
:1036C00098F0621B730B840B950B39F40A2661F09A
:1036D000232B242B252B21F408950A2609F4A1403D
:1036E000A6958FEF811D811D089597F99F6780E84A
:1036F00070E060E008959FEF80EC089500240A9444
:103700001616170618060906089500240A941216BC
:103710001306140605060895092E0394000C11F4EF
:10372000882352F0BB0F40F4BF2B11F460FF04C09C
:103730006F5F7F4F8F4F9F4F089557FD9058440FF5
:10374000551F59F05F3F71F04795880F97FB991F00
:1037500061F09F3F79F087950895121613061406BD
:10376000551FF2CF4695F1DF08C01616170618064A
:10377000991FF1CF86957105610508940895E89425
:10378000BB2766277727CB0197F908950E94511B25
:1037900008F48FEF08950E94DE1B0C948C1B0E948E
:1037A0007E1B38F00E94851B20F0952311F00C94AD
:1037B000751B0C947B1B11240C94C01B0E949D1B39
:1037C00070F3959FC1F3950F50E0551F629FF00174
:1037D000729FBB27F00DB11D639FAA27F00DB11D8D
:1037E000AA1F649F6627B00DA11D661F829F222716
:1037F000B00DA11D621F739FB00DA11D621F839F9D
:10380000A00D611D221F749F3327A00D611D231F72
:10381000849F600D211D822F762F6A2F11249F57C0
:1038200050409AF0F1F088234AF0EE0FFF1FBB1FC3
:10383000661F771F881F91505040A9F79E3F510582
:1038400080F00C94751B0C94C01B5F3FE4F3983E12
:10385000D4F3869577956795B795F795E7959F5F2C
:10386000C1F7FE2B880F911D9695879597F90895BE
:103870002F923F924F925F926F927F928F929F9280
:10388000AF92BF92CF92DF92EF92FF920F931F936E
:10389000CF93DF93CDB7DEB763970FB6F894DEBF53
:1038A0000FBECDBF6C014B012A01FC0117821682AD
:1038B000838181FF43C3AE014F5F5F4F3A01F60141
:1038C0009381F40193FD859193FF81914F018823AA
:1038D00009F430C3853239F493FD859193FF8191CA
:1038E0004F01853239F4B60190E00E945021520117
:1038F0002501E5CF10E0F12C20E02032A0F48B323E
:1039000069F030F4803259F0833269F420612CC0C0
:103910008D3239F0803339F4216026C02260246072
:1039200023C0286021C027FD27C030ED380F3A3072
:1039300078F426FF06C0FAE01F9F300D1124132FE4
:1039400013C04AE0F49E300D1124F32E20620CC007
:103950008E3221F426FDEEC2206406C08C3611F4AE
:10396000206802C0883641F4F40193FD859193FFED
:1039700081914F018111C1CF9BEB980F933018F4C7
:103980002061805E06C09BE9980F933008F071C1FA
:103990002F7E26FF16E02F73322E853619F4206411
:1039A000322E08C0863621F4F22FF0683F2E02C076
:1039B0001111115037FE07C01C3350F4EE24E3946C
:1039C000E10E27E00BC0183038F027E017E005C003
:1039D00027E04CE3E42E02C0212FE12C520144E009
:1039E000A40EB11CF20160817181828193810E2D40
:1039F000A3010E9459202C01098100FF02C003FF8E
:103A000007C031FC08C032FE09C030E2232E07C0D7
:103A10002DE2222E04C09BE2292E01C0212C802FF2
:103A20008C7019F0211068C2A8C237FE0FC0E40CD8
:103A300004FF04C08A81813309F4EA941E1474F5EA
:103A4000F8E0FE1578F588E0E82E2CC036FC2AC098
:103A5000812F90E0841595059CF02CEF42162FEFF6
:103A6000520674F0432D4068342E0AC0E2E0F0E0C4
:103A7000EC0FFD1FE10FF11D8081803319F411500F
:103A80001111F4CF37FE0EC0EE24E394E10E812F26
:103A900090E0481659062CF4141904C0EE24E3945F
:103AA00001C010E037FE06C01414150434F4C2013E
:103AB000019605C085E090E002C081E090E0211011
:103AC0000196112331F0212F30E02F5F3F4F820FFD
:103AD000931F2F2D30E08217930714F4F81A01C0BA
:103AE000F12C832D897049F4FF2039F0B60180E272
:103AF00090E00E945021FA94F7CF222029F0B601DD
:103B0000822D90E00E94502133FC09C0FF2039F043
:103B1000B60180E390E00E945021FA94F7CF37FE7F
:103B20005AC0942D852D57FE02C090E080E0292ECA
:103B3000382E20E030E0A2014E1951095D874C87F4
:103B4000A201421953095F874E87612F70E0442715
:103B50005527461B570B598B488B5FEF25163506AB
:103B600049F4B6018EE290E02A8B3B8B0E945021F3
:103B70003B892A89421453046CF04C855D854215BB
:103B8000530544F4EE85FF85E20FF31FE60DF71DA4
:103B9000818101C080E351E0251A31082F5F3F4F3A
:103BA00048895989241635064CF0B60190E02A8BD5
:103BB0003B8B0E9450212A893B89CFCF24143504A6
:103BC00039F49A81963318F4953311F404FF81E3A4
:103BD000B60190E04BC08A81813309F00F7EB601B7
:103BE00090E00E945021111105C034FC18C085E6F8
:103BF00090E017C0B6018EE290E00E94502182E072
:103C0000EE24E394E80EF301E80FF11D8081B60184
:103C100090E00E94502111508E2D91F7E6CF85E45F
:103C200090E0B6010E94502157FC05C04114510498
:103C300039F404FF05C05194419451088DE201C04C
:103C40008BE2B60190E00E94502180E39AE0491691
:103C500051042CF08F5F5AE0451A5108F7CFB60196
:103C600090E00E945021B601C201C0960E945021EE
:103C700057C1833631F0833779F0833509F058C066
:103C800021C05201E2E0AE0EB11CF20180818983B5
:103C900001E010E0230114C05201F2E0AF0EB11CAC
:103CA000F2014080518026FF03C0612F70E002C006
:103CB0006FEF7FEFC2012A8B0E9445218C012A8978
:103CC0002F7715C05201F2E0AF0EB11CF201408017
:103CD000518026FF03C0612F70E002C06FEF7FEFBD
:103CE000C2012A8B0E9431218C012A892068322E40
:103CF00023FD1AC08F2D90E008171907A8F4B6010C
:103D000080E290E00E945021FA94F4CFF20137FC57
:103D1000859137FE81912F01B60190E00E945021DC
:103D2000F110FA94015011090115110579F7F8C045
:103D3000843611F0893659F5520127FF09C0F4E0A5
:103D4000AF0EB11CF20160817181828193810AC042
:103D5000F2E0AF0EB11CF20160817181072E000C00
:103D6000880B990B2F76322E97FF09C0909580957E
:103D7000709561957F4F8F4F9F4F2068322E2AE0BC
:103D800030E0A3010E948821E82EE6183FC0022FF0
:103D9000853721F40F7E2AE030E01DC0097F8F3681
:103DA00091F018F4883559F0C5C0803719F088377C
:103DB00011F0C0C0006104FF09C0046007C024FF07
:103DC00008C0066006C028E030E005C020E130E011
:103DD00002C020E132E0520107FF09C0F4E0AF0E5B
:103DE000B11CF201608171818281938108C0F2E08F
:103DF000AF0EB11CF2016081718180E090E0A301FF
:103E00000E948821E82EE6180F77302E36FE0BC070
:103E1000332D3E7FE11650F434FE0AC032FC08C058
:103E2000332D3E7E05C00E2D332D03C00E2D01C057
:103E3000012F34FF0CC0FE01EE0DF11D8081803397
:103E400011F4397E08C032FF05C00E5F04C0832F15
:103E5000867809F00F5F33FD13C030FF06C01E2DBA
:103E60000F1518F41F0D101B0F2D0F1568F4B60158
:103E700080E290E03B8B0E9450210F5F3B89F5CFA1
:103E80000F1510F4F01A01C0F12C34FF12C0B60166
:103E900080E390E03B8B0E9450213B8932FF17C0AA
:103EA00031FD03C088E790E002C088E590E0B601EC
:103EB0000CC0832F867859F031FF02C08BE201C01D
:103EC00080E237FD8DE2B60190E00E945021E116BC
:103ED00038F4B60180E390E00E9450211150F7CFF2
:103EE000EA94F301EE0DF11D8081B60190E00E948D
:103EF0005021E110F5CF14C0F4E0FF1558F584E02F
:103F0000F81A33FE1EC0211026C003FF2AC000E3AA
:103F100013E0F32DF0713F2EF8018491811124C03C
:103F2000FF2009F4E5CCB60180E290E00E94502128
:103F3000FA94F6CFF6018681978126C08FEF9FEF26
:103F400023C0B60180E290E00E945021FA94F11063
:103F5000F8CFD9CFF12CB601822D90E00E945021EC
:103F6000D4CF04E313E0D5CF31108052B60190E0F6
:103F70000E9450210F5F1F4FCFCF23E02F1510F469
:103F800083E0BECFF12CC1CF63960FB6F894DEBFAD
:103F90000FBECDBFDF91CF911F910F91FF90EF909A
:103FA000DF90CF90BF90AF909F908F907F906F9059
:103FB0005F904F903F902F900895AA1BBB1B51E13B
:103FC00007C0AA1FBB1FA617B70710F0A61BB70B89
:103FD000881F991F5A95A9F780959095BC01CD012E
:103FE0000895A1E21A2EAA1BBB1BFD010DC0AA1F3A
:103FF000BB1FEE1FFF1FA217B307E407F50720F052
:10400000A21BB30BE40BF50B661F771F881F991FCC
:104010001A9469F760957095809590959B01AC0115
:10402000BD01CF010895052E97FB1EF400940E9458
:104030002A2057FD07D00E94F11F07FC03D04EF441
:104040000C942A2050954095309521953F4F4F4F25
:104050005F4F089590958095709561957F4F8F4F34
:104060009F4F0895EE0FFF1F0024001C0BBE07900A
:10407000F691E02D09940E944320332312F48A1B09
:104080009B0B0C945420A29FB001B39FC001A39F2F
:10409000700D811D1124911DB29F700D811D112481
:1040A000911D08950E944320B7FF0895821B930B32
:1040B0000895283008F027E03327DA01990F311DE1
:1040C00087FD916000966105710539F432602E5FBD
:1040D0003D9330E32A95E1F708959F3F30F0803813
:1040E0007105610509F03C5F3C5F3D93913008F03C
:1040F0008068911DDF93CF931F930F93FF92EF92F0
:10410000192F987F9695E92F96959695E90FFF2799
:10411000EE56FC4F99273327EE24FF24A701E70131
:1041200005900894079428F4360FE71EF81E491FDF
:10413000511D660F771F881F991F0694A1F70590E0
:10414000079428F4E70EF81E491F561FC11D770F6C
:10415000881F991F661F0694A1F70590079428F4FD
:10416000F80E491F561FC71FD11D880F991F661FC4
:10417000771F0694A1F70590079420F4490F561F66
:10418000C71FD81F990F661F771F881F0694A9F7AE
:1041900084911095177041F0D695C795579547951E
:1041A000F794E7941A95C1F7E8E3F3E06894159063
:1041B000159135916591959105907FE27395E11880
:1041C000F10A430B560BC90BD009C0F7E10CF11EE5
:1041D000431F561FC91FD01D7EF4703311F48A95FA
:1041E000E6CFE894015030F0080F0AF400270217D8
:1041F00008F4202F2395022F7A3328F079E37D935A
:104200002A95E9F710C07D932A9589F6069497952B
:104210006795379517951794E118F10A430B560BDC
:10422000C90BD00998F023957E9173957A3308F0E5
:1042300070E37C932013B8F77E9170617D9330F02A
:10424000839571E37D9370E32A95E1F71124EF9054
:10425000FF900F911F91CF91DF91992787FD909546
:104260000895FC010590615070400110D8F78095C9
:1042700090958E0F9F1F0895FB01DC0102C00190F5
:104280000D9241505040D8F70895FC0161507040A4
:1042900001900110D8F7809590958E0F9F1F08957B
:1042A0000F931F93CF93DF93FB01238121FD03C065
:1042B0008FEF9FEF28C022FF16C0468157812481CF
:1042C00035814217530744F4A081B1819D012F5FCE
:1042D0003F4F318320838C93268137812F5F3F4F5F
:1042E0003783268310C0EB01092F182F0084F18536
:1042F000E02D0995892BE1F68E819F8101969F83A0
:104300008E83812F902FDF91CF911F910F91089570
:10431000FA01AA27283051F1203181F1E8946F93F6
:104320006E7F6E5F7F4F8F4F9F4FAF4FB1E03ED09C
:10433000B4E03CD0670F781F891F9A1FA11D680F3A
:10434000791F8A1F911DA11D6A0F711D811D911D6D
:10435000A11D20D009F468943F912AE0269F1124E2
:104360003019305D3193DEF6CF010895462F477046
:10437000405D4193B3E00FD0C9F7F6CF462F4F70A1
:10438000405D4A3318F0495D31FD4052419302D0FF
:10439000A9F7EACFB4E0A6959795879577956795A5
:1043A000BA95C9F700976105710508959B01AC01A5
:1043B0000A2E06945795479537952795BA95C9F7CC
:1043C000620F731F841F951FA01D0895262FE1996A
:1043D000FECF9FBB8EBBE09A01970DB2021631F063
:1043E0002DBB0FB6F894E29AE19A0FBE0895F894A7
:0243F000FFCFFD
:1043F2000111100804910703C706109206067406FD
:1044020017120701560505AC050FE005021F06004D
:10441200000000000000000000000000000000009A
:1044220000024064000204040404040600016576EC
:0644320036395F30300056
:020000021000EC
:04F800000E9419FE4B
:10F80600CF92DF92EF92FF92CF93DF93F894E19934
:10F81600FECFA0910001AC3031F09A0133956B0117
:10F826007C01B1E00CC023E0FB0180935B002093D8
:10F836006800E8952091680020FDFCCFEECFEA0134
:10F84600E8814E5F5F4F2196F881CF2FD0E0DC2F05
:10F85600CC27CE0FD11D0E01F601E0925B00B093CE
:10F866006800E8951124D2E0CD0ED11CE11CF11CF4
:10F876004217530721F7AC3059F425E0FB0180937A
:10F886005B0020936800E8958091680080FDFCCFBE
:10F8960081E180936800E895DF91CF91FF90EF902A
:10F8A600DF90CF900895FC01680F791F8FEF9FEFCF
:10F8B600E617F707C9F021918227282F22952827D6
:10F8C600022E269526952025022E26952025277080
:10F8D600082E892F269507942795902D8227069422
:10F8E600279590258227E4CF0895909101019111E3
:10F8F6000DC05E9902C05D9BFCCF5E9A8CB9B89A2A
:10F90600C09A089590919B0095FD04C090919B002C
:10F9160096FFF8CF90919B00906490939B00809304
:10F926009C0008959A0121503F4FDA01641B750B24
:10F93600FB01EA0FFB1FE4918D91E81739F081EF87
:10F9460090E00E9478FC8FEF9FEF0895A217B3070F
:10F9560079F780E090E0089580910101811110C04F
:10F966005E9902C05D9BFCCF8FEF8CB95E9A5E9963
:10F9760002C05D9BFCCF5E9AC0988CB18CB1089595
:10F9860080E0089590910101911104C05F9BFECF24
:10F996008CB1089580919B0087FFF6CF80919C00E3
:10F9A60008956F927F928F929F92AF92BF92CF925D
:10F9B600DF92EF92FF920F931F93CF93DF9303E0B3
:10F9C600FF24F39434E0E32E45E0D42E56E0C52E12
:10F9D60067E0B62E78E0A72EE9E09E2EFAE08F2E9D
:10F9E600ABE07A2EBCE06B2E109100011C3029F59D
:10F9F6000E94C5FC888367E071E082E091E00E9486
:10FA060056FC492F5527288130E04217530779F4D1
:10FA160099272197288130E08217930741F481E0E6
:10FA260090E020910801211185C080E083C080EF1D
:10FA36000E9478FC8FEF9FEF7DC01B3051F40E942F
:10FA4600C5FC9E012F5F3F4F888360920001E9014C
:10FA5600CBCF1A3089F40E94C5FC9E012F5F3F4F21
:10FA66008883293082E038071CF07092000102C0BA
:10FA760010930001A895EBCF193049F40E94C5FCFC
:10FA86009E012F5F3F4F888380920001E0CF1830A0
:10FA960049F40E94C5FC9E012F5F3F4F88839092D8
:10FAA6000001D5CF173049F40E94C5FC9E012F5F97
:10FAB6003F4F8883A0920001CACF163049F40E94B6
:10FAC600C5FC9E012F5F3F4F8883B0920001BFCFD8
:10FAD600153049F40E94C5FC9E012F5F3F4F888375
:10FAE600C0920001B4CF143049F40E94C5FC9E01B7
:10FAF6002F5F3F4F8883D0920001A9CF133071F456
:10FB06000E94C5FC9E012F5F3F4F8883803119F408
:10FB1600E09200019CCFF092000199CF0E94C5FCB3
:10FB260080930201853611F400930001A89523E025
:10FB360031E08DCFDF91CF911F910F91FF90EF9024
:10FB4600DF90CF90BF90AF909F908F907F906F90F7
:10FB56000895CF93DF931F92CDB7DEB797FDFFCF02
:10FB660080E00E9478FC80E00E9478FC80E00E94A1
:10FB760078FC80E00E9478FC80E00E9478FC80910E
:10FB860002010E9478FC809103010E9478FC80911A
:10FB960004010E9478FC809105010E9478FC809106
:10FBA60006010E9478FC809107010E9478FC66E0BD
:10FBB60070E082E091E00E9456FC809308019983F0
:10FBC6000E9478FC998190930901892F0E9478FC04
:10FBD6000E94AFFC0F90DF91CF910895262FE199F7
:10FBE600FECF9FBB8EBBE09A01970DB2021631F095
:10FBF6002DBB0FB6F894E29AE19A0FBE08950895C8
:10FC0600F89481E180936800E89561E08FEF9FE0CA
:10FC16000E94F1FDE0E0F0E00994E199FECF9FBB80
:10FC26008EBBE09A99278DB308950895112480E13B
:10FC36008EBF8FEF8DBF1FBE9EE088E10FB6F89492
:10FC4600A89581BD0FBE91BDE0E0F1E01192E115EE
:10FC560081E1F807D9F78FEF9FE00E9410FE8E3DF5
:10FC6600C1F480EE8BB988E18AB98EE08093950065
:10FC76008DE189B981E087BB88BB1092900085E64B
:10FC86008CB95E9902C05D9BFCCF5E9AC0988CB120
:10FC960019C08F3DA9F481E08093010180EE809325
:10FCA6009B0088E180939A008EE080939D0087E711
:10FCB600809399001092980085E680939C0002C07C
:10FCC6000E9403FE1ABA81E087BB14BA11BA12B8B1
:10FCD6001092640011E0109300010E94D4FCEC0124
:10FCE600C090040180910501D7FD1FC0D12CE12CE5
:10FCF600F12CFE2CED2CDC2CCC24C80ED11CE11CE6
:10FD0600F11CFE2CED2CDC2CCC2449E051E0C70183
:10FD1600B6010E9403FC49E051E0C701B6010E940A
:10FD260095FC97FF02C0CFEFDFEFCE010E94ACFD3E
:0CFD3600219711F40E9403FEA895CDCF88
:00000001FF
